{
	"contracts/CMBS20Demo.sol": {
		"CMBS20Demo": {
			"abi": [
				{
					"inputs": [
						{
							"internalType": "contract IERC20",
							"name": "_stable",
							"type": "address"
						},
						{
							"internalType": "string",
							"name": "_uri",
							"type": "string"
						}
					],
					"stateMutability": "nonpayable",
					"type": "constructor"
				},
				{
					"inputs": [],
					"name": "AccessControlBadConfirmation",
					"type": "error"
				},
				{
					"inputs": [
						{
							"internalType": "address",
							"name": "account",
							"type": "address"
						},
						{
							"internalType": "bytes32",
							"name": "neededRole",
							"type": "bytes32"
						}
					],
					"name": "AccessControlUnauthorizedAccount",
					"type": "error"
				},
				{
					"inputs": [],
					"name": "EnforcedPause",
					"type": "error"
				},
				{
					"inputs": [],
					"name": "ExpectedPause",
					"type": "error"
				},
				{
					"anonymous": false,
					"inputs": [
						{
							"indexed": true,
							"internalType": "uint256",
							"name": "id",
							"type": "uint256"
						},
						{
							"indexed": true,
							"internalType": "address",
							"name": "investor",
							"type": "address"
						},
						{
							"indexed": false,
							"internalType": "uint256",
							"name": "amount",
							"type": "uint256"
						}
					],
					"name": "Distribution",
					"type": "event"
				},
				{
					"anonymous": false,
					"inputs": [
						{
							"indexed": false,
							"internalType": "address",
							"name": "account",
							"type": "address"
						}
					],
					"name": "Paused",
					"type": "event"
				},
				{
					"anonymous": false,
					"inputs": [
						{
							"indexed": true,
							"internalType": "uint256",
							"name": "id",
							"type": "uint256"
						},
						{
							"indexed": false,
							"internalType": "uint256",
							"name": "interestPaid",
							"type": "uint256"
						},
						{
							"indexed": false,
							"internalType": "uint256",
							"name": "principalPaid",
							"type": "uint256"
						}
					],
					"name": "PaymentAllocated",
					"type": "event"
				},
				{
					"anonymous": false,
					"inputs": [
						{
							"indexed": true,
							"internalType": "bytes32",
							"name": "role",
							"type": "bytes32"
						},
						{
							"indexed": true,
							"internalType": "bytes32",
							"name": "previousAdminRole",
							"type": "bytes32"
						},
						{
							"indexed": true,
							"internalType": "bytes32",
							"name": "newAdminRole",
							"type": "bytes32"
						}
					],
					"name": "RoleAdminChanged",
					"type": "event"
				},
				{
					"anonymous": false,
					"inputs": [
						{
							"indexed": true,
							"internalType": "bytes32",
							"name": "role",
							"type": "bytes32"
						},
						{
							"indexed": true,
							"internalType": "address",
							"name": "account",
							"type": "address"
						},
						{
							"indexed": true,
							"internalType": "address",
							"name": "sender",
							"type": "address"
						}
					],
					"name": "RoleGranted",
					"type": "event"
				},
				{
					"anonymous": false,
					"inputs": [
						{
							"indexed": true,
							"internalType": "bytes32",
							"name": "role",
							"type": "bytes32"
						},
						{
							"indexed": true,
							"internalType": "address",
							"name": "account",
							"type": "address"
						},
						{
							"indexed": true,
							"internalType": "address",
							"name": "sender",
							"type": "address"
						}
					],
					"name": "RoleRevoked",
					"type": "event"
				},
				{
					"anonymous": false,
					"inputs": [
						{
							"indexed": true,
							"internalType": "uint256",
							"name": "id",
							"type": "uint256"
						},
						{
							"indexed": false,
							"internalType": "uint256",
							"name": "principal",
							"type": "uint256"
						},
						{
							"indexed": false,
							"internalType": "uint256",
							"name": "couponBps",
							"type": "uint256"
						},
						{
							"indexed": false,
							"internalType": "uint8",
							"name": "seniority",
							"type": "uint8"
						},
						{
							"indexed": false,
							"internalType": "uint256",
							"name": "supply",
							"type": "uint256"
						}
					],
					"name": "TrancheCreated",
					"type": "event"
				},
				{
					"anonymous": false,
					"inputs": [
						{
							"indexed": false,
							"internalType": "address",
							"name": "account",
							"type": "address"
						}
					],
					"name": "Unpaused",
					"type": "event"
				},
				{
					"anonymous": false,
					"inputs": [
						{
							"indexed": true,
							"internalType": "address",
							"name": "investor",
							"type": "address"
						},
						{
							"indexed": true,
							"internalType": "uint256",
							"name": "id",
							"type": "uint256"
						},
						{
							"indexed": false,
							"internalType": "uint256",
							"name": "amount",
							"type": "uint256"
						}
					],
					"name": "Withdraw",
					"type": "event"
				},
				{
					"inputs": [],
					"name": "DEFAULT_ADMIN_ROLE",
					"outputs": [
						{
							"internalType": "bytes32",
							"name": "",
							"type": "bytes32"
						}
					],
					"stateMutability": "view",
					"type": "function"
				},
				{
					"inputs": [],
					"name": "SERVICER_ROLE",
					"outputs": [
						{
							"internalType": "bytes32",
							"name": "",
							"type": "bytes32"
						}
					],
					"stateMutability": "view",
					"type": "function"
				},
				{
					"inputs": [],
					"name": "accrueAllInterest",
					"outputs": [],
					"stateMutability": "nonpayable",
					"type": "function"
				},
				{
					"inputs": [
						{
							"internalType": "address",
							"name": "account",
							"type": "address"
						},
						{
							"internalType": "uint256",
							"name": "id",
							"type": "uint256"
						}
					],
					"name": "balanceOf",
					"outputs": [
						{
							"internalType": "uint256",
							"name": "",
							"type": "uint256"
						}
					],
					"stateMutability": "view",
					"type": "function"
				},
				{
					"inputs": [
						{
							"internalType": "contract ERC3643Token",
							"name": "token",
							"type": "address"
						},
						{
							"internalType": "uint256",
							"name": "principal",
							"type": "uint256"
						},
						{
							"internalType": "uint256",
							"name": "couponBps",
							"type": "uint256"
						},
						{
							"internalType": "uint8",
							"name": "seniority",
							"type": "uint8"
						},
						{
							"internalType": "uint256",
							"name": "supply",
							"type": "uint256"
						}
					],
					"name": "createTranche",
					"outputs": [],
					"stateMutability": "nonpayable",
					"type": "function"
				},
				{
					"inputs": [
						{
							"internalType": "uint256",
							"name": "amount",
							"type": "uint256"
						}
					],
					"name": "depositAndDistribute",
					"outputs": [],
					"stateMutability": "nonpayable",
					"type": "function"
				},
				{
					"inputs": [
						{
							"internalType": "uint256",
							"name": "id",
							"type": "uint256"
						},
						{
							"internalType": "address[]",
							"name": "investors",
							"type": "address[]"
						},
						{
							"internalType": "uint256[]",
							"name": "amounts",
							"type": "uint256[]"
						}
					],
					"name": "distributeToInvestors",
					"outputs": [],
					"stateMutability": "nonpayable",
					"type": "function"
				},
				{
					"inputs": [
						{
							"internalType": "bytes32",
							"name": "role",
							"type": "bytes32"
						}
					],
					"name": "getRoleAdmin",
					"outputs": [
						{
							"internalType": "bytes32",
							"name": "",
							"type": "bytes32"
						}
					],
					"stateMutability": "view",
					"type": "function"
				},
				{
					"inputs": [
						{
							"internalType": "bytes32",
							"name": "role",
							"type": "bytes32"
						},
						{
							"internalType": "address",
							"name": "account",
							"type": "address"
						}
					],
					"name": "grantRole",
					"outputs": [],
					"stateMutability": "nonpayable",
					"type": "function"
				},
				{
					"inputs": [
						{
							"internalType": "bytes32",
							"name": "role",
							"type": "bytes32"
						},
						{
							"internalType": "address",
							"name": "account",
							"type": "address"
						}
					],
					"name": "hasRole",
					"outputs": [
						{
							"internalType": "bool",
							"name": "",
							"type": "bool"
						}
					],
					"stateMutability": "view",
					"type": "function"
				},
				{
					"inputs": [],
					"name": "lastAccrual",
					"outputs": [
						{
							"internalType": "uint256",
							"name": "",
							"type": "uint256"
						}
					],
					"stateMutability": "view",
					"type": "function"
				},
				{
					"inputs": [],
					"name": "nextTrancheId",
					"outputs": [
						{
							"internalType": "uint256",
							"name": "",
							"type": "uint256"
						}
					],
					"stateMutability": "view",
					"type": "function"
				},
				{
					"inputs": [],
					"name": "pause",
					"outputs": [],
					"stateMutability": "nonpayable",
					"type": "function"
				},
				{
					"inputs": [],
					"name": "paused",
					"outputs": [
						{
							"internalType": "bool",
							"name": "",
							"type": "bool"
						}
					],
					"stateMutability": "view",
					"type": "function"
				},
				{
					"inputs": [
						{
							"internalType": "bytes32",
							"name": "role",
							"type": "bytes32"
						},
						{
							"internalType": "address",
							"name": "callerConfirmation",
							"type": "address"
						}
					],
					"name": "renounceRole",
					"outputs": [],
					"stateMutability": "nonpayable",
					"type": "function"
				},
				{
					"inputs": [
						{
							"internalType": "bytes32",
							"name": "role",
							"type": "bytes32"
						},
						{
							"internalType": "address",
							"name": "account",
							"type": "address"
						}
					],
					"name": "revokeRole",
					"outputs": [],
					"stateMutability": "nonpayable",
					"type": "function"
				},
				{
					"inputs": [],
					"name": "stable",
					"outputs": [
						{
							"internalType": "contract IERC20",
							"name": "",
							"type": "address"
						}
					],
					"stateMutability": "view",
					"type": "function"
				},
				{
					"inputs": [
						{
							"internalType": "bytes4",
							"name": "interfaceId",
							"type": "bytes4"
						}
					],
					"name": "supportsInterface",
					"outputs": [
						{
							"internalType": "bool",
							"name": "",
							"type": "bool"
						}
					],
					"stateMutability": "view",
					"type": "function"
				},
				{
					"inputs": [
						{
							"internalType": "address",
							"name": "to",
							"type": "address"
						},
						{
							"internalType": "uint256",
							"name": "amount",
							"type": "uint256"
						}
					],
					"name": "sweep",
					"outputs": [],
					"stateMutability": "nonpayable",
					"type": "function"
				},
				{
					"inputs": [],
					"name": "totalSupply",
					"outputs": [
						{
							"internalType": "uint256",
							"name": "total",
							"type": "uint256"
						}
					],
					"stateMutability": "view",
					"type": "function"
				},
				{
					"inputs": [
						{
							"internalType": "uint256",
							"name": "id",
							"type": "uint256"
						}
					],
					"name": "totalSupply",
					"outputs": [
						{
							"internalType": "uint256",
							"name": "",
							"type": "uint256"
						}
					],
					"stateMutability": "view",
					"type": "function"
				},
				{
					"inputs": [
						{
							"internalType": "uint256",
							"name": "",
							"type": "uint256"
						}
					],
					"name": "tranches",
					"outputs": [
						{
							"internalType": "contract ERC3643Token",
							"name": "token",
							"type": "address"
						},
						{
							"internalType": "uint256",
							"name": "principal",
							"type": "uint256"
						},
						{
							"internalType": "uint256",
							"name": "couponBps",
							"type": "uint256"
						},
						{
							"internalType": "uint8",
							"name": "seniority",
							"type": "uint8"
						},
						{
							"internalType": "uint256",
							"name": "accruedInterest",
							"type": "uint256"
						},
						{
							"internalType": "uint256",
							"name": "cashAvailable",
							"type": "uint256"
						}
					],
					"stateMutability": "view",
					"type": "function"
				},
				{
					"inputs": [],
					"name": "unpause",
					"outputs": [],
					"stateMutability": "nonpayable",
					"type": "function"
				},
				{
					"inputs": [],
					"name": "uri",
					"outputs": [
						{
							"internalType": "string",
							"name": "",
							"type": "string"
						}
					],
					"stateMutability": "view",
					"type": "function"
				},
				{
					"inputs": [
						{
							"internalType": "uint256",
							"name": "id",
							"type": "uint256"
						},
						{
							"internalType": "uint256",
							"name": "amount",
							"type": "uint256"
						}
					],
					"name": "withdraw",
					"outputs": [],
					"stateMutability": "nonpayable",
					"type": "function"
				}
			],
			"devdoc": {
				"errors": {
					"AccessControlBadConfirmation()": [
						{
							"details": "The caller of a function is not the expected one. NOTE: Don't confuse with {AccessControlUnauthorizedAccount}."
						}
					],
					"AccessControlUnauthorizedAccount(address,bytes32)": [
						{
							"details": "The `account` is missing a role."
						}
					],
					"EnforcedPause()": [
						{
							"details": "The operation failed because the contract is paused."
						}
					],
					"ExpectedPause()": [
						{
							"details": "The operation failed because the contract is not paused."
						}
					]
				},
				"events": {
					"Paused(address)": {
						"details": "Emitted when the pause is triggered by `account`."
					},
					"RoleAdminChanged(bytes32,bytes32,bytes32)": {
						"details": "Emitted when `newAdminRole` is set as ``role``'s admin role, replacing `previousAdminRole` `DEFAULT_ADMIN_ROLE` is the starting admin for all roles, despite {RoleAdminChanged} not being emitted to signal this."
					},
					"RoleGranted(bytes32,address,address)": {
						"details": "Emitted when `account` is granted `role`. `sender` is the account that originated the contract call. This account bears the admin role (for the granted role). Expected in cases where the role was granted using the internal {AccessControl-_grantRole}."
					},
					"RoleRevoked(bytes32,address,address)": {
						"details": "Emitted when `account` is revoked `role`. `sender` is the account that originated the contract call:   - if using `revokeRole`, it is the admin role bearer   - if using `renounceRole`, it is the role bearer (i.e. `account`)"
					},
					"Unpaused(address)": {
						"details": "Emitted when the pause is lifted by `account`."
					}
				},
				"kind": "dev",
				"methods": {
					"getRoleAdmin(bytes32)": {
						"details": "Returns the admin role that controls `role`. See {grantRole} and {revokeRole}. To change a role's admin, use {_setRoleAdmin}."
					},
					"grantRole(bytes32,address)": {
						"details": "Grants `role` to `account`. If `account` had not been already granted `role`, emits a {RoleGranted} event. Requirements: - the caller must have ``role``'s admin role. May emit a {RoleGranted} event."
					},
					"hasRole(bytes32,address)": {
						"details": "Returns `true` if `account` has been granted `role`."
					},
					"paused()": {
						"details": "Returns true if the contract is paused, and false otherwise."
					},
					"renounceRole(bytes32,address)": {
						"details": "Revokes `role` from the calling account. Roles are often managed via {grantRole} and {revokeRole}: this function's purpose is to provide a mechanism for accounts to lose their privileges if they are compromised (such as when a trusted device is misplaced). If the calling account had been revoked `role`, emits a {RoleRevoked} event. Requirements: - the caller must be `callerConfirmation`. May emit a {RoleRevoked} event."
					},
					"revokeRole(bytes32,address)": {
						"details": "Revokes `role` from `account`. If `account` had been granted `role`, emits a {RoleRevoked} event. Requirements: - the caller must have ``role``'s admin role. May emit a {RoleRevoked} event."
					},
					"supportsInterface(bytes4)": {
						"details": "See {IERC165-supportsInterface}."
					}
				},
				"version": 1
			},
			"evm": {
				"assembly": "    /* \"contracts/CMBS20Demo.sol\":289:6863  contract CMBS20Demo is AccessControl, Pausable {... */\n  mstore(0x40, 0xa0)\n    /* \"contracts/CMBS20Demo.sol\":1205:1444  constructor(IERC20 _stable, string memory _uri) {... */\n  callvalue\n  dup1\n  iszero\n  tag_1\n  jumpi\n  0x00\n  dup1\n  revert\ntag_1:\n  pop\n  mload(0x40)\n  sub(codesize, bytecodeSize)\n  dup1\n  bytecodeSize\n  dup4\n  codecopy\n  dup2\n  add\n  0x40\n  dup2\n  swap1\n  mstore\n  tag_2\n  swap2\n  tag_3\n  jump\t// in\ntag_2:\n    /* \"contracts/CMBS20Demo.sol\":1263:1266  uri */\n  0x02\n    /* \"contracts/CMBS20Demo.sol\":1263:1273  uri = _uri */\n  tag_6\n    /* \"contracts/CMBS20Demo.sol\":1269:1273  _uri */\n  dup3\n    /* \"contracts/CMBS20Demo.sol\":1263:1266  uri */\n  dup3\n    /* \"contracts/CMBS20Demo.sol\":1263:1273  uri = _uri */\n  tag_7\n  jump\t// in\ntag_6:\n  pop\n  sub(shl(0xa0, 0x01), 0x01)\n    /* \"contracts/CMBS20Demo.sol\":1283:1299  stable = _stable */\n  dup3\n  and\n  0x80\n  mstore\n    /* \"contracts/CMBS20Demo.sol\":1309:1351  _grantRole(DEFAULT_ADMIN_ROLE, msg.sender) */\n  tag_8\n    /* \"@openzeppelin/contracts/access/AccessControl.sol\":2232:2236  0x00 */\n  0x00\n    /* \"contracts/CMBS20Demo.sol\":1340:1350  msg.sender */\n  caller\n    /* \"contracts/CMBS20Demo.sol\":1309:1319  _grantRole */\n  tag_9\n    /* \"contracts/CMBS20Demo.sol\":1309:1351  _grantRole(DEFAULT_ADMIN_ROLE, msg.sender) */\n  jump\t// in\ntag_8:\n  pop\n    /* \"contracts/CMBS20Demo.sol\":1361:1398  _grantRole(SERVICER_ROLE, msg.sender) */\n  tag_10\n    /* \"contracts/CMBS20Demo.sol\":382:408  keccak256(\"SERVICER_ROLE\") */\n  0x250b76734a070a69c7b3930477dd35007ad9c9d0952e97903fdafb2db6980537\n    /* \"contracts/CMBS20Demo.sol\":1387:1397  msg.sender */\n  caller\n    /* \"contracts/CMBS20Demo.sol\":1361:1371  _grantRole */\n  tag_9\n    /* \"contracts/CMBS20Demo.sol\":1361:1398  _grantRole(SERVICER_ROLE, msg.sender) */\n  jump\t// in\ntag_10:\n  pop\n  pop\n    /* \"contracts/CMBS20Demo.sol\":1422:1437  block.timestamp */\n  timestamp\n    /* \"contracts/CMBS20Demo.sol\":1408:1419  lastAccrual */\n  0x04\n    /* \"contracts/CMBS20Demo.sol\":1408:1437  lastAccrual = block.timestamp */\n  sstore\n  pop\n    /* \"contracts/CMBS20Demo.sol\":289:6863  contract CMBS20Demo is AccessControl, Pausable {... */\n  jump(tag_26)\n    /* \"@openzeppelin/contracts/access/AccessControl.sol\":6179:6495  function _grantRole(bytes32 role, address account) internal virtual returns (bool) {... */\ntag_9:\n    /* \"@openzeppelin/contracts/access/AccessControl.sol\":6256:6260  bool */\n  0x00\n    /* \"@openzeppelin/contracts/access/AccessControl.sol\":2954:2966  _roles[role] */\n  dup3\n  dup2\n  mstore\n  0x20\n  dup2\n  dup2\n  mstore\n  0x40\n  dup1\n  dup4\n  keccak256\n  sub(shl(0xa0, 0x01), 0x01)\n    /* \"@openzeppelin/contracts/access/AccessControl.sol\":2954:2983  _roles[role].hasRole[account] */\n  dup6\n  and\n  dup5\n  mstore\n  swap1\n  swap2\n  mstore\n  dup2\n  keccak256\n  sload\n  0xff\n  and\n    /* \"@openzeppelin/contracts/access/AccessControl.sol\":6272:6489  if (!hasRole(role, account)) {... */\n  tag_15\n  jumpi\n    /* \"@openzeppelin/contracts/access/AccessControl.sol\":6315:6321  _roles */\n  0x00\n    /* \"@openzeppelin/contracts/access/AccessControl.sol\":6315:6327  _roles[role] */\n  dup4\n  dup2\n  mstore\n  0x20\n  dup2\n  dup2\n  mstore\n  0x40\n  dup1\n  dup4\n  keccak256\n  sub(shl(0xa0, 0x01), 0x01)\n    /* \"@openzeppelin/contracts/access/AccessControl.sol\":6315:6344  _roles[role].hasRole[account] */\n  dup7\n  and\n  dup5\n  mstore\n  swap1\n  swap2\n  mstore\n  swap1\n  keccak256\n    /* \"@openzeppelin/contracts/access/AccessControl.sol\":6315:6351  _roles[role].hasRole[account] = true */\n  dup1\n  sload\n  not(0xff)\n  and\n    /* \"@openzeppelin/contracts/access/AccessControl.sol\":6347:6351  true */\n  0x01\n    /* \"@openzeppelin/contracts/access/AccessControl.sol\":6315:6351  _roles[role].hasRole[account] = true */\n  or\n  swap1\n  sstore\n    /* \"@openzeppelin/contracts/access/AccessControl.sol\":6397:6409  _msgSender() */\n  tag_16\n    /* \"@openzeppelin/contracts/utils/Context.sol\":735:745  msg.sender */\n  caller\n  swap1\n    /* \"@openzeppelin/contracts/utils/Context.sol\":656:752  function _msgSender() internal view virtual returns (address) {... */\n  jump\n    /* \"@openzeppelin/contracts/access/AccessControl.sol\":6397:6409  _msgSender() */\ntag_16:\n  sub(shl(0xa0, 0x01), 0x01)\n    /* \"@openzeppelin/contracts/access/AccessControl.sol\":6370:6410  RoleGranted(role, account, _msgSender()) */\n  and\n    /* \"@openzeppelin/contracts/access/AccessControl.sol\":6388:6395  account */\n  dup3\n  sub(shl(0xa0, 0x01), 0x01)\n    /* \"@openzeppelin/contracts/access/AccessControl.sol\":6370:6410  RoleGranted(role, account, _msgSender()) */\n  and\n    /* \"@openzeppelin/contracts/access/AccessControl.sol\":6382:6386  role */\n  dup5\n    /* \"@openzeppelin/contracts/access/AccessControl.sol\":6370:6410  RoleGranted(role, account, _msgSender()) */\n  0x2f8788117e7eff1d82e926ec794901d17c78024a50270940304540a733656f0d\n  mload(0x40)\n  mload(0x40)\n  dup1\n  swap2\n  sub\n  swap1\n  log4\n  pop\n    /* \"@openzeppelin/contracts/access/AccessControl.sol\":6431:6435  true */\n  0x01\n    /* \"@openzeppelin/contracts/access/AccessControl.sol\":6424:6435  return true */\n  jump(tag_18)\n    /* \"@openzeppelin/contracts/access/AccessControl.sol\":6272:6489  if (!hasRole(role, account)) {... */\ntag_15:\n  pop\n    /* \"@openzeppelin/contracts/access/AccessControl.sol\":6473:6478  false */\n  0x00\n    /* \"@openzeppelin/contracts/access/AccessControl.sol\":6272:6489  if (!hasRole(role, account)) {... */\ntag_18:\n    /* \"@openzeppelin/contracts/access/AccessControl.sol\":6179:6495  function _grantRole(bytes32 role, address account) internal virtual returns (bool) {... */\n  swap3\n  swap2\n  pop\n  pop\n  jump\t// out\n    /* \"#utility.yul\":14:141   */\ntag_21:\n    /* \"#utility.yul\":75:85   */\n  0x4e487b71\n    /* \"#utility.yul\":70:73   */\n  0xe0\n    /* \"#utility.yul\":66:86   */\n  shl\n    /* \"#utility.yul\":63:64   */\n  0x00\n    /* \"#utility.yul\":56:87   */\n  mstore\n    /* \"#utility.yul\":106:110   */\n  0x41\n    /* \"#utility.yul\":103:104   */\n  0x04\n    /* \"#utility.yul\":96:111   */\n  mstore\n    /* \"#utility.yul\":130:134   */\n  0x24\n    /* \"#utility.yul\":127:128   */\n  0x00\n    /* \"#utility.yul\":120:135   */\n  revert\n    /* \"#utility.yul\":146:1370   */\ntag_3:\n    /* \"#utility.yul\":250:256   */\n  0x00\n    /* \"#utility.yul\":258:264   */\n  dup1\n    /* \"#utility.yul\":311:313   */\n  0x40\n    /* \"#utility.yul\":299:308   */\n  dup4\n    /* \"#utility.yul\":290:297   */\n  dup6\n    /* \"#utility.yul\":286:309   */\n  sub\n    /* \"#utility.yul\":282:314   */\n  slt\n    /* \"#utility.yul\":279:331   */\n  iszero\n  tag_29\n  jumpi\n    /* \"#utility.yul\":327:328   */\n  0x00\n    /* \"#utility.yul\":324:325   */\n  dup1\n    /* \"#utility.yul\":317:329   */\n  revert\n    /* \"#utility.yul\":279:331   */\ntag_29:\n    /* \"#utility.yul\":353:369   */\n  dup3\n  mload\n  sub(shl(0xa0, 0x01), 0x01)\n    /* \"#utility.yul\":398:429   */\n  dup2\n  and\n    /* \"#utility.yul\":388:430   */\n  dup2\n  eq\n    /* \"#utility.yul\":378:448   */\n  tag_30\n  jumpi\n    /* \"#utility.yul\":444:445   */\n  0x00\n    /* \"#utility.yul\":441:442   */\n  dup1\n    /* \"#utility.yul\":434:446   */\n  revert\n    /* \"#utility.yul\":378:448   */\ntag_30:\n    /* \"#utility.yul\":491:493   */\n  0x20\n    /* \"#utility.yul\":522:540   */\n  dup5\n  dup2\n  add\n    /* \"#utility.yul\":516:541   */\n  mload\n    /* \"#utility.yul\":467:472   */\n  swap2\n  swap4\n  pop\n    /* \"#utility.yul\":491:493   */\n  swap1\n  sub(shl(0x40, 0x01), 0x01)\n    /* \"#utility.yul\":590:604   */\n  dup1\n  dup3\n  gt\n    /* \"#utility.yul\":587:621   */\n  iszero\n  tag_31\n  jumpi\n    /* \"#utility.yul\":617:618   */\n  0x00\n    /* \"#utility.yul\":614:615   */\n  dup1\n    /* \"#utility.yul\":607:619   */\n  revert\n    /* \"#utility.yul\":587:621   */\ntag_31:\n    /* \"#utility.yul\":655:661   */\n  dup2\n    /* \"#utility.yul\":644:653   */\n  dup7\n    /* \"#utility.yul\":640:662   */\n  add\n    /* \"#utility.yul\":630:662   */\n  swap2\n  pop\n    /* \"#utility.yul\":700:707   */\n  dup7\n    /* \"#utility.yul\":693:697   */\n  0x1f\n    /* \"#utility.yul\":689:691   */\n  dup4\n    /* \"#utility.yul\":685:698   */\n  add\n    /* \"#utility.yul\":681:708   */\n  slt\n    /* \"#utility.yul\":671:726   */\n  tag_32\n  jumpi\n    /* \"#utility.yul\":722:723   */\n  0x00\n    /* \"#utility.yul\":719:720   */\n  dup1\n    /* \"#utility.yul\":712:724   */\n  revert\n    /* \"#utility.yul\":671:726   */\ntag_32:\n    /* \"#utility.yul\":751:753   */\n  dup2\n    /* \"#utility.yul\":745:754   */\n  mload\n    /* \"#utility.yul\":773:775   */\n  dup2\n    /* \"#utility.yul\":769:771   */\n  dup2\n    /* \"#utility.yul\":766:776   */\n  gt\n    /* \"#utility.yul\":763:799   */\n  iszero\n  tag_34\n  jumpi\n    /* \"#utility.yul\":779:797   */\n  tag_34\n  tag_21\n  jump\t// in\ntag_34:\n    /* \"#utility.yul\":854:856   */\n  0x40\n    /* \"#utility.yul\":848:857   */\n  mload\n    /* \"#utility.yul\":822:824   */\n  0x1f\n    /* \"#utility.yul\":908:921   */\n  dup3\n  add\n  not(0x1f)\n    /* \"#utility.yul\":904:926   */\n  swap1\n  dup2\n  and\n    /* \"#utility.yul\":928:930   */\n  0x3f\n    /* \"#utility.yul\":900:931   */\n  add\n    /* \"#utility.yul\":896:936   */\n  and\n    /* \"#utility.yul\":884:937   */\n  dup2\n  add\n  swap1\n    /* \"#utility.yul\":952:970   */\n  dup4\n  dup3\n  gt\n    /* \"#utility.yul\":972:994   */\n  dup2\n  dup4\n  lt\n    /* \"#utility.yul\":949:995   */\n  or\n    /* \"#utility.yul\":946:1018   */\n  iszero\n  tag_36\n  jumpi\n    /* \"#utility.yul\":998:1016   */\n  tag_36\n  tag_21\n  jump\t// in\ntag_36:\n    /* \"#utility.yul\":1038:1048   */\n  dup2\n    /* \"#utility.yul\":1034:1036   */\n  0x40\n    /* \"#utility.yul\":1027:1049   */\n  mstore\n    /* \"#utility.yul\":1073:1075   */\n  dup3\n    /* \"#utility.yul\":1065:1071   */\n  dup2\n    /* \"#utility.yul\":1058:1076   */\n  mstore\n    /* \"#utility.yul\":1113:1120   */\n  dup10\n    /* \"#utility.yul\":1108:1110   */\n  dup7\n    /* \"#utility.yul\":1103:1105   */\n  dup5\n    /* \"#utility.yul\":1099:1101   */\n  dup8\n    /* \"#utility.yul\":1095:1106   */\n  add\n    /* \"#utility.yul\":1091:1111   */\n  add\n    /* \"#utility.yul\":1088:1121   */\n  gt\n    /* \"#utility.yul\":1085:1138   */\n  iszero\n  tag_37\n  jumpi\n    /* \"#utility.yul\":1134:1135   */\n  0x00\n    /* \"#utility.yul\":1131:1132   */\n  dup1\n    /* \"#utility.yul\":1124:1136   */\n  revert\n    /* \"#utility.yul\":1085:1138   */\ntag_37:\n    /* \"#utility.yul\":1156:1157   */\n  0x00\n    /* \"#utility.yul\":1147:1157   */\n  swap4\n  pop\n    /* \"#utility.yul\":1166:1295   */\ntag_38:\n    /* \"#utility.yul\":1180:1182   */\n  dup3\n    /* \"#utility.yul\":1177:1178   */\n  dup5\n    /* \"#utility.yul\":1174:1183   */\n  lt\n    /* \"#utility.yul\":1166:1295   */\n  iszero\n  tag_40\n  jumpi\n    /* \"#utility.yul\":1268:1278   */\n  dup5\n  dup5\n  add\n    /* \"#utility.yul\":1264:1283   */\n  dup7\n  add\n    /* \"#utility.yul\":1258:1284   */\n  mload\n    /* \"#utility.yul\":1237:1251   */\n  dup2\n  dup6\n  add\n    /* \"#utility.yul\":1233:1256   */\n  dup8\n  add\n    /* \"#utility.yul\":1226:1285   */\n  mstore\n    /* \"#utility.yul\":1191:1201   */\n  swap3\n  dup6\n  add\n  swap3\n    /* \"#utility.yul\":1166:1295   */\n  jump(tag_38)\ntag_40:\n    /* \"#utility.yul\":1337:1338   */\n  0x00\n    /* \"#utility.yul\":1332:1334   */\n  dup7\n    /* \"#utility.yul\":1327:1329   */\n  dup5\n    /* \"#utility.yul\":1319:1325   */\n  dup4\n    /* \"#utility.yul\":1315:1330   */\n  add\n    /* \"#utility.yul\":1311:1335   */\n  add\n    /* \"#utility.yul\":1304:1339   */\n  mstore\n    /* \"#utility.yul\":1358:1364   */\n  dup1\n    /* \"#utility.yul\":1348:1364   */\n  swap7\n  pop\n  pop\n  pop\n  pop\n  pop\n  pop\n  pop\n    /* \"#utility.yul\":146:1370   */\n  swap3\n  pop\n  swap3\n  swap1\n  pop\n  jump\t// out\n    /* \"#utility.yul\":1375:1755   */\ntag_22:\n    /* \"#utility.yul\":1454:1455   */\n  0x01\n    /* \"#utility.yul\":1450:1462   */\n  dup2\n  dup2\n  shr\n  swap1\n    /* \"#utility.yul\":1497:1509   */\n  dup3\n  and\n  dup1\n    /* \"#utility.yul\":1518:1579   */\n  tag_42\n  jumpi\n    /* \"#utility.yul\":1572:1576   */\n  0x7f\n    /* \"#utility.yul\":1564:1570   */\n  dup3\n    /* \"#utility.yul\":1560:1577   */\n  and\n    /* \"#utility.yul\":1550:1577   */\n  swap2\n  pop\n    /* \"#utility.yul\":1518:1579   */\ntag_42:\n    /* \"#utility.yul\":1625:1627   */\n  0x20\n    /* \"#utility.yul\":1617:1623   */\n  dup3\n    /* \"#utility.yul\":1614:1628   */\n  lt\n    /* \"#utility.yul\":1594:1612   */\n  dup2\n    /* \"#utility.yul\":1591:1629   */\n  sub\n    /* \"#utility.yul\":1588:1749   */\n  tag_43\n  jumpi\n    /* \"#utility.yul\":1671:1681   */\n  0x4e487b71\n    /* \"#utility.yul\":1666:1669   */\n  0xe0\n    /* \"#utility.yul\":1662:1682   */\n  shl\n    /* \"#utility.yul\":1659:1660   */\n  0x00\n    /* \"#utility.yul\":1652:1683   */\n  mstore\n    /* \"#utility.yul\":1706:1710   */\n  0x22\n    /* \"#utility.yul\":1703:1704   */\n  0x04\n    /* \"#utility.yul\":1696:1711   */\n  mstore\n    /* \"#utility.yul\":1734:1738   */\n  0x24\n    /* \"#utility.yul\":1731:1732   */\n  0x00\n    /* \"#utility.yul\":1724:1739   */\n  revert\n    /* \"#utility.yul\":1588:1749   */\ntag_43:\n  pop\n    /* \"#utility.yul\":1375:1755   */\n  swap2\n  swap1\n  pop\n  jump\t// out\n    /* \"#utility.yul\":1886:2429   */\ntag_24:\n    /* \"#utility.yul\":1988:1990   */\n  0x1f\n    /* \"#utility.yul\":1983:1986   */\n  dup3\n    /* \"#utility.yul\":1980:1991   */\n  gt\n    /* \"#utility.yul\":1977:2423   */\n  iszero\n  tag_46\n  jumpi\n    /* \"#utility.yul\":2024:2025   */\n  0x00\n    /* \"#utility.yul\":2048:2053   */\n  dup2\n    /* \"#utility.yul\":2045:2046   */\n  0x00\n    /* \"#utility.yul\":2038:2054   */\n  mstore\n    /* \"#utility.yul\":2092:2096   */\n  0x20\n    /* \"#utility.yul\":2089:2090   */\n  0x00\n    /* \"#utility.yul\":2079:2097   */\n  keccak256\n    /* \"#utility.yul\":2162:2164   */\n  0x1f\n    /* \"#utility.yul\":2150:2160   */\n  dup6\n    /* \"#utility.yul\":2146:2165   */\n  add\n    /* \"#utility.yul\":2143:2144   */\n  0x05\n    /* \"#utility.yul\":2139:2166   */\n  shr\n    /* \"#utility.yul\":2133:2137   */\n  dup2\n    /* \"#utility.yul\":2129:2167   */\n  add\n    /* \"#utility.yul\":2198:2202   */\n  0x20\n    /* \"#utility.yul\":2186:2196   */\n  dup7\n    /* \"#utility.yul\":2183:2203   */\n  lt\n    /* \"#utility.yul\":2180:2227   */\n  iszero\n  tag_47\n  jumpi\n  pop\n    /* \"#utility.yul\":2221:2225   */\n  dup1\n    /* \"#utility.yul\":2180:2227   */\ntag_47:\n    /* \"#utility.yul\":2276:2278   */\n  0x1f\n    /* \"#utility.yul\":2271:2274   */\n  dup6\n    /* \"#utility.yul\":2267:2279   */\n  add\n    /* \"#utility.yul\":2264:2265   */\n  0x05\n    /* \"#utility.yul\":2260:2280   */\n  shr\n    /* \"#utility.yul\":2254:2258   */\n  dup3\n    /* \"#utility.yul\":2250:2281   */\n  add\n    /* \"#utility.yul\":2240:2281   */\n  swap2\n  pop\n    /* \"#utility.yul\":2331:2413   */\ntag_48:\n    /* \"#utility.yul\":2349:2351   */\n  dup2\n    /* \"#utility.yul\":2342:2347   */\n  dup2\n    /* \"#utility.yul\":2339:2352   */\n  lt\n    /* \"#utility.yul\":2331:2413   */\n  iszero\n  tag_50\n  jumpi\n    /* \"#utility.yul\":2394:2411   */\n  dup3\n  dup2\n  sstore\n    /* \"#utility.yul\":2375:2376   */\n  0x01\n    /* \"#utility.yul\":2364:2377   */\n  add\n    /* \"#utility.yul\":2331:2413   */\n  jump(tag_48)\ntag_50:\n    /* \"#utility.yul\":2335:2338   */\n  pop\n  pop\n  pop\n    /* \"#utility.yul\":1977:2423   */\ntag_46:\n    /* \"#utility.yul\":1886:2429   */\n  pop\n  pop\n  pop\n  jump\t// out\n    /* \"#utility.yul\":2605:3950   */\ntag_7:\n    /* \"#utility.yul\":2725:2735   */\n  dup2\n  mload\n  sub(shl(0x40, 0x01), 0x01)\n    /* \"#utility.yul\":2747:2777   */\n  dup2\n  gt\n    /* \"#utility.yul\":2744:2800   */\n  iszero\n  tag_54\n  jumpi\n    /* \"#utility.yul\":2780:2798   */\n  tag_54\n  tag_21\n  jump\t// in\ntag_54:\n    /* \"#utility.yul\":2809:2906   */\n  tag_55\n    /* \"#utility.yul\":2899:2905   */\n  dup2\n    /* \"#utility.yul\":2859:2897   */\n  tag_56\n    /* \"#utility.yul\":2891:2895   */\n  dup5\n    /* \"#utility.yul\":2885:2896   */\n  sload\n    /* \"#utility.yul\":2859:2897   */\n  tag_22\n  jump\t// in\ntag_56:\n    /* \"#utility.yul\":2853:2857   */\n  dup5\n    /* \"#utility.yul\":2809:2906   */\n  tag_24\n  jump\t// in\ntag_55:\n    /* \"#utility.yul\":2961:2965   */\n  0x20\n  dup1\n    /* \"#utility.yul\":3018:3020   */\n  0x1f\n    /* \"#utility.yul\":3007:3021   */\n  dup4\n  gt\n    /* \"#utility.yul\":3035:3036   */\n  0x01\n    /* \"#utility.yul\":3030:3693   */\n  dup2\n  eq\n  tag_58\n  jumpi\n    /* \"#utility.yul\":3737:3738   */\n  0x00\n    /* \"#utility.yul\":3754:3760   */\n  dup5\n    /* \"#utility.yul\":3751:3840   */\n  iszero\n  tag_59\n  jumpi\n  pop\n    /* \"#utility.yul\":3806:3825   */\n  dup6\n  dup4\n  add\n    /* \"#utility.yul\":3800:3826   */\n  mload\n    /* \"#utility.yul\":3751:3840   */\ntag_59:\n  not(0x00)\n    /* \"#utility.yul\":2562:2563   */\n  0x03\n    /* \"#utility.yul\":2558:2569   */\n  dup7\n  swap1\n  shl\n    /* \"#utility.yul\":2554:2578   */\n  shr\n    /* \"#utility.yul\":2550:2579   */\n  not\n    /* \"#utility.yul\":2540:2580   */\n  and\n    /* \"#utility.yul\":2586:2587   */\n  0x01\n    /* \"#utility.yul\":2582:2593   */\n  dup6\n  swap1\n  shl\n    /* \"#utility.yul\":2537:2594   */\n  or\n    /* \"#utility.yul\":3853:3934   */\n  dup6\n  sstore\n    /* \"#utility.yul\":3000:3944   */\n  jump(tag_50)\n    /* \"#utility.yul\":3030:3693   */\ntag_58:\n    /* \"#utility.yul\":1833:1834   */\n  0x00\n    /* \"#utility.yul\":1826:1840   */\n  dup6\n  dup2\n  mstore\n    /* \"#utility.yul\":1870:1874   */\n  0x20\n    /* \"#utility.yul\":1857:1875   */\n  dup2\n  keccak256\n  not(0x1f)\n    /* \"#utility.yul\":3066:3086   */\n  dup7\n  and\n  swap2\n    /* \"#utility.yul\":3184:3420   */\ntag_62:\n    /* \"#utility.yul\":3198:3205   */\n  dup3\n    /* \"#utility.yul\":3195:3196   */\n  dup2\n    /* \"#utility.yul\":3192:3206   */\n  lt\n    /* \"#utility.yul\":3184:3420   */\n  iszero\n  tag_64\n  jumpi\n    /* \"#utility.yul\":3287:3306   */\n  dup9\n  dup7\n  add\n    /* \"#utility.yul\":3281:3307   */\n  mload\n    /* \"#utility.yul\":3266:3308   */\n  dup3\n  sstore\n    /* \"#utility.yul\":3379:3406   */\n  swap5\n  dup5\n  add\n  swap5\n    /* \"#utility.yul\":3347:3348   */\n  0x01\n    /* \"#utility.yul\":3335:3349   */\n  swap1\n  swap2\n  add\n  swap1\n    /* \"#utility.yul\":3214:3233   */\n  dup5\n  add\n    /* \"#utility.yul\":3184:3420   */\n  jump(tag_62)\ntag_64:\n    /* \"#utility.yul\":3188:3191   */\n  pop\n    /* \"#utility.yul\":3448:3454   */\n  dup6\n    /* \"#utility.yul\":3439:3446   */\n  dup3\n    /* \"#utility.yul\":3436:3455   */\n  lt\n    /* \"#utility.yul\":3433:3634   */\n  iszero\n  tag_65\n  jumpi\n    /* \"#utility.yul\":3509:3528   */\n  dup8\n  dup6\n  add\n    /* \"#utility.yul\":3503:3529   */\n  mload\n  not(0x00)\n    /* \"#utility.yul\":3592:3593   */\n  0x03\n    /* \"#utility.yul\":3588:3602   */\n  dup9\n  swap1\n  shl\n    /* \"#utility.yul\":3604:3607   */\n  0xf8\n    /* \"#utility.yul\":3584:3608   */\n  and\n    /* \"#utility.yul\":3580:3617   */\n  shr\n    /* \"#utility.yul\":3576:3618   */\n  not\n    /* \"#utility.yul\":3561:3619   */\n  and\n    /* \"#utility.yul\":3546:3620   */\n  dup2\n  sstore\n    /* \"#utility.yul\":3433:3634   */\ntag_65:\n  pop\n  pop\n  pop\n  pop\n  pop\n    /* \"#utility.yul\":3680:3681   */\n  0x01\n    /* \"#utility.yul\":3664:3678   */\n  swap1\n  dup2\n  shl\n    /* \"#utility.yul\":3660:3682   */\n  add\n    /* \"#utility.yul\":3647:3683   */\n  swap1\n  sstore\n  pop\n    /* \"#utility.yul\":2605:3950   */\n  jump\t// out\ntag_26:\n    /* \"contracts/CMBS20Demo.sol\":289:6863  contract CMBS20Demo is AccessControl, Pausable {... */\n  mload(0x80)\n  codecopy(0x00, dataOffset(sub_0), dataSize(sub_0))\n  0x00\n  assignImmutable(\"0xa0304342046b949c357e13879a24ce2facaca0ee062a454217f01898ed92aabf\")\n  return(0x00, dataSize(sub_0))\nstop\n\nsub_0: assembly {\n        /* \"contracts/CMBS20Demo.sol\":289:6863  contract CMBS20Demo is AccessControl, Pausable {... */\n      mstore(0x40, 0x80)\n      callvalue\n      dup1\n      iszero\n      tag_1\n      jumpi\n      0x00\n      dup1\n      revert\n    tag_1:\n      pop\n      jumpi(tag_2, lt(calldatasize, 0x04))\n      shr(0xe0, calldataload(0x00))\n      dup1\n      0x5c975abb\n      gt\n      tag_28\n      jumpi\n      dup1\n      0x9612df5c\n      gt\n      tag_29\n      jumpi\n      dup1\n      0xbef6f540\n      gt\n      tag_30\n      jumpi\n      dup1\n      0xbef6f540\n      eq\n      tag_24\n      jumpi\n      dup1\n      0xd547741f\n      eq\n      tag_25\n      jumpi\n      dup1\n      0xeac989f8\n      eq\n      tag_26\n      jumpi\n      dup1\n      0xf0f9243b\n      eq\n      tag_27\n      jumpi\n      0x00\n      dup1\n      revert\n    tag_30:\n      dup1\n      0x9612df5c\n      eq\n      tag_21\n      jumpi\n      dup1\n      0xa217fddf\n      eq\n      tag_22\n      jumpi\n      dup1\n      0xbd85b039\n      eq\n      tag_23\n      jumpi\n      0x00\n      dup1\n      revert\n    tag_29:\n      dup1\n      0x8456cb59\n      gt\n      tag_31\n      jumpi\n      dup1\n      0x8456cb59\n      eq\n      tag_18\n      jumpi\n      dup1\n      0x897a3651\n      eq\n      tag_19\n      jumpi\n      dup1\n      0x91d14854\n      eq\n      tag_20\n      jumpi\n      0x00\n      dup1\n      revert\n    tag_31:\n      dup1\n      0x5c975abb\n      eq\n      tag_15\n      jumpi\n      dup1\n      0x6ea056a9\n      eq\n      tag_16\n      jumpi\n      dup1\n      0x7b3baab4\n      eq\n      tag_17\n      jumpi\n      0x00\n      dup1\n      revert\n    tag_28:\n      dup1\n      0x248a9ca3\n      gt\n      tag_32\n      jumpi\n      dup1\n      0x36568abe\n      gt\n      tag_33\n      jumpi\n      dup1\n      0x36568abe\n      eq\n      tag_12\n      jumpi\n      dup1\n      0x3f4ba83a\n      eq\n      tag_13\n      jumpi\n      dup1\n      0x441a3e70\n      eq\n      tag_14\n      jumpi\n      0x00\n      dup1\n      revert\n    tag_33:\n      dup1\n      0x248a9ca3\n      eq\n      tag_9\n      jumpi\n      dup1\n      0x26c25962\n      eq\n      tag_10\n      jumpi\n      dup1\n      0x2f2ff15d\n      eq\n      tag_11\n      jumpi\n      0x00\n      dup1\n      revert\n    tag_32:\n      dup1\n      0x0bfed82a\n      gt\n      tag_34\n      jumpi\n      dup1\n      0x0bfed82a\n      eq\n      tag_6\n      jumpi\n      dup1\n      0x18160ddd\n      eq\n      tag_7\n      jumpi\n      dup1\n      0x22be3de1\n      eq\n      tag_8\n      jumpi\n      0x00\n      dup1\n      revert\n    tag_34:\n      dup1\n      0xfdd58e\n      eq\n      tag_3\n      jumpi\n      dup1\n      0x01ffc9a7\n      eq\n      tag_4\n      jumpi\n      dup1\n      0x09a01608\n      eq\n      tag_5\n      jumpi\n    tag_2:\n      0x00\n      dup1\n      revert\n        /* \"contracts/CMBS20Demo.sol\":6720:6861  function balanceOf(address account, uint256 id) external view returns (uint256) {... */\n    tag_3:\n      tag_35\n      tag_36\n      calldatasize\n      0x04\n      tag_37\n      jump\t// in\n    tag_36:\n      tag_38\n      jump\t// in\n    tag_35:\n      mload(0x40)\n        /* \"#utility.yul\":639:664   */\n      swap1\n      dup2\n      mstore\n        /* \"#utility.yul\":627:629   */\n      0x20\n        /* \"#utility.yul\":612:630   */\n      add\n        /* \"contracts/CMBS20Demo.sol\":6720:6861  function balanceOf(address account, uint256 id) external view returns (uint256) {... */\n    tag_39:\n      mload(0x40)\n      dup1\n      swap2\n      sub\n      swap1\n      return\n        /* \"@openzeppelin/contracts/access/AccessControl.sol\":2565:2767  function supportsInterface(bytes4 interfaceId) public view virtual override returns (bool) {... */\n    tag_4:\n      tag_41\n      tag_42\n      calldatasize\n      0x04\n      tag_43\n      jump\t// in\n    tag_42:\n      tag_44\n      jump\t// in\n    tag_41:\n      mload(0x40)\n        /* \"#utility.yul\":1177:1191   */\n      swap1\n      iszero\n        /* \"#utility.yul\":1170:1192   */\n      iszero\n        /* \"#utility.yul\":1152:1193   */\n      dup2\n      mstore\n        /* \"#utility.yul\":1140:1142   */\n      0x20\n        /* \"#utility.yul\":1125:1143   */\n      add\n        /* \"@openzeppelin/contracts/access/AccessControl.sol\":2565:2767  function supportsInterface(bytes4 interfaceId) public view virtual override returns (bool) {... */\n      tag_39\n        /* \"#utility.yul\":1012:1199   */\n      jump\n        /* \"contracts/CMBS20Demo.sol\":342:408  bytes32 public constant SERVICER_ROLE = keccak256(\"SERVICER_ROLE\") */\n    tag_5:\n      tag_35\n        /* \"contracts/CMBS20Demo.sol\":382:408  keccak256(\"SERVICER_ROLE\") */\n      0x250b76734a070a69c7b3930477dd35007ad9c9d0952e97903fdafb2db6980537\n        /* \"contracts/CMBS20Demo.sol\":342:408  bytes32 public constant SERVICER_ROLE = keccak256(\"SERVICER_ROLE\") */\n      dup2\n      jump\n        /* \"contracts/CMBS20Demo.sol\":3286:3351  function accrueAllInterest() public {... */\n    tag_6:\n      tag_51\n      tag_52\n      jump\t// in\n    tag_51:\n      stop\n        /* \"contracts/CMBS20Demo.sol\":6543:6714  function totalSupply() public view returns (uint256 total) {... */\n    tag_7:\n      tag_35\n      tag_54\n      jump\t// in\n        /* \"contracts/CMBS20Demo.sol\":674:704  IERC20 public immutable stable */\n    tag_8:\n      tag_56\n      immutable(\"0xa0304342046b949c357e13879a24ce2facaca0ee062a454217f01898ed92aabf\")\n      dup2\n      jump\n    tag_56:\n      mload(0x40)\n      sub(shl(0xa0, 0x01), 0x01)\n        /* \"#utility.yul\":1565:1620   */\n      swap1\n      swap2\n      and\n        /* \"#utility.yul\":1547:1621   */\n      dup2\n      mstore\n        /* \"#utility.yul\":1535:1537   */\n      0x20\n        /* \"#utility.yul\":1520:1538   */\n      add\n        /* \"contracts/CMBS20Demo.sol\":674:704  IERC20 public immutable stable */\n      tag_39\n        /* \"#utility.yul\":1386:1627   */\n      jump\n        /* \"@openzeppelin/contracts/access/AccessControl.sol\":3810:3930  function getRoleAdmin(bytes32 role) public view virtual returns (bytes32) {... */\n    tag_9:\n      tag_35\n      tag_61\n      calldatasize\n      0x04\n      tag_62\n      jump\t// in\n    tag_61:\n        /* \"@openzeppelin/contracts/access/AccessControl.sol\":3875:3882  bytes32 */\n      0x00\n        /* \"@openzeppelin/contracts/access/AccessControl.sol\":3901:3913  _roles[role] */\n      swap1\n      dup2\n      mstore\n      0x20\n      dup2\n      swap1\n      mstore\n      0x40\n      swap1\n      keccak256\n        /* \"@openzeppelin/contracts/access/AccessControl.sol\":3901:3923  _roles[role].adminRole */\n      0x01\n      add\n      sload\n      swap1\n        /* \"@openzeppelin/contracts/access/AccessControl.sol\":3810:3930  function getRoleAdmin(bytes32 role) public view virtual returns (bytes32) {... */\n      jump\n        /* \"contracts/CMBS20Demo.sol\":776:819  mapping(uint256 => Tranche) public tranches */\n    tag_10:\n      tag_65\n      tag_66\n      calldatasize\n      0x04\n      tag_62\n      jump\t// in\n    tag_66:\n      0x05\n      0x20\n      dup2\n      swap1\n      mstore\n      0x00\n      swap2\n      dup3\n      mstore\n      0x40\n      swap1\n      swap2\n      keccak256\n      dup1\n      sload\n      0x01\n      dup3\n      add\n      sload\n      0x02\n      dup4\n      add\n      sload\n      0x03\n      dup5\n      add\n      sload\n      0x04\n      dup6\n      add\n      sload\n      swap5\n      swap1\n      swap6\n      add\n      sload\n      sub(shl(0xa0, 0x01), 0x01)\n      swap1\n      swap4\n      and\n      swap5\n      swap2\n      swap4\n      swap1\n      swap3\n      0xff\n      swap1\n      swap3\n      and\n      swap2\n      dup7\n      jump\n    tag_65:\n      0x40\n      dup1\n      mload\n      sub(shl(0xa0, 0x01), 0x01)\n        /* \"#utility.yul\":2324:2379   */\n      swap1\n      swap8\n      and\n        /* \"#utility.yul\":2306:2380   */\n      dup8\n      mstore\n        /* \"#utility.yul\":2411:2413   */\n      0x20\n        /* \"#utility.yul\":2396:2414   */\n      dup8\n      add\n        /* \"#utility.yul\":2389:2423   */\n      swap6\n      swap1\n      swap6\n      mstore\n        /* \"#utility.yul\":2439:2457   */\n      swap4\n      dup6\n      add\n        /* \"#utility.yul\":2432:2466   */\n      swap3\n      swap1\n      swap3\n      mstore\n        /* \"#utility.yul\":2514:2518   */\n      0xff\n        /* \"#utility.yul\":2502:2519   */\n      and\n        /* \"#utility.yul\":2497:2499   */\n      0x60\n        /* \"#utility.yul\":2482:2500   */\n      dup5\n      add\n        /* \"#utility.yul\":2475:2520   */\n      mstore\n        /* \"#utility.yul\":2551:2554   */\n      0x80\n        /* \"#utility.yul\":2536:2555   */\n      dup4\n      add\n        /* \"#utility.yul\":2529:2564   */\n      mstore\n        /* \"#utility.yul\":2595:2598   */\n      0xa0\n        /* \"#utility.yul\":2580:2599   */\n      dup3\n      add\n        /* \"#utility.yul\":2573:2608   */\n      mstore\n        /* \"#utility.yul\":2293:2296   */\n      0xc0\n        /* \"#utility.yul\":2278:2297   */\n      add\n        /* \"contracts/CMBS20Demo.sol\":776:819  mapping(uint256 => Tranche) public tranches */\n      tag_39\n        /* \"#utility.yul\":2002:2614   */\n      jump\n        /* \"@openzeppelin/contracts/access/AccessControl.sol\":4226:4362  function grantRole(bytes32 role, address account) public virtual onlyRole(getRoleAdmin(role)) {... */\n    tag_11:\n      tag_51\n      tag_72\n      calldatasize\n      0x04\n      tag_73\n      jump\t// in\n    tag_72:\n      tag_74\n      jump\t// in\n        /* \"@openzeppelin/contracts/access/AccessControl.sol\":5328:5573  function renounceRole(bytes32 role, address callerConfirmation) public virtual {... */\n    tag_12:\n      tag_51\n      tag_76\n      calldatasize\n      0x04\n      tag_73\n      jump\t// in\n    tag_76:\n      tag_77\n      jump\t// in\n        /* \"contracts/CMBS20Demo.sol\":6045:6117  function unpause() external onlyRole(DEFAULT_ADMIN_ROLE) { _unpause(); } */\n    tag_13:\n      tag_51\n      tag_79\n      jump\t// in\n        /* \"contracts/CMBS20Demo.sol\":5266:5819  function withdraw(uint256 id, uint256 amount) external whenNotPaused {... */\n    tag_14:\n      tag_51\n      tag_81\n      calldatasize\n      0x04\n      tag_82\n      jump\t// in\n    tag_81:\n      tag_83\n      jump\t// in\n        /* \"@openzeppelin/contracts/utils/Pausable.sol\":1726:1810  function paused() public view virtual returns (bool) {... */\n    tag_15:\n        /* \"@openzeppelin/contracts/utils/Pausable.sol\":1796:1803  _paused */\n      and(0xff, sload(0x01))\n        /* \"@openzeppelin/contracts/utils/Pausable.sol\":1726:1810  function paused() public view virtual returns (bool) {... */\n      jump(tag_41)\n        /* \"contracts/CMBS20Demo.sol\":6123:6273  function sweep(address to, uint256 amount) external onlyRole(DEFAULT_ADMIN_ROLE) {... */\n    tag_16:\n      tag_51\n      tag_88\n      calldatasize\n      0x04\n      tag_37\n      jump\t// in\n    tag_88:\n      tag_89\n      jump\t// in\n        /* \"contracts/CMBS20Demo.sol\":744:770  uint256 public lastAccrual */\n    tag_17:\n      tag_35\n      sload(0x04)\n      dup2\n      jump\n        /* \"contracts/CMBS20Demo.sol\":5972:6040  function pause() external onlyRole(DEFAULT_ADMIN_ROLE) { _pause(); } */\n    tag_18:\n      tag_51\n      tag_94\n      jump\t// in\n        /* \"contracts/CMBS20Demo.sol\":2362:2948  function distributeToInvestors(... */\n    tag_19:\n      tag_51\n      tag_96\n      calldatasize\n      0x04\n      tag_97\n      jump\t// in\n    tag_96:\n      tag_98\n      jump\t// in\n        /* \"@openzeppelin/contracts/access/AccessControl.sol\":2854:2990  function hasRole(bytes32 role, address account) public view virtual returns (bool) {... */\n    tag_20:\n      tag_41\n      tag_100\n      calldatasize\n      0x04\n      tag_73\n      jump\t// in\n    tag_100:\n        /* \"@openzeppelin/contracts/access/AccessControl.sol\":2931:2935  bool */\n      0x00\n        /* \"@openzeppelin/contracts/access/AccessControl.sol\":2954:2966  _roles[role] */\n      swap2\n      dup3\n      mstore\n      0x20\n      dup3\n      dup2\n      mstore\n      0x40\n      dup1\n      dup5\n      keccak256\n      sub(shl(0xa0, 0x01), 0x01)\n        /* \"@openzeppelin/contracts/access/AccessControl.sol\":2954:2983  _roles[role].hasRole[account] */\n      swap4\n      swap1\n      swap4\n      and\n      dup5\n      mstore\n      swap2\n      swap1\n      mstore\n      swap1\n      keccak256\n      sload\n      0xff\n      and\n      swap1\n        /* \"@openzeppelin/contracts/access/AccessControl.sol\":2854:2990  function hasRole(bytes32 role, address account) public view virtual returns (bool) {... */\n      jump\n        /* \"contracts/CMBS20Demo.sol\":1600:2356  function createTranche(... */\n    tag_21:\n      tag_51\n      tag_104\n      calldatasize\n      0x04\n      tag_105\n      jump\t// in\n    tag_104:\n      tag_106\n      jump\t// in\n        /* \"@openzeppelin/contracts/access/AccessControl.sol\":2187:2236  bytes32 public constant DEFAULT_ADMIN_ROLE = 0x00 */\n    tag_22:\n      tag_35\n        /* \"@openzeppelin/contracts/access/AccessControl.sol\":2232:2236  0x00 */\n      0x00\n        /* \"@openzeppelin/contracts/access/AccessControl.sol\":2187:2236  bytes32 public constant DEFAULT_ADMIN_ROLE = 0x00 */\n      dup2\n      jump\n        /* \"contracts/CMBS20Demo.sol\":6418:6537  function totalSupply(uint256 id) public view returns (uint256) {... */\n    tag_23:\n      tag_35\n      tag_111\n      calldatasize\n      0x04\n      tag_62\n      jump\t// in\n    tag_111:\n      tag_112\n      jump\t// in\n        /* \"contracts/CMBS20Demo.sol\":3975:5115  function depositAndDistribute(uint256 amount)... */\n    tag_24:\n      tag_51\n      tag_115\n      calldatasize\n      0x04\n      tag_62\n      jump\t// in\n    tag_115:\n      tag_116\n      jump\t// in\n        /* \"@openzeppelin/contracts/access/AccessControl.sol\":4642:4780  function revokeRole(bytes32 role, address account) public virtual onlyRole(getRoleAdmin(role)) {... */\n    tag_25:\n      tag_51\n      tag_118\n      calldatasize\n      0x04\n      tag_73\n      jump\t// in\n    tag_118:\n      tag_119\n      jump\t// in\n        /* \"contracts/CMBS20Demo.sol\":651:668  string public uri */\n    tag_26:\n      tag_120\n      tag_121\n      jump\t// in\n    tag_120:\n      mload(0x40)\n      tag_39\n      swap2\n      swap1\n      tag_123\n      jump\t// in\n        /* \"contracts/CMBS20Demo.sol\":710:738  uint256 public nextTrancheId */\n    tag_27:\n      tag_35\n      sload(0x03)\n      dup2\n      jump\n        /* \"contracts/CMBS20Demo.sol\":6720:6861  function balanceOf(address account, uint256 id) external view returns (uint256) {... */\n    tag_38:\n        /* \"contracts/CMBS20Demo.sol\":6791:6798  uint256 */\n      0x00\n        /* \"contracts/CMBS20Demo.sol\":6817:6829  tranches[id] */\n      dup2\n      dup2\n      mstore\n        /* \"contracts/CMBS20Demo.sol\":6817:6825  tranches */\n      0x05\n        /* \"contracts/CMBS20Demo.sol\":6817:6829  tranches[id] */\n      0x20\n      mstore\n      0x40\n      dup1\n      dup3\n      keccak256\n        /* \"contracts/CMBS20Demo.sol\":6817:6835  tranches[id].token */\n      sload\n        /* \"contracts/CMBS20Demo.sol\":6817:6854  tranches[id].token.balanceOf(account) */\n      swap1\n      mload\n      shl(0xe0, 0x70a08231)\n      dup2\n      mstore\n      sub(shl(0xa0, 0x01), 0x01)\n        /* \"#utility.yul\":1565:1620   */\n      dup6\n      dup2\n      and\n        /* \"contracts/CMBS20Demo.sol\":6817:6854  tranches[id].token.balanceOf(account) */\n      0x04\n      dup4\n      add\n        /* \"#utility.yul\":1547:1621   */\n      mstore\n        /* \"contracts/CMBS20Demo.sol\":6817:6835  tranches[id].token */\n      swap1\n      swap2\n      and\n      swap1\n        /* \"contracts/CMBS20Demo.sol\":6817:6845  tranches[id].token.balanceOf */\n      0x70a08231\n      swap1\n        /* \"#utility.yul\":1520:1538   */\n      0x24\n      add\n        /* \"contracts/CMBS20Demo.sol\":6817:6854  tranches[id].token.balanceOf(account) */\n      0x20\n      mload(0x40)\n      dup1\n      dup4\n      sub\n      dup2\n      dup7\n      gas\n      staticcall\n      iszero\n      dup1\n      iszero\n      tag_131\n      jumpi\n      returndatasize\n      0x00\n      dup1\n      returndatacopy\n      revert(0x00, returndatasize)\n    tag_131:\n      pop\n      pop\n      pop\n      pop\n      mload(0x40)\n      returndatasize\n      not(0x1f)\n      0x1f\n      dup3\n      add\n      and\n      dup3\n      add\n      dup1\n      0x40\n      mstore\n      pop\n      dup2\n      add\n      swap1\n      tag_132\n      swap2\n      swap1\n      tag_133\n      jump\t// in\n    tag_132:\n        /* \"contracts/CMBS20Demo.sol\":6810:6854  return tranches[id].token.balanceOf(account) */\n      swap1\n      pop\n        /* \"contracts/CMBS20Demo.sol\":6720:6861  function balanceOf(address account, uint256 id) external view returns (uint256) {... */\n    tag_127:\n      swap3\n      swap2\n      pop\n      pop\n      jump\t// out\n        /* \"@openzeppelin/contracts/access/AccessControl.sol\":2565:2767  function supportsInterface(bytes4 interfaceId) public view virtual override returns (bool) {... */\n    tag_44:\n        /* \"@openzeppelin/contracts/access/AccessControl.sol\":2650:2654  bool */\n      0x00\n      not(sub(shl(0xe0, 0x01), 0x01))\n        /* \"@openzeppelin/contracts/access/AccessControl.sol\":2673:2720  interfaceId == type(IAccessControl).interfaceId */\n      dup3\n      and\n        /* \"@openzeppelin/contracts/access/AccessControl.sol\":2688:2720  type(IAccessControl).interfaceId */\n      0x7965db0b00000000000000000000000000000000000000000000000000000000\n        /* \"@openzeppelin/contracts/access/AccessControl.sol\":2673:2720  interfaceId == type(IAccessControl).interfaceId */\n      eq\n      dup1\n        /* \"@openzeppelin/contracts/access/AccessControl.sol\":2673:2760  interfaceId == type(IAccessControl).interfaceId || super.supportsInterface(interfaceId) */\n      tag_127\n      jumpi\n      pop\n        /* \"@openzeppelin/contracts/utils/introspection/ERC165.sol\":877:902  type(IERC165).interfaceId */\n      0x01ffc9a700000000000000000000000000000000000000000000000000000000\n      not(sub(shl(0xe0, 0x01), 0x01))\n        /* \"@openzeppelin/contracts/utils/introspection/ERC165.sol\":862:902  interfaceId == type(IERC165).interfaceId */\n      dup4\n      and\n      eq\n        /* \"@openzeppelin/contracts/access/AccessControl.sol\":2724:2760  super.supportsInterface(interfaceId) */\n      tag_127\n        /* \"@openzeppelin/contracts/utils/introspection/ERC165.sol\":763:909  function supportsInterface(bytes4 interfaceId) public view virtual returns (bool) {... */\n      jump\n        /* \"contracts/CMBS20Demo.sol\":3286:3351  function accrueAllInterest() public {... */\n    tag_52:\n        /* \"contracts/CMBS20Demo.sol\":3328:3348  _accrueAllInterest() */\n      tag_139\n        /* \"contracts/CMBS20Demo.sol\":3328:3346  _accrueAllInterest */\n      tag_140\n        /* \"contracts/CMBS20Demo.sol\":3328:3348  _accrueAllInterest() */\n      jump\t// in\n    tag_139:\n        /* \"contracts/CMBS20Demo.sol\":3286:3351  function accrueAllInterest() public {... */\n      jump\t// out\n        /* \"contracts/CMBS20Demo.sol\":6543:6714  function totalSupply() public view returns (uint256 total) {... */\n    tag_54:\n        /* \"contracts/CMBS20Demo.sol\":6587:6600  uint256 total */\n      0x00\n      dup1\n        /* \"contracts/CMBS20Demo.sol\":6612:6708  for (uint256 id = 0; id < nextTrancheId; ++id) {... */\n    tag_142:\n        /* \"contracts/CMBS20Demo.sol\":6638:6651  nextTrancheId */\n      sload(0x03)\n        /* \"contracts/CMBS20Demo.sol\":6633:6635  id */\n      dup2\n        /* \"contracts/CMBS20Demo.sol\":6633:6651  id < nextTrancheId */\n      lt\n        /* \"contracts/CMBS20Demo.sol\":6612:6708  for (uint256 id = 0; id < nextTrancheId; ++id) {... */\n      iszero\n      tag_143\n      jumpi\n        /* \"contracts/CMBS20Demo.sol\":6682:6697  totalSupply(id) */\n      tag_145\n        /* \"contracts/CMBS20Demo.sol\":6694:6696  id */\n      dup2\n        /* \"contracts/CMBS20Demo.sol\":6682:6693  totalSupply */\n      tag_112\n        /* \"contracts/CMBS20Demo.sol\":6682:6697  totalSupply(id) */\n      jump\t// in\n    tag_145:\n        /* \"contracts/CMBS20Demo.sol\":6673:6697  total += totalSupply(id) */\n      tag_146\n      swap1\n      dup4\n      tag_147\n      jump\t// in\n    tag_146:\n      swap2\n      pop\n        /* \"contracts/CMBS20Demo.sol\":6653:6657  ++id */\n      0x01\n      add\n        /* \"contracts/CMBS20Demo.sol\":6612:6708  for (uint256 id = 0; id < nextTrancheId; ++id) {... */\n      jump(tag_142)\n    tag_143:\n      pop\n        /* \"contracts/CMBS20Demo.sol\":6543:6714  function totalSupply() public view returns (uint256 total) {... */\n      swap1\n      jump\t// out\n        /* \"@openzeppelin/contracts/access/AccessControl.sol\":4226:4362  function grantRole(bytes32 role, address account) public virtual onlyRole(getRoleAdmin(role)) {... */\n    tag_74:\n        /* \"@openzeppelin/contracts/access/AccessControl.sol\":3875:3882  bytes32 */\n      0x00\n        /* \"@openzeppelin/contracts/access/AccessControl.sol\":3901:3913  _roles[role] */\n      dup3\n      dup2\n      mstore\n      0x20\n      dup2\n      swap1\n      mstore\n      0x40\n      swap1\n      keccak256\n        /* \"@openzeppelin/contracts/access/AccessControl.sol\":3901:3923  _roles[role].adminRole */\n      0x01\n      add\n      sload\n        /* \"@openzeppelin/contracts/access/AccessControl.sol\":2464:2480  _checkRole(role) */\n      tag_151\n        /* \"@openzeppelin/contracts/access/AccessControl.sol\":2475:2479  role */\n      dup2\n        /* \"@openzeppelin/contracts/access/AccessControl.sol\":2464:2474  _checkRole */\n      tag_152\n        /* \"@openzeppelin/contracts/access/AccessControl.sol\":2464:2480  _checkRole(role) */\n      jump\t// in\n    tag_151:\n        /* \"@openzeppelin/contracts/access/AccessControl.sol\":4330:4355  _grantRole(role, account) */\n      tag_154\n        /* \"@openzeppelin/contracts/access/AccessControl.sol\":4341:4345  role */\n      dup4\n        /* \"@openzeppelin/contracts/access/AccessControl.sol\":4347:4354  account */\n      dup4\n        /* \"@openzeppelin/contracts/access/AccessControl.sol\":4330:4340  _grantRole */\n      tag_155\n        /* \"@openzeppelin/contracts/access/AccessControl.sol\":4330:4355  _grantRole(role, account) */\n      jump\t// in\n    tag_154:\n      pop\n        /* \"@openzeppelin/contracts/access/AccessControl.sol\":4226:4362  function grantRole(bytes32 role, address account) public virtual onlyRole(getRoleAdmin(role)) {... */\n      pop\n      pop\n      pop\n      jump\t// out\n        /* \"@openzeppelin/contracts/access/AccessControl.sol\":5328:5573  function renounceRole(bytes32 role, address callerConfirmation) public virtual {... */\n    tag_77:\n      sub(shl(0xa0, 0x01), 0x01)\n        /* \"@openzeppelin/contracts/access/AccessControl.sol\":5421:5455  callerConfirmation != _msgSender() */\n      dup2\n      and\n        /* \"@openzeppelin/contracts/utils/Context.sol\":735:745  msg.sender */\n      caller\n        /* \"@openzeppelin/contracts/access/AccessControl.sol\":5421:5455  callerConfirmation != _msgSender() */\n      eq\n        /* \"@openzeppelin/contracts/access/AccessControl.sol\":5417:5519  if (callerConfirmation != _msgSender()) {... */\n      tag_159\n      jumpi\n        /* \"@openzeppelin/contracts/access/AccessControl.sol\":5478:5508  AccessControlBadConfirmation() */\n      mload(0x40)\n      0x6697b23200000000000000000000000000000000000000000000000000000000\n      dup2\n      mstore\n      0x04\n      add\n      mload(0x40)\n      dup1\n      swap2\n      sub\n      swap1\n      revert\n        /* \"@openzeppelin/contracts/access/AccessControl.sol\":5417:5519  if (callerConfirmation != _msgSender()) {... */\n    tag_159:\n        /* \"@openzeppelin/contracts/access/AccessControl.sol\":5529:5566  _revokeRole(role, callerConfirmation) */\n      tag_160\n        /* \"@openzeppelin/contracts/access/AccessControl.sol\":5541:5545  role */\n      dup3\n        /* \"@openzeppelin/contracts/access/AccessControl.sol\":5547:5565  callerConfirmation */\n      dup3\n        /* \"@openzeppelin/contracts/access/AccessControl.sol\":5529:5540  _revokeRole */\n      tag_161\n        /* \"@openzeppelin/contracts/access/AccessControl.sol\":5529:5566  _revokeRole(role, callerConfirmation) */\n      jump\t// in\n    tag_160:\n      pop\n        /* \"@openzeppelin/contracts/access/AccessControl.sol\":5328:5573  function renounceRole(bytes32 role, address callerConfirmation) public virtual {... */\n      pop\n      pop\n      jump\t// out\n        /* \"contracts/CMBS20Demo.sol\":6045:6117  function unpause() external onlyRole(DEFAULT_ADMIN_ROLE) { _unpause(); } */\n    tag_79:\n        /* \"@openzeppelin/contracts/access/AccessControl.sol\":2232:2236  0x00 */\n      0x00\n        /* \"@openzeppelin/contracts/access/AccessControl.sol\":2464:2480  _checkRole(role) */\n      tag_163\n        /* \"@openzeppelin/contracts/access/AccessControl.sol\":2232:2236  0x00 */\n      dup2\n        /* \"@openzeppelin/contracts/access/AccessControl.sol\":2464:2474  _checkRole */\n      tag_152\n        /* \"@openzeppelin/contracts/access/AccessControl.sol\":2464:2480  _checkRole(role) */\n      jump\t// in\n    tag_163:\n        /* \"contracts/CMBS20Demo.sol\":6104:6114  _unpause() */\n      tag_165\n        /* \"contracts/CMBS20Demo.sol\":6104:6112  _unpause */\n      tag_166\n        /* \"contracts/CMBS20Demo.sol\":6104:6114  _unpause() */\n      jump\t// in\n    tag_165:\n        /* \"contracts/CMBS20Demo.sol\":6045:6117  function unpause() external onlyRole(DEFAULT_ADMIN_ROLE) { _unpause(); } */\n      pop\n      jump\t// out\n        /* \"contracts/CMBS20Demo.sol\":5266:5819  function withdraw(uint256 id, uint256 amount) external whenNotPaused {... */\n    tag_83:\n        /* \"@openzeppelin/contracts/utils/Pausable.sol\":1350:1369  _requireNotPaused() */\n      tag_168\n        /* \"@openzeppelin/contracts/utils/Pausable.sol\":1350:1367  _requireNotPaused */\n      tag_169\n        /* \"@openzeppelin/contracts/utils/Pausable.sol\":1350:1369  _requireNotPaused() */\n      jump\t// in\n    tag_168:\n        /* \"contracts/CMBS20Demo.sol\":5345:5362  Tranche storage t */\n      0x00\n        /* \"contracts/CMBS20Demo.sol\":5365:5377  tranches[id] */\n      dup3\n      dup2\n      mstore\n        /* \"contracts/CMBS20Demo.sol\":5365:5373  tranches */\n      0x05\n        /* \"contracts/CMBS20Demo.sol\":5365:5377  tranches[id] */\n      0x20\n      mstore\n      0x40\n      swap1\n      dup2\n      swap1\n      keccak256\n        /* \"contracts/CMBS20Demo.sol\":5408:5415  t.token */\n      dup1\n      sload\n        /* \"contracts/CMBS20Demo.sol\":5433:5460  token.balanceOf(msg.sender) */\n      swap2\n      mload\n      shl(0xe0, 0x70a08231)\n      dup2\n      mstore\n        /* \"contracts/CMBS20Demo.sol\":5449:5459  msg.sender */\n      caller\n        /* \"contracts/CMBS20Demo.sol\":5433:5460  token.balanceOf(msg.sender) */\n      0x04\n      dup3\n      add\n        /* \"#utility.yul\":1547:1621   */\n      mstore\n        /* \"contracts/CMBS20Demo.sol\":5365:5377  tranches[id] */\n      swap1\n      swap2\n      sub(shl(0xa0, 0x01), 0x01)\n        /* \"contracts/CMBS20Demo.sol\":5408:5415  t.token */\n      and\n      swap1\n        /* \"contracts/CMBS20Demo.sol\":5464:5470  amount */\n      dup4\n      swap1\n        /* \"contracts/CMBS20Demo.sol\":5408:5415  t.token */\n      dup3\n      swap1\n        /* \"contracts/CMBS20Demo.sol\":5433:5448  token.balanceOf */\n      0x70a08231\n      swap1\n        /* \"#utility.yul\":1520:1538   */\n      0x24\n      add\n        /* \"contracts/CMBS20Demo.sol\":5433:5460  token.balanceOf(msg.sender) */\n      0x20\n      mload(0x40)\n      dup1\n      dup4\n      sub\n      dup2\n      dup7\n      gas\n      staticcall\n      iszero\n      dup1\n      iszero\n      tag_173\n      jumpi\n      returndatasize\n      0x00\n      dup1\n      returndatacopy\n      revert(0x00, returndatasize)\n    tag_173:\n      pop\n      pop\n      pop\n      pop\n      mload(0x40)\n      returndatasize\n      not(0x1f)\n      0x1f\n      dup3\n      add\n      and\n      dup3\n      add\n      dup1\n      0x40\n      mstore\n      pop\n      dup2\n      add\n      swap1\n      tag_174\n      swap2\n      swap1\n      tag_133\n      jump\t// in\n    tag_174:\n        /* \"contracts/CMBS20Demo.sol\":5433:5470  token.balanceOf(msg.sender) >= amount */\n      lt\n      iszero\n        /* \"contracts/CMBS20Demo.sol\":5425:5491  require(token.balanceOf(msg.sender) >= amount, \"INSUFFICIENT_BAL\") */\n      tag_175\n      jumpi\n      mload(0x40)\n      shl(0xe5, 0x461bcd)\n      dup2\n      mstore\n        /* \"#utility.yul\":6548:6550   */\n      0x20\n        /* \"contracts/CMBS20Demo.sol\":5425:5491  require(token.balanceOf(msg.sender) >= amount, \"INSUFFICIENT_BAL\") */\n      0x04\n      dup3\n      add\n        /* \"#utility.yul\":6530:6551   */\n      mstore\n        /* \"#utility.yul\":6587:6589   */\n      0x10\n        /* \"#utility.yul\":6567:6585   */\n      0x24\n      dup3\n      add\n        /* \"#utility.yul\":6560:6590   */\n      mstore\n        /* \"#utility.yul\":6626:6644   */\n      0x494e53554646494349454e545f42414c00000000000000000000000000000000\n        /* \"#utility.yul\":6606:6624   */\n      0x44\n      dup3\n      add\n        /* \"#utility.yul\":6599:6645   */\n      mstore\n        /* \"#utility.yul\":6662:6680   */\n      0x64\n      add\n        /* \"contracts/CMBS20Demo.sol\":5425:5491  require(token.balanceOf(msg.sender) >= amount, \"INSUFFICIENT_BAL\") */\n    tag_176:\n      mload(0x40)\n      dup1\n      swap2\n      sub\n      swap1\n      revert\n    tag_175:\n        /* \"contracts/CMBS20Demo.sol\":5502:5517  uint256 proRata */\n      0x00\n        /* \"contracts/CMBS20Demo.sol\":5549:5554  token */\n      dup2\n      sub(shl(0xa0, 0x01), 0x01)\n        /* \"contracts/CMBS20Demo.sol\":5549:5566  token.totalSupply */\n      and\n      0x18160ddd\n        /* \"contracts/CMBS20Demo.sol\":5549:5568  token.totalSupply() */\n      mload(0x40)\n      dup2\n      0xffffffff\n      and\n      0xe0\n      shl\n      dup2\n      mstore\n      0x04\n      add\n      0x20\n      mload(0x40)\n      dup1\n      dup4\n      sub\n      dup2\n      dup7\n      gas\n      staticcall\n      iszero\n      dup1\n      iszero\n      tag_179\n      jumpi\n      returndatasize\n      0x00\n      dup1\n      returndatacopy\n      revert(0x00, returndatasize)\n    tag_179:\n      pop\n      pop\n      pop\n      pop\n      mload(0x40)\n      returndatasize\n      not(0x1f)\n      0x1f\n      dup3\n      add\n      and\n      dup3\n      add\n      dup1\n      0x40\n      mstore\n      pop\n      dup2\n      add\n      swap1\n      tag_180\n      swap2\n      swap1\n      tag_133\n      jump\t// in\n    tag_180:\n        /* \"contracts/CMBS20Demo.sol\":5539:5545  amount */\n      dup5\n        /* \"contracts/CMBS20Demo.sol\":5521:5522  t */\n      dup5\n        /* \"contracts/CMBS20Demo.sol\":5521:5536  t.cashAvailable */\n      0x05\n      add\n      sload\n        /* \"contracts/CMBS20Demo.sol\":5521:5545  t.cashAvailable * amount */\n      tag_181\n      swap2\n      swap1\n      tag_182\n      jump\t// in\n    tag_181:\n        /* \"contracts/CMBS20Demo.sol\":5520:5568  (t.cashAvailable * amount) / token.totalSupply() */\n      tag_183\n      swap2\n      swap1\n      tag_184\n      jump\t// in\n    tag_183:\n        /* \"contracts/CMBS20Demo.sol\":5502:5568  uint256 proRata = (t.cashAvailable * amount) / token.totalSupply() */\n      swap1\n      pop\n        /* \"contracts/CMBS20Demo.sol\":5597:5604  proRata */\n      dup1\n        /* \"contracts/CMBS20Demo.sol\":5578:5579  t */\n      dup4\n        /* \"contracts/CMBS20Demo.sol\":5578:5593  t.cashAvailable */\n      0x05\n      add\n      0x00\n        /* \"contracts/CMBS20Demo.sol\":5578:5604  t.cashAvailable -= proRata */\n      dup3\n      dup3\n      sload\n      tag_185\n      swap2\n      swap1\n      tag_186\n      jump\t// in\n    tag_185:\n      swap1\n      swap2\n      sstore\n      pop\n      pop\n        /* \"contracts/CMBS20Demo.sol\":5615:5645  token.burn(msg.sender, amount) */\n      mload(0x40)\n      0x9dc29fac00000000000000000000000000000000000000000000000000000000\n      dup2\n      mstore\n        /* \"contracts/CMBS20Demo.sol\":5626:5636  msg.sender */\n      caller\n        /* \"contracts/CMBS20Demo.sol\":5615:5645  token.burn(msg.sender, amount) */\n      0x04\n      dup3\n      add\n        /* \"#utility.yul\":7450:7524   */\n      mstore\n        /* \"#utility.yul\":7540:7558   */\n      0x24\n      dup2\n      add\n        /* \"#utility.yul\":7533:7567   */\n      dup6\n      swap1\n      mstore\n      sub(shl(0xa0, 0x01), 0x01)\n        /* \"contracts/CMBS20Demo.sol\":5615:5625  token.burn */\n      dup4\n      and\n      swap1\n      0x9dc29fac\n      swap1\n        /* \"#utility.yul\":7423:7441   */\n      0x44\n      add\n        /* \"contracts/CMBS20Demo.sol\":5615:5645  token.burn(msg.sender, amount) */\n      0x00\n      mload(0x40)\n      dup1\n      dup4\n      sub\n      dup2\n      0x00\n      dup8\n      dup1\n      extcodesize\n      iszero\n      dup1\n      iszero\n      tag_189\n      jumpi\n      0x00\n      dup1\n      revert\n    tag_189:\n      pop\n      gas\n      call\n      iszero\n      dup1\n      iszero\n      tag_191\n      jumpi\n      returndatasize\n      0x00\n      dup1\n      returndatacopy\n      revert(0x00, returndatasize)\n    tag_191:\n      pop\n      pop\n        /* \"contracts/CMBS20Demo.sol\":5701:5737  stable.transfer(msg.sender, proRata) */\n      mload(0x40)\n      shl(0xe0, 0xa9059cbb)\n      dup2\n      mstore\n        /* \"contracts/CMBS20Demo.sol\":5717:5727  msg.sender */\n      caller\n        /* \"contracts/CMBS20Demo.sol\":5701:5737  stable.transfer(msg.sender, proRata) */\n      0x04\n      dup3\n      add\n        /* \"#utility.yul\":7450:7524   */\n      mstore\n        /* \"#utility.yul\":7540:7558   */\n      0x24\n      dup2\n      add\n        /* \"#utility.yul\":7533:7567   */\n      dup5\n      swap1\n      mstore\n        /* \"contracts/CMBS20Demo.sol\":5701:5707  stable */\n      immutable(\"0xa0304342046b949c357e13879a24ce2facaca0ee062a454217f01898ed92aabf\")\n      sub(shl(0xa0, 0x01), 0x01)\n        /* \"contracts/CMBS20Demo.sol\":5701:5716  stable.transfer */\n      and\n      swap3\n      pop\n      0xa9059cbb\n      swap2\n      pop\n        /* \"#utility.yul\":7423:7441   */\n      0x44\n      add\n        /* \"contracts/CMBS20Demo.sol\":5701:5737  stable.transfer(msg.sender, proRata) */\n      0x20\n      mload(0x40)\n      dup1\n      dup4\n      sub\n      dup2\n      0x00\n      dup8\n      gas\n      call\n      iszero\n      dup1\n      iszero\n      tag_194\n      jumpi\n      returndatasize\n      0x00\n      dup1\n      returndatacopy\n      revert(0x00, returndatasize)\n    tag_194:\n      pop\n      pop\n      pop\n      pop\n      mload(0x40)\n      returndatasize\n      not(0x1f)\n      0x1f\n      dup3\n      add\n      and\n      dup3\n      add\n      dup1\n      0x40\n      mstore\n      pop\n      dup2\n      add\n      swap1\n      tag_195\n      swap2\n      swap1\n      tag_196\n      jump\t// in\n    tag_195:\n        /* \"contracts/CMBS20Demo.sol\":5693:5764  require(stable.transfer(msg.sender, proRata), \"STABLE_TRANSFER_FAILED\") */\n      tag_197\n      jumpi\n      mload(0x40)\n      shl(0xe5, 0x461bcd)\n      dup2\n      mstore\n        /* \"#utility.yul\":8062:8064   */\n      0x20\n        /* \"contracts/CMBS20Demo.sol\":5693:5764  require(stable.transfer(msg.sender, proRata), \"STABLE_TRANSFER_FAILED\") */\n      0x04\n      dup3\n      add\n        /* \"#utility.yul\":8044:8065   */\n      mstore\n        /* \"#utility.yul\":8101:8103   */\n      0x16\n        /* \"#utility.yul\":8081:8099   */\n      0x24\n      dup3\n      add\n        /* \"#utility.yul\":8074:8104   */\n      mstore\n        /* \"#utility.yul\":8140:8164   */\n      0x535441424c455f5452414e534645525f4641494c454400000000000000000000\n        /* \"#utility.yul\":8120:8138   */\n      0x44\n      dup3\n      add\n        /* \"#utility.yul\":8113:8165   */\n      mstore\n        /* \"#utility.yul\":8182:8200   */\n      0x64\n      add\n        /* \"contracts/CMBS20Demo.sol\":5693:5764  require(stable.transfer(msg.sender, proRata), \"STABLE_TRANSFER_FAILED\") */\n      tag_176\n        /* \"#utility.yul\":7860:8206   */\n      jump\n        /* \"contracts/CMBS20Demo.sol\":5693:5764  require(stable.transfer(msg.sender, proRata), \"STABLE_TRANSFER_FAILED\") */\n    tag_197:\n        /* \"contracts/CMBS20Demo.sol\":5779:5812  Withdraw(msg.sender, id, proRata) */\n      mload(0x40)\n        /* \"#utility.yul\":639:664   */\n      dup2\n      dup2\n      mstore\n        /* \"contracts/CMBS20Demo.sol\":5800:5802  id */\n      dup6\n      swap1\n        /* \"contracts/CMBS20Demo.sol\":5788:5798  msg.sender */\n      caller\n      swap1\n        /* \"contracts/CMBS20Demo.sol\":5779:5812  Withdraw(msg.sender, id, proRata) */\n      0xf279e6a1f5e320cca91135676d9cb6e44ca8a08c0b88342bcdb1144f6511b568\n      swap1\n        /* \"#utility.yul\":627:629   */\n      0x20\n        /* \"#utility.yul\":612:630   */\n      add\n        /* \"contracts/CMBS20Demo.sol\":5779:5812  Withdraw(msg.sender, id, proRata) */\n      mload(0x40)\n      dup1\n      swap2\n      sub\n      swap1\n      log3\n        /* \"contracts/CMBS20Demo.sol\":5335:5819  {... */\n      pop\n      pop\n      pop\n        /* \"contracts/CMBS20Demo.sol\":5266:5819  function withdraw(uint256 id, uint256 amount) external whenNotPaused {... */\n      pop\n      pop\n      jump\t// out\n        /* \"contracts/CMBS20Demo.sol\":6123:6273  function sweep(address to, uint256 amount) external onlyRole(DEFAULT_ADMIN_ROLE) {... */\n    tag_89:\n        /* \"@openzeppelin/contracts/access/AccessControl.sol\":2232:2236  0x00 */\n      0x00\n        /* \"@openzeppelin/contracts/access/AccessControl.sol\":2464:2480  _checkRole(role) */\n      tag_203\n        /* \"@openzeppelin/contracts/access/AccessControl.sol\":2232:2236  0x00 */\n      dup2\n        /* \"@openzeppelin/contracts/access/AccessControl.sol\":2464:2474  _checkRole */\n      tag_152\n        /* \"@openzeppelin/contracts/access/AccessControl.sol\":2464:2480  _checkRole(role) */\n      jump\t// in\n    tag_203:\n        /* \"contracts/CMBS20Demo.sol\":6222:6249  stable.transfer(to, amount) */\n      mload(0x40)\n      shl(0xe0, 0xa9059cbb)\n      dup2\n      mstore\n      sub(shl(0xa0, 0x01), 0x01)\n        /* \"#utility.yul\":7468:7523   */\n      dup5\n      dup2\n      and\n        /* \"contracts/CMBS20Demo.sol\":6222:6249  stable.transfer(to, amount) */\n      0x04\n      dup4\n      add\n        /* \"#utility.yul\":7450:7524   */\n      mstore\n        /* \"#utility.yul\":7540:7558   */\n      0x24\n      dup3\n      add\n        /* \"#utility.yul\":7533:7567   */\n      dup5\n      swap1\n      mstore\n        /* \"contracts/CMBS20Demo.sol\":6222:6228  stable */\n      immutable(\"0xa0304342046b949c357e13879a24ce2facaca0ee062a454217f01898ed92aabf\")\n        /* \"contracts/CMBS20Demo.sol\":6222:6237  stable.transfer */\n      and\n      swap1\n      0xa9059cbb\n      swap1\n        /* \"#utility.yul\":7423:7441   */\n      0x44\n      add\n        /* \"contracts/CMBS20Demo.sol\":6222:6249  stable.transfer(to, amount) */\n      0x20\n      mload(0x40)\n      dup1\n      dup4\n      sub\n      dup2\n      0x00\n      dup8\n      gas\n      call\n      iszero\n      dup1\n      iszero\n      tag_207\n      jumpi\n      returndatasize\n      0x00\n      dup1\n      returndatacopy\n      revert(0x00, returndatasize)\n    tag_207:\n      pop\n      pop\n      pop\n      pop\n      mload(0x40)\n      returndatasize\n      not(0x1f)\n      0x1f\n      dup3\n      add\n      and\n      dup3\n      add\n      dup1\n      0x40\n      mstore\n      pop\n      dup2\n      add\n      swap1\n      tag_208\n      swap2\n      swap1\n      tag_196\n      jump\t// in\n    tag_208:\n        /* \"contracts/CMBS20Demo.sol\":6214:6266  require(stable.transfer(to, amount), \"SWEEP_FAILED\") */\n      tag_160\n      jumpi\n      mload(0x40)\n      shl(0xe5, 0x461bcd)\n      dup2\n      mstore\n        /* \"#utility.yul\":8413:8415   */\n      0x20\n        /* \"contracts/CMBS20Demo.sol\":6214:6266  require(stable.transfer(to, amount), \"SWEEP_FAILED\") */\n      0x04\n      dup3\n      add\n        /* \"#utility.yul\":8395:8416   */\n      mstore\n        /* \"#utility.yul\":8452:8454   */\n      0x0c\n        /* \"#utility.yul\":8432:8450   */\n      0x24\n      dup3\n      add\n        /* \"#utility.yul\":8425:8455   */\n      mstore\n        /* \"#utility.yul\":8491:8505   */\n      0x53574545505f4641494c45440000000000000000000000000000000000000000\n        /* \"#utility.yul\":8471:8489   */\n      0x44\n      dup3\n      add\n        /* \"#utility.yul\":8464:8506   */\n      mstore\n        /* \"#utility.yul\":8523:8541   */\n      0x64\n      add\n        /* \"contracts/CMBS20Demo.sol\":6214:6266  require(stable.transfer(to, amount), \"SWEEP_FAILED\") */\n      tag_176\n        /* \"#utility.yul\":8211:8547   */\n      jump\n        /* \"contracts/CMBS20Demo.sol\":5972:6040  function pause() external onlyRole(DEFAULT_ADMIN_ROLE) { _pause(); } */\n    tag_94:\n        /* \"@openzeppelin/contracts/access/AccessControl.sol\":2232:2236  0x00 */\n      0x00\n        /* \"@openzeppelin/contracts/access/AccessControl.sol\":2464:2480  _checkRole(role) */\n      tag_213\n        /* \"@openzeppelin/contracts/access/AccessControl.sol\":2232:2236  0x00 */\n      dup2\n        /* \"@openzeppelin/contracts/access/AccessControl.sol\":2464:2474  _checkRole */\n      tag_152\n        /* \"@openzeppelin/contracts/access/AccessControl.sol\":2464:2480  _checkRole(role) */\n      jump\t// in\n    tag_213:\n        /* \"contracts/CMBS20Demo.sol\":6029:6037  _pause() */\n      tag_165\n        /* \"contracts/CMBS20Demo.sol\":6029:6035  _pause */\n      tag_216\n        /* \"contracts/CMBS20Demo.sol\":6029:6037  _pause() */\n      jump\t// in\n        /* \"contracts/CMBS20Demo.sol\":2362:2948  function distributeToInvestors(... */\n    tag_98:\n        /* \"@openzeppelin/contracts/access/AccessControl.sol\":2232:2236  0x00 */\n      0x00\n        /* \"@openzeppelin/contracts/access/AccessControl.sol\":2464:2480  _checkRole(role) */\n      tag_218\n        /* \"@openzeppelin/contracts/access/AccessControl.sol\":2232:2236  0x00 */\n      dup2\n        /* \"@openzeppelin/contracts/access/AccessControl.sol\":2464:2474  _checkRole */\n      tag_152\n        /* \"@openzeppelin/contracts/access/AccessControl.sol\":2464:2480  _checkRole(role) */\n      jump\t// in\n    tag_218:\n        /* \"contracts/CMBS20Demo.sol\":2541:2559  ERC3643Token token */\n      0x00\n        /* \"contracts/CMBS20Demo.sol\":2562:2574  tranches[id] */\n      dup7\n      dup2\n      mstore\n        /* \"contracts/CMBS20Demo.sol\":2562:2570  tranches */\n      0x05\n        /* \"contracts/CMBS20Demo.sol\":2562:2574  tranches[id] */\n      0x20\n      mstore\n      0x40\n      swap1\n      keccak256\n        /* \"contracts/CMBS20Demo.sol\":2562:2580  tranches[id].token */\n      sload\n      sub(shl(0xa0, 0x01), 0x01)\n      and\n        /* \"contracts/CMBS20Demo.sol\":2598:2632  investors.length == amounts.length */\n      dup5\n      dup4\n      eq\n        /* \"contracts/CMBS20Demo.sol\":2590:2658  require(investors.length == amounts.length, \"ARRAY_LENGTH_MISMATCH\") */\n      tag_220\n      jumpi\n      mload(0x40)\n      shl(0xe5, 0x461bcd)\n      dup2\n      mstore\n        /* \"#utility.yul\":8754:8756   */\n      0x20\n        /* \"contracts/CMBS20Demo.sol\":2590:2658  require(investors.length == amounts.length, \"ARRAY_LENGTH_MISMATCH\") */\n      0x04\n      dup3\n      add\n        /* \"#utility.yul\":8736:8757   */\n      mstore\n        /* \"#utility.yul\":8793:8795   */\n      0x15\n        /* \"#utility.yul\":8773:8791   */\n      0x24\n      dup3\n      add\n        /* \"#utility.yul\":8766:8796   */\n      mstore\n        /* \"#utility.yul\":8832:8855   */\n      0x41525241595f4c454e4754485f4d49534d415443480000000000000000000000\n        /* \"#utility.yul\":8812:8830   */\n      0x44\n      dup3\n      add\n        /* \"#utility.yul\":8805:8856   */\n      mstore\n        /* \"#utility.yul\":8873:8891   */\n      0x64\n      add\n        /* \"contracts/CMBS20Demo.sol\":2590:2658  require(investors.length == amounts.length, \"ARRAY_LENGTH_MISMATCH\") */\n      tag_176\n        /* \"#utility.yul\":8552:8897   */\n      jump\n        /* \"contracts/CMBS20Demo.sol\":2590:2658  require(investors.length == amounts.length, \"ARRAY_LENGTH_MISMATCH\") */\n    tag_220:\n        /* \"contracts/CMBS20Demo.sol\":2710:2731  _totalAmount(amounts) */\n      tag_223\n        /* \"contracts/CMBS20Demo.sol\":2723:2730  amounts */\n      dup5\n      dup5\n        /* \"contracts/CMBS20Demo.sol\":2710:2731  _totalAmount(amounts) */\n      dup1\n      dup1\n      0x20\n      mul\n      0x20\n      add\n      mload(0x40)\n      swap1\n      dup2\n      add\n      0x40\n      mstore\n      dup1\n      swap4\n      swap3\n      swap2\n      swap1\n      dup2\n      dup2\n      mstore\n      0x20\n      add\n      dup4\n      dup4\n      0x20\n      mul\n      dup1\n      dup3\n      dup5\n      calldatacopy\n      0x00\n      swap3\n      add\n      swap2\n      swap1\n      swap2\n      mstore\n      pop\n        /* \"contracts/CMBS20Demo.sol\":2710:2722  _totalAmount */\n      tag_224\n      swap3\n      pop\n      pop\n      pop\n        /* \"contracts/CMBS20Demo.sol\":2710:2731  _totalAmount(amounts) */\n      jump\t// in\n    tag_223:\n        /* \"contracts/CMBS20Demo.sol\":2676:2706  token.balanceOf(address(this)) */\n      mload(0x40)\n      shl(0xe0, 0x70a08231)\n      dup2\n      mstore\n        /* \"contracts/CMBS20Demo.sol\":2700:2704  this */\n      address\n        /* \"contracts/CMBS20Demo.sol\":2676:2706  token.balanceOf(address(this)) */\n      0x04\n      dup3\n      add\n        /* \"#utility.yul\":1547:1621   */\n      mstore\n      sub(shl(0xa0, 0x01), 0x01)\n        /* \"contracts/CMBS20Demo.sol\":2676:2691  token.balanceOf */\n      dup4\n      and\n      swap1\n      0x70a08231\n      swap1\n        /* \"#utility.yul\":1520:1538   */\n      0x24\n      add\n        /* \"contracts/CMBS20Demo.sol\":2676:2706  token.balanceOf(address(this)) */\n      0x20\n      mload(0x40)\n      dup1\n      dup4\n      sub\n      dup2\n      dup7\n      gas\n      staticcall\n      iszero\n      dup1\n      iszero\n      tag_227\n      jumpi\n      returndatasize\n      0x00\n      dup1\n      returndatacopy\n      revert(0x00, returndatasize)\n    tag_227:\n      pop\n      pop\n      pop\n      pop\n      mload(0x40)\n      returndatasize\n      not(0x1f)\n      0x1f\n      dup3\n      add\n      and\n      dup3\n      add\n      dup1\n      0x40\n      mstore\n      pop\n      dup2\n      add\n      swap1\n      tag_228\n      swap2\n      swap1\n      tag_133\n      jump\t// in\n    tag_228:\n        /* \"contracts/CMBS20Demo.sol\":2676:2731  token.balanceOf(address(this)) >= _totalAmount(amounts) */\n      lt\n      iszero\n        /* \"contracts/CMBS20Demo.sol\":2668:2758  require(token.balanceOf(address(this)) >= _totalAmount(amounts), \"INSUFFICIENT_ADMIN_BAL\") */\n      tag_229\n      jumpi\n      mload(0x40)\n      shl(0xe5, 0x461bcd)\n      dup2\n      mstore\n        /* \"#utility.yul\":9104:9106   */\n      0x20\n        /* \"contracts/CMBS20Demo.sol\":2668:2758  require(token.balanceOf(address(this)) >= _totalAmount(amounts), \"INSUFFICIENT_ADMIN_BAL\") */\n      0x04\n      dup3\n      add\n        /* \"#utility.yul\":9086:9107   */\n      mstore\n        /* \"#utility.yul\":9143:9145   */\n      0x16\n        /* \"#utility.yul\":9123:9141   */\n      0x24\n      dup3\n      add\n        /* \"#utility.yul\":9116:9146   */\n      mstore\n        /* \"#utility.yul\":9182:9206   */\n      0x494e53554646494349454e545f41444d494e5f42414c00000000000000000000\n        /* \"#utility.yul\":9162:9180   */\n      0x44\n      dup3\n      add\n        /* \"#utility.yul\":9155:9207   */\n      mstore\n        /* \"#utility.yul\":9224:9242   */\n      0x64\n      add\n        /* \"contracts/CMBS20Demo.sol\":2668:2758  require(token.balanceOf(address(this)) >= _totalAmount(amounts), \"INSUFFICIENT_ADMIN_BAL\") */\n      tag_176\n        /* \"#utility.yul\":8902:9248   */\n      jump\n        /* \"contracts/CMBS20Demo.sol\":2668:2758  require(token.balanceOf(address(this)) >= _totalAmount(amounts), \"INSUFFICIENT_ADMIN_BAL\") */\n    tag_229:\n        /* \"contracts/CMBS20Demo.sol\":2774:2783  uint256 i */\n      0x00\n        /* \"contracts/CMBS20Demo.sol\":2769:2942  for (uint256 i = 0; i < investors.length; ++i) {... */\n    tag_232:\n        /* \"contracts/CMBS20Demo.sol\":2789:2809  i < investors.length */\n      dup6\n      dup2\n      lt\n        /* \"contracts/CMBS20Demo.sol\":2769:2942  for (uint256 i = 0; i < investors.length; ++i) {... */\n      iszero\n      tag_233\n      jumpi\n        /* \"contracts/CMBS20Demo.sol\":2830:2835  token */\n      dup2\n      sub(shl(0xa0, 0x01), 0x01)\n        /* \"contracts/CMBS20Demo.sol\":2830:2844  token.transfer */\n      and\n      0xa9059cbb\n        /* \"contracts/CMBS20Demo.sol\":2845:2854  investors */\n      dup9\n      dup9\n        /* \"contracts/CMBS20Demo.sol\":2855:2856  i */\n      dup5\n        /* \"contracts/CMBS20Demo.sol\":2845:2857  investors[i] */\n      dup2\n      dup2\n      lt\n      tag_236\n      jumpi\n      tag_236\n      tag_237\n      jump\t// in\n    tag_236:\n      swap1\n      pop\n      0x20\n      mul\n      add\n      0x20\n      dup2\n      add\n      swap1\n      tag_238\n      swap2\n      swap1\n      tag_239\n      jump\t// in\n    tag_238:\n        /* \"contracts/CMBS20Demo.sol\":2859:2866  amounts */\n      dup8\n      dup8\n        /* \"contracts/CMBS20Demo.sol\":2867:2868  i */\n      dup6\n        /* \"contracts/CMBS20Demo.sol\":2859:2869  amounts[i] */\n      dup2\n      dup2\n      lt\n      tag_241\n      jumpi\n      tag_241\n      tag_237\n      jump\t// in\n    tag_241:\n        /* \"contracts/CMBS20Demo.sol\":2830:2870  token.transfer(investors[i], amounts[i]) */\n      mload(0x40)\n      not(sub(shl(0xe0, 0x01), 0x01))\n      0xe0\n      dup8\n      swap1\n      shl\n      and\n      dup2\n      mstore\n      sub(shl(0xa0, 0x01), 0x01)\n        /* \"#utility.yul\":7468:7523   */\n      swap1\n      swap5\n      and\n        /* \"contracts/CMBS20Demo.sol\":2830:2870  token.transfer(investors[i], amounts[i]) */\n      0x04\n      dup6\n      add\n        /* \"#utility.yul\":7450:7524   */\n      mstore\n        /* \"contracts/CMBS20Demo.sol\":2859:2869  amounts[i] */\n      0x20\n      mul\n      swap2\n      swap1\n      swap2\n      add\n      calldataload\n        /* \"#utility.yul\":7540:7558   */\n      0x24\n      dup4\n      add\n        /* \"#utility.yul\":7533:7567   */\n      mstore\n      pop\n        /* \"#utility.yul\":7423:7441   */\n      0x44\n      add\n        /* \"contracts/CMBS20Demo.sol\":2830:2870  token.transfer(investors[i], amounts[i]) */\n      0x20\n      mload(0x40)\n      dup1\n      dup4\n      sub\n      dup2\n      0x00\n      dup8\n      gas\n      call\n      iszero\n      dup1\n      iszero\n      tag_244\n      jumpi\n      returndatasize\n      0x00\n      dup1\n      returndatacopy\n      revert(0x00, returndatasize)\n    tag_244:\n      pop\n      pop\n      pop\n      pop\n      mload(0x40)\n      returndatasize\n      not(0x1f)\n      0x1f\n      dup3\n      add\n      and\n      dup3\n      add\n      dup1\n      0x40\n      mstore\n      pop\n      dup2\n      add\n      swap1\n      tag_245\n      swap2\n      swap1\n      tag_196\n      jump\t// in\n    tag_245:\n      pop\n        /* \"contracts/CMBS20Demo.sol\":2906:2915  investors */\n      dup7\n      dup7\n        /* \"contracts/CMBS20Demo.sol\":2916:2917  i */\n      dup3\n        /* \"contracts/CMBS20Demo.sol\":2906:2918  investors[i] */\n      dup2\n      dup2\n      lt\n      tag_247\n      jumpi\n      tag_247\n      tag_237\n      jump\t// in\n    tag_247:\n      swap1\n      pop\n      0x20\n      mul\n      add\n      0x20\n      dup2\n      add\n      swap1\n      tag_248\n      swap2\n      swap1\n      tag_239\n      jump\t// in\n    tag_248:\n      sub(shl(0xa0, 0x01), 0x01)\n        /* \"contracts/CMBS20Demo.sol\":2889:2931  Distribution(id, investors[i], amounts[i]) */\n      and\n        /* \"contracts/CMBS20Demo.sol\":2902:2904  id */\n      dup9\n        /* \"contracts/CMBS20Demo.sol\":2889:2931  Distribution(id, investors[i], amounts[i]) */\n      0xb6bcab815b7a952b8759f2f92fc9981dc1156f6c11bf4dc7e9cb3036495e653a\n        /* \"contracts/CMBS20Demo.sol\":2920:2927  amounts */\n      dup8\n      dup8\n        /* \"contracts/CMBS20Demo.sol\":2928:2929  i */\n      dup6\n        /* \"contracts/CMBS20Demo.sol\":2920:2930  amounts[i] */\n      dup2\n      dup2\n      lt\n      tag_250\n      jumpi\n      tag_250\n      tag_237\n      jump\t// in\n    tag_250:\n      swap1\n      pop\n      0x20\n      mul\n      add\n      calldataload\n        /* \"contracts/CMBS20Demo.sol\":2889:2931  Distribution(id, investors[i], amounts[i]) */\n      mload(0x40)\n      tag_251\n      swap2\n        /* \"#utility.yul\":639:664   */\n      dup2\n      mstore\n        /* \"#utility.yul\":627:629   */\n      0x20\n        /* \"#utility.yul\":612:630   */\n      add\n      swap1\n        /* \"#utility.yul\":493:670   */\n      jump\n        /* \"contracts/CMBS20Demo.sol\":2889:2931  Distribution(id, investors[i], amounts[i]) */\n    tag_251:\n      mload(0x40)\n      dup1\n      swap2\n      sub\n      swap1\n      log3\n        /* \"contracts/CMBS20Demo.sol\":2811:2814  ++i */\n      0x01\n      add\n        /* \"contracts/CMBS20Demo.sol\":2769:2942  for (uint256 i = 0; i < investors.length; ++i) {... */\n      jump(tag_232)\n    tag_233:\n      pop\n        /* \"contracts/CMBS20Demo.sol\":2531:2948  {... */\n      pop\n        /* \"contracts/CMBS20Demo.sol\":2362:2948  function distributeToInvestors(... */\n      pop\n      pop\n      pop\n      pop\n      pop\n      pop\n      jump\t// out\n        /* \"contracts/CMBS20Demo.sol\":1600:2356  function createTranche(... */\n    tag_106:\n        /* \"@openzeppelin/contracts/access/AccessControl.sol\":2232:2236  0x00 */\n      0x00\n        /* \"@openzeppelin/contracts/access/AccessControl.sol\":2464:2480  _checkRole(role) */\n      tag_254\n        /* \"@openzeppelin/contracts/access/AccessControl.sol\":2232:2236  0x00 */\n      dup2\n        /* \"@openzeppelin/contracts/access/AccessControl.sol\":2464:2474  _checkRole */\n      tag_152\n        /* \"@openzeppelin/contracts/access/AccessControl.sol\":2464:2480  _checkRole(role) */\n      jump\t// in\n    tag_254:\n        /* \"contracts/CMBS20Demo.sol\":1828:1829  0 */\n      0x00\n        /* \"contracts/CMBS20Demo.sol\":1816:1825  principal */\n      dup6\n        /* \"contracts/CMBS20Demo.sol\":1816:1829  principal > 0 */\n      gt\n        /* \"contracts/CMBS20Demo.sol\":1808:1851  require(principal > 0, \"INVALID_PRINCIPAL\") */\n      tag_256\n      jumpi\n      mload(0x40)\n      shl(0xe5, 0x461bcd)\n      dup2\n      mstore\n        /* \"#utility.yul\":9896:9898   */\n      0x20\n        /* \"contracts/CMBS20Demo.sol\":1808:1851  require(principal > 0, \"INVALID_PRINCIPAL\") */\n      0x04\n      dup3\n      add\n        /* \"#utility.yul\":9878:9899   */\n      mstore\n        /* \"#utility.yul\":9935:9937   */\n      0x11\n        /* \"#utility.yul\":9915:9933   */\n      0x24\n      dup3\n      add\n        /* \"#utility.yul\":9908:9938   */\n      mstore\n        /* \"#utility.yul\":9974:9993   */\n      0x494e56414c49445f5052494e434950414c000000000000000000000000000000\n        /* \"#utility.yul\":9954:9972   */\n      0x44\n      dup3\n      add\n        /* \"#utility.yul\":9947:9994   */\n      mstore\n        /* \"#utility.yul\":10011:10029   */\n      0x64\n      add\n        /* \"contracts/CMBS20Demo.sol\":1808:1851  require(principal > 0, \"INVALID_PRINCIPAL\") */\n      tag_176\n        /* \"#utility.yul\":9694:10035   */\n      jump\n        /* \"contracts/CMBS20Demo.sol\":1808:1851  require(principal > 0, \"INVALID_PRINCIPAL\") */\n    tag_256:\n        /* \"contracts/CMBS20Demo.sol\":1878:1879  0 */\n      0x00\n        /* \"contracts/CMBS20Demo.sol\":1869:1875  supply */\n      dup3\n        /* \"contracts/CMBS20Demo.sol\":1869:1879  supply > 0 */\n      gt\n        /* \"contracts/CMBS20Demo.sol\":1861:1898  require(supply > 0, \"INVALID_SUPPLY\") */\n      tag_259\n      jumpi\n      mload(0x40)\n      shl(0xe5, 0x461bcd)\n      dup2\n      mstore\n        /* \"#utility.yul\":10242:10244   */\n      0x20\n        /* \"contracts/CMBS20Demo.sol\":1861:1898  require(supply > 0, \"INVALID_SUPPLY\") */\n      0x04\n      dup3\n      add\n        /* \"#utility.yul\":10224:10245   */\n      mstore\n        /* \"#utility.yul\":10281:10283   */\n      0x0e\n        /* \"#utility.yul\":10261:10279   */\n      0x24\n      dup3\n      add\n        /* \"#utility.yul\":10254:10284   */\n      mstore\n        /* \"#utility.yul\":10320:10336   */\n      0x494e56414c49445f535550504c59000000000000000000000000000000000000\n        /* \"#utility.yul\":10300:10318   */\n      0x44\n      dup3\n      add\n        /* \"#utility.yul\":10293:10337   */\n      mstore\n        /* \"#utility.yul\":10354:10372   */\n      0x64\n      add\n        /* \"contracts/CMBS20Demo.sol\":1861:1898  require(supply > 0, \"INVALID_SUPPLY\") */\n      tag_176\n        /* \"#utility.yul\":10040:10378   */\n      jump\n        /* \"contracts/CMBS20Demo.sol\":1861:1898  require(supply > 0, \"INVALID_SUPPLY\") */\n    tag_259:\n        /* \"contracts/CMBS20Demo.sol\":1926:1931  token */\n      dup6\n      sub(shl(0xa0, 0x01), 0x01)\n        /* \"contracts/CMBS20Demo.sol\":1926:1943  token.totalSupply */\n      and\n      0x18160ddd\n        /* \"contracts/CMBS20Demo.sol\":1926:1945  token.totalSupply() */\n      mload(0x40)\n      dup2\n      0xffffffff\n      and\n      0xe0\n      shl\n      dup2\n      mstore\n      0x04\n      add\n      0x20\n      mload(0x40)\n      dup1\n      dup4\n      sub\n      dup2\n      dup7\n      gas\n      staticcall\n      iszero\n      dup1\n      iszero\n      tag_263\n      jumpi\n      returndatasize\n      0x00\n      dup1\n      returndatacopy\n      revert(0x00, returndatasize)\n    tag_263:\n      pop\n      pop\n      pop\n      pop\n      mload(0x40)\n      returndatasize\n      not(0x1f)\n      0x1f\n      dup3\n      add\n      and\n      dup3\n      add\n      dup1\n      0x40\n      mstore\n      pop\n      dup2\n      add\n      swap1\n      tag_264\n      swap2\n      swap1\n      tag_133\n      jump\t// in\n    tag_264:\n        /* \"contracts/CMBS20Demo.sol\":1916:1922  supply */\n      dup3\n        /* \"contracts/CMBS20Demo.sol\":1916:1945  supply == token.totalSupply() */\n      eq\n        /* \"contracts/CMBS20Demo.sol\":1908:1970  require(supply == token.totalSupply(), \"INVALID_TOKEN_SUPPLY\") */\n      tag_265\n      jumpi\n      mload(0x40)\n      shl(0xe5, 0x461bcd)\n      dup2\n      mstore\n        /* \"#utility.yul\":10585:10587   */\n      0x20\n        /* \"contracts/CMBS20Demo.sol\":1908:1970  require(supply == token.totalSupply(), \"INVALID_TOKEN_SUPPLY\") */\n      0x04\n      dup3\n      add\n        /* \"#utility.yul\":10567:10588   */\n      mstore\n        /* \"#utility.yul\":10624:10626   */\n      0x14\n        /* \"#utility.yul\":10604:10622   */\n      0x24\n      dup3\n      add\n        /* \"#utility.yul\":10597:10627   */\n      mstore\n        /* \"#utility.yul\":10663:10685   */\n      0x494e56414c49445f544f4b454e5f535550504c59000000000000000000000000\n        /* \"#utility.yul\":10643:10661   */\n      0x44\n      dup3\n      add\n        /* \"#utility.yul\":10636:10686   */\n      mstore\n        /* \"#utility.yul\":10703:10721   */\n      0x64\n      add\n        /* \"contracts/CMBS20Demo.sol\":1908:1970  require(supply == token.totalSupply(), \"INVALID_TOKEN_SUPPLY\") */\n      tag_176\n        /* \"#utility.yul\":10383:10727   */\n      jump\n        /* \"contracts/CMBS20Demo.sol\":1908:1970  require(supply == token.totalSupply(), \"INVALID_TOKEN_SUPPLY\") */\n    tag_265:\n        /* \"contracts/CMBS20Demo.sol\":1994:2007  nextTrancheId */\n      sload(0x03)\n        /* \"contracts/CMBS20Demo.sol\":2033:2039  id + 1 */\n      tag_268\n        /* \"contracts/CMBS20Demo.sol\":1994:2007  nextTrancheId */\n      dup2\n        /* \"contracts/CMBS20Demo.sol\":2038:2039  1 */\n      0x01\n        /* \"contracts/CMBS20Demo.sol\":2033:2039  id + 1 */\n      tag_147\n      jump\t// in\n    tag_268:\n        /* \"contracts/CMBS20Demo.sol\":2017:2030  nextTrancheId */\n      0x03\n        /* \"contracts/CMBS20Demo.sol\":2017:2039  nextTrancheId = id + 1 */\n      swap1\n      dup2\n      sstore\n        /* \"contracts/CMBS20Demo.sol\":2065:2274  Tranche({... */\n      0x40\n      dup1\n      mload\n      0xc0\n      dup2\n      add\n      dup3\n      mstore\n      sub(shl(0xa0, 0x01), 0x01)\n      dup11\n      dup2\n      and\n      dup3\n      mstore\n      0x20\n      dup1\n      dup4\n      add\n      dup12\n      dup2\n      mstore\n      dup4\n      dup6\n      add\n      dup12\n      dup2\n      mstore\n      0xff\n      dup12\n      dup2\n      and\n      0x60\n      dup1\n      dup9\n      add\n      dup3\n      dup2\n      mstore\n      0x00\n      0x80\n      dup1\n      dup12\n      add\n      dup3\n      dup2\n      mstore\n      0xa0\n      dup13\n      add\n      dup4\n      dup2\n      mstore\n        /* \"contracts/CMBS20Demo.sol\":2050:2062  tranches[id] */\n      dup16\n      dup5\n      mstore\n        /* \"contracts/CMBS20Demo.sol\":2050:2058  tranches */\n      0x05\n        /* \"contracts/CMBS20Demo.sol\":2050:2062  tranches[id] */\n      dup1\n      dup13\n      mstore\n      swap4\n      dup15\n      swap1\n      keccak256\n        /* \"contracts/CMBS20Demo.sol\":2050:2274  tranches[id] = Tranche({... */\n      swap13\n      mload\n      dup14\n      sload\n      0xffffffffffffffffffffffff0000000000000000000000000000000000000000\n      and\n      swap13\n      and\n      swap12\n      swap1\n      swap12\n      or\n      dup13\n      sstore\n      swap8\n      mload\n      0x01\n      dup13\n      add\n      sstore\n      swap6\n      mload\n      0x02\n      dup12\n      add\n      sstore\n      swap1\n      mload\n      swap11\n      dup10\n      add\n      dup1\n      sload\n      not(0xff)\n      and\n      swap12\n      swap1\n      swap5\n      and\n      swap11\n      swap1\n      swap11\n      or\n      swap1\n      swap3\n      sstore\n      swap3\n      mload\n      0x04\n      dup8\n      add\n      sstore\n      swap4\n      mload\n      swap5\n      swap1\n      swap7\n      add\n      swap4\n      swap1\n      swap4\n      sstore\n        /* \"contracts/CMBS20Demo.sol\":2290:2349  TrancheCreated(id, principal, couponBps, seniority, supply) */\n      dup4\n      mload\n        /* \"#utility.yul\":10959:10984   */\n      dup12\n      dup2\n      mstore\n        /* \"#utility.yul\":11000:11018   */\n      swap1\n      dup2\n      add\n        /* \"#utility.yul\":10993:11027   */\n      dup11\n      swap1\n      mstore\n        /* \"#utility.yul\":11043:11061   */\n      swap3\n      dup4\n      add\n        /* \"#utility.yul\":11036:11081   */\n      swap2\n      swap1\n      swap2\n      mstore\n        /* \"#utility.yul\":11097:11115   */\n      dup2\n      add\n        /* \"#utility.yul\":11090:11124   */\n      dup6\n      swap1\n      mstore\n        /* \"contracts/CMBS20Demo.sol\":2050:2062  tranches[id] */\n      dup3\n      swap2\n        /* \"contracts/CMBS20Demo.sol\":2290:2349  TrancheCreated(id, principal, couponBps, seniority, supply) */\n      0x564b343ad33dbf7eb84ef778355be83df7b0a44ce6021e56d7bd757a03c03544\n      swap2\n        /* \"#utility.yul\":10931:10950   */\n      add\n        /* \"contracts/CMBS20Demo.sol\":2290:2349  TrancheCreated(id, principal, couponBps, seniority, supply) */\n      mload(0x40)\n      dup1\n      swap2\n      sub\n      swap1\n      log2\n        /* \"contracts/CMBS20Demo.sol\":1798:2356  {... */\n      pop\n        /* \"contracts/CMBS20Demo.sol\":1600:2356  function createTranche(... */\n      pop\n      pop\n      pop\n      pop\n      pop\n      pop\n      jump\t// out\n        /* \"contracts/CMBS20Demo.sol\":6418:6537  function totalSupply(uint256 id) public view returns (uint256) {... */\n    tag_112:\n        /* \"contracts/CMBS20Demo.sol\":6472:6479  uint256 */\n      0x00\n        /* \"contracts/CMBS20Demo.sol\":6498:6510  tranches[id] */\n      dup2\n      dup2\n      mstore\n        /* \"contracts/CMBS20Demo.sol\":6498:6506  tranches */\n      0x05\n        /* \"contracts/CMBS20Demo.sol\":6498:6510  tranches[id] */\n      0x20\n      swap1\n      dup2\n      mstore\n      0x40\n      dup1\n      dup4\n      keccak256\n        /* \"contracts/CMBS20Demo.sol\":6498:6516  tranches[id].token */\n      sload\n        /* \"contracts/CMBS20Demo.sol\":6498:6530  tranches[id].token.totalSupply() */\n      dup2\n      mload\n      0x18160ddd00000000000000000000000000000000000000000000000000000000\n      dup2\n      mstore\n      swap2\n      mload\n      sub(shl(0xa0, 0x01), 0x01)\n        /* \"contracts/CMBS20Demo.sol\":6498:6516  tranches[id].token */\n      swap1\n      swap2\n      and\n      swap3\n        /* \"contracts/CMBS20Demo.sol\":6498:6528  tranches[id].token.totalSupply */\n      0x18160ddd\n      swap3\n        /* \"contracts/CMBS20Demo.sol\":6498:6530  tranches[id].token.totalSupply() */\n      0x04\n      dup1\n      dup3\n      add\n      swap4\n      swap2\n      dup3\n      swap1\n      sub\n      add\n      dup2\n        /* \"contracts/CMBS20Demo.sol\":6498:6516  tranches[id].token */\n      dup7\n        /* \"contracts/CMBS20Demo.sol\":6498:6530  tranches[id].token.totalSupply() */\n      gas\n      staticcall\n      iszero\n      dup1\n      iszero\n      tag_273\n      jumpi\n      returndatasize\n      0x00\n      dup1\n      returndatacopy\n      revert(0x00, returndatasize)\n    tag_273:\n      pop\n      pop\n      pop\n      pop\n      mload(0x40)\n      returndatasize\n      not(0x1f)\n      0x1f\n      dup3\n      add\n      and\n      dup3\n      add\n      dup1\n      0x40\n      mstore\n      pop\n      dup2\n      add\n      swap1\n      tag_127\n      swap2\n      swap1\n      tag_133\n      jump\t// in\n        /* \"contracts/CMBS20Demo.sol\":3975:5115  function depositAndDistribute(uint256 amount)... */\n    tag_116:\n        /* \"@openzeppelin/contracts/utils/Pausable.sol\":1350:1369  _requireNotPaused() */\n      tag_276\n        /* \"@openzeppelin/contracts/utils/Pausable.sol\":1350:1367  _requireNotPaused */\n      tag_169\n        /* \"@openzeppelin/contracts/utils/Pausable.sol\":1350:1369  _requireNotPaused() */\n      jump\t// in\n    tag_276:\n        /* \"contracts/CMBS20Demo.sol\":382:408  keccak256(\"SERVICER_ROLE\") */\n      0x250b76734a070a69c7b3930477dd35007ad9c9d0952e97903fdafb2db6980537\n        /* \"@openzeppelin/contracts/access/AccessControl.sol\":2464:2480  _checkRole(role) */\n      tag_278\n        /* \"@openzeppelin/contracts/access/AccessControl.sol\":2475:2479  role */\n      dup2\n        /* \"@openzeppelin/contracts/access/AccessControl.sol\":2464:2474  _checkRole */\n      tag_152\n        /* \"@openzeppelin/contracts/access/AccessControl.sol\":2464:2480  _checkRole(role) */\n      jump\t// in\n    tag_278:\n        /* \"contracts/CMBS20Demo.sol\":4114:4168  stable.transferFrom(msg.sender, address(this), amount) */\n      mload(0x40)\n      0x23b872dd00000000000000000000000000000000000000000000000000000000\n      dup2\n      mstore\n        /* \"contracts/CMBS20Demo.sol\":4134:4144  msg.sender */\n      caller\n        /* \"contracts/CMBS20Demo.sol\":4114:4168  stable.transferFrom(msg.sender, address(this), amount) */\n      0x04\n      dup3\n      add\n        /* \"#utility.yul\":11398:11432   */\n      mstore\n        /* \"contracts/CMBS20Demo.sol\":4154:4158  this */\n      address\n        /* \"#utility.yul\":11448:11466   */\n      0x24\n      dup3\n      add\n        /* \"#utility.yul\":11441:11484   */\n      mstore\n        /* \"#utility.yul\":11500:11518   */\n      0x44\n      dup2\n      add\n        /* \"#utility.yul\":11493:11527   */\n      dup4\n      swap1\n      mstore\n        /* \"contracts/CMBS20Demo.sol\":4114:4120  stable */\n      immutable(\"0xa0304342046b949c357e13879a24ce2facaca0ee062a454217f01898ed92aabf\")\n      sub(shl(0xa0, 0x01), 0x01)\n        /* \"contracts/CMBS20Demo.sol\":4114:4133  stable.transferFrom */\n      and\n      swap1\n      0x23b872dd\n      swap1\n        /* \"#utility.yul\":11310:11328   */\n      0x64\n      add\n        /* \"contracts/CMBS20Demo.sol\":4114:4168  stable.transferFrom(msg.sender, address(this), amount) */\n      0x20\n      mload(0x40)\n      dup1\n      dup4\n      sub\n      dup2\n      0x00\n      dup8\n      gas\n      call\n      iszero\n      dup1\n      iszero\n      tag_283\n      jumpi\n      returndatasize\n      0x00\n      dup1\n      returndatacopy\n      revert(0x00, returndatasize)\n    tag_283:\n      pop\n      pop\n      pop\n      pop\n      mload(0x40)\n      returndatasize\n      not(0x1f)\n      0x1f\n      dup3\n      add\n      and\n      dup3\n      add\n      dup1\n      0x40\n      mstore\n      pop\n      dup2\n      add\n      swap1\n      tag_284\n      swap2\n      swap1\n      tag_196\n      jump\t// in\n    tag_284:\n        /* \"contracts/CMBS20Demo.sol\":4106:4188  require(stable.transferFrom(msg.sender, address(this), amount), \"TRANSFER_FAILED\") */\n      tag_285\n      jumpi\n      mload(0x40)\n      shl(0xe5, 0x461bcd)\n      dup2\n      mstore\n        /* \"#utility.yul\":11740:11742   */\n      0x20\n        /* \"contracts/CMBS20Demo.sol\":4106:4188  require(stable.transferFrom(msg.sender, address(this), amount), \"TRANSFER_FAILED\") */\n      0x04\n      dup3\n      add\n        /* \"#utility.yul\":11722:11743   */\n      mstore\n        /* \"#utility.yul\":11779:11781   */\n      0x0f\n        /* \"#utility.yul\":11759:11777   */\n      0x24\n      dup3\n      add\n        /* \"#utility.yul\":11752:11782   */\n      mstore\n        /* \"#utility.yul\":11818:11835   */\n      0x5452414e534645525f4641494c45440000000000000000000000000000000000\n        /* \"#utility.yul\":11798:11816   */\n      0x44\n      dup3\n      add\n        /* \"#utility.yul\":11791:11836   */\n      mstore\n        /* \"#utility.yul\":11853:11871   */\n      0x64\n      add\n        /* \"contracts/CMBS20Demo.sol\":4106:4188  require(stable.transferFrom(msg.sender, address(this), amount), \"TRANSFER_FAILED\") */\n      tag_176\n        /* \"#utility.yul\":11538:11877   */\n      jump\n        /* \"contracts/CMBS20Demo.sol\":4106:4188  require(stable.transferFrom(msg.sender, address(this), amount), \"TRANSFER_FAILED\") */\n    tag_285:\n        /* \"contracts/CMBS20Demo.sol\":4198:4218  _accrueAllInterest() */\n      tag_288\n        /* \"contracts/CMBS20Demo.sol\":4198:4216  _accrueAllInterest */\n      tag_140\n        /* \"contracts/CMBS20Demo.sol\":4198:4218  _accrueAllInterest() */\n      jump\t// in\n    tag_288:\n        /* \"contracts/CMBS20Demo.sol\":4249:4255  amount */\n      dup2\n        /* \"contracts/CMBS20Demo.sol\":4229:4246  uint256 remaining */\n      0x00\n        /* \"contracts/CMBS20Demo.sol\":4266:5027  for (uint8 s = 0; s < 255 && remaining > 0; ++s) {... */\n    tag_289:\n        /* \"contracts/CMBS20Demo.sol\":4288:4291  255 */\n      0xff\n        /* \"contracts/CMBS20Demo.sol\":4284:4285  s */\n      dup2\n        /* \"contracts/CMBS20Demo.sol\":4284:4291  s < 255 */\n      0xff\n      and\n      lt\n        /* \"contracts/CMBS20Demo.sol\":4284:4308  s < 255 && remaining > 0 */\n      dup1\n      iszero\n      tag_292\n      jumpi\n      pop\n        /* \"contracts/CMBS20Demo.sol\":4307:4308  0 */\n      0x00\n        /* \"contracts/CMBS20Demo.sol\":4295:4304  remaining */\n      dup3\n        /* \"contracts/CMBS20Demo.sol\":4295:4308  remaining > 0 */\n      gt\n        /* \"contracts/CMBS20Demo.sol\":4284:4308  s < 255 && remaining > 0 */\n    tag_292:\n        /* \"contracts/CMBS20Demo.sol\":4266:5027  for (uint8 s = 0; s < 255 && remaining > 0; ++s) {... */\n      iszero\n      tag_290\n      jumpi\n        /* \"contracts/CMBS20Demo.sol\":4334:4344  uint256 id */\n      0x00\n        /* \"contracts/CMBS20Demo.sol\":4329:5017  for (uint256 id = 0; id < nextTrancheId && remaining > 0; ++id) {... */\n    tag_293:\n        /* \"contracts/CMBS20Demo.sol\":4355:4368  nextTrancheId */\n      sload(0x03)\n        /* \"contracts/CMBS20Demo.sol\":4350:4352  id */\n      dup2\n        /* \"contracts/CMBS20Demo.sol\":4350:4368  id < nextTrancheId */\n      lt\n        /* \"contracts/CMBS20Demo.sol\":4350:4385  id < nextTrancheId && remaining > 0 */\n      dup1\n      iszero\n      tag_296\n      jumpi\n      pop\n        /* \"contracts/CMBS20Demo.sol\":4384:4385  0 */\n      0x00\n        /* \"contracts/CMBS20Demo.sol\":4372:4381  remaining */\n      dup4\n        /* \"contracts/CMBS20Demo.sol\":4372:4385  remaining > 0 */\n      gt\n        /* \"contracts/CMBS20Demo.sol\":4350:4385  id < nextTrancheId && remaining > 0 */\n    tag_296:\n        /* \"contracts/CMBS20Demo.sol\":4329:5017  for (uint256 id = 0; id < nextTrancheId && remaining > 0; ++id) {... */\n      iszero\n      tag_294\n      jumpi\n        /* \"contracts/CMBS20Demo.sol\":4411:4428  Tranche storage t */\n      0x00\n        /* \"contracts/CMBS20Demo.sol\":4431:4443  tranches[id] */\n      dup2\n      dup2\n      mstore\n        /* \"contracts/CMBS20Demo.sol\":4431:4439  tranches */\n      0x05\n        /* \"contracts/CMBS20Demo.sol\":4431:4443  tranches[id] */\n      0x20\n      mstore\n      0x40\n      swap1\n      keccak256\n        /* \"contracts/CMBS20Demo.sol\":4465:4476  t.seniority */\n      0x03\n      dup2\n      add\n      sload\n        /* \"contracts/CMBS20Demo.sol\":4465:4481  t.seniority != s */\n      0xff\n      dup5\n      dup2\n      and\n        /* \"contracts/CMBS20Demo.sol\":4465:4476  t.seniority */\n      swap2\n      and\n        /* \"contracts/CMBS20Demo.sol\":4465:4481  t.seniority != s */\n      eq\n        /* \"contracts/CMBS20Demo.sol\":4461:4491  if (t.seniority != s) continue */\n      tag_297\n      jumpi\n        /* \"contracts/CMBS20Demo.sol\":4483:4491  continue */\n      pop\n      jump(tag_295)\n        /* \"contracts/CMBS20Demo.sol\":4461:4491  if (t.seniority != s) continue */\n    tag_297:\n        /* \"contracts/CMBS20Demo.sol\":4510:4524  uint256 payInt */\n      0x00\n        /* \"contracts/CMBS20Demo.sol\":4548:4557  remaining */\n      dup5\n        /* \"contracts/CMBS20Demo.sol\":4527:4528  t */\n      dup3\n        /* \"contracts/CMBS20Demo.sol\":4527:4544  t.accruedInterest */\n      0x04\n      add\n      sload\n        /* \"contracts/CMBS20Demo.sol\":4527:4557  t.accruedInterest <= remaining */\n      gt\n      iszero\n        /* \"contracts/CMBS20Demo.sol\":4527:4589  t.accruedInterest <= remaining ? t.accruedInterest : remaining */\n      tag_298\n      jumpi\n        /* \"contracts/CMBS20Demo.sol\":4580:4589  remaining */\n      dup5\n        /* \"contracts/CMBS20Demo.sol\":4527:4589  t.accruedInterest <= remaining ? t.accruedInterest : remaining */\n      jump(tag_299)\n    tag_298:\n        /* \"contracts/CMBS20Demo.sol\":4560:4561  t */\n      dup2\n        /* \"contracts/CMBS20Demo.sol\":4560:4577  t.accruedInterest */\n      0x04\n      add\n      sload\n        /* \"contracts/CMBS20Demo.sol\":4527:4589  t.accruedInterest <= remaining ? t.accruedInterest : remaining */\n    tag_299:\n        /* \"contracts/CMBS20Demo.sol\":4510:4589  uint256 payInt = t.accruedInterest <= remaining ? t.accruedInterest : remaining */\n      swap1\n      pop\n        /* \"contracts/CMBS20Demo.sol\":4628:4634  payInt */\n      dup1\n        /* \"contracts/CMBS20Demo.sol\":4607:4608  t */\n      dup3\n        /* \"contracts/CMBS20Demo.sol\":4607:4624  t.accruedInterest */\n      0x04\n      add\n      0x00\n        /* \"contracts/CMBS20Demo.sol\":4607:4634  t.accruedInterest -= payInt */\n      dup3\n      dup3\n      sload\n      tag_300\n      swap2\n      swap1\n      tag_186\n      jump\t// in\n    tag_300:\n      swap3\n      pop\n      pop\n      dup2\n      swap1\n      sstore\n      pop\n        /* \"contracts/CMBS20Demo.sol\":4672:4678  payInt */\n      dup1\n        /* \"contracts/CMBS20Demo.sol\":4652:4653  t */\n      dup3\n        /* \"contracts/CMBS20Demo.sol\":4652:4667  t.cashAvailable */\n      0x05\n      add\n      0x00\n        /* \"contracts/CMBS20Demo.sol\":4652:4678  t.cashAvailable  += payInt */\n      dup3\n      dup3\n      sload\n      tag_301\n      swap2\n      swap1\n      tag_147\n      jump\t// in\n    tag_301:\n      swap1\n      swap2\n      sstore\n      pop\n        /* \"contracts/CMBS20Demo.sol\":4696:4722  remaining        -= payInt */\n      tag_302\n      swap1\n      pop\n        /* \"contracts/CMBS20Demo.sol\":4716:4722  payInt */\n      dup2\n        /* \"contracts/CMBS20Demo.sol\":4696:4722  remaining        -= payInt */\n      dup7\n      tag_186\n      jump\t// in\n    tag_302:\n      swap5\n      pop\n        /* \"contracts/CMBS20Demo.sol\":4741:4756  uint256 payPrin */\n      0x00\n        /* \"contracts/CMBS20Demo.sol\":4774:4783  remaining */\n      dup6\n        /* \"contracts/CMBS20Demo.sol\":4759:4760  t */\n      dup4\n        /* \"contracts/CMBS20Demo.sol\":4759:4770  t.principal */\n      0x01\n      add\n      sload\n        /* \"contracts/CMBS20Demo.sol\":4759:4783  t.principal <= remaining */\n      gt\n      iszero\n        /* \"contracts/CMBS20Demo.sol\":4759:4809  t.principal <= remaining ? t.principal : remaining */\n      tag_303\n      jumpi\n        /* \"contracts/CMBS20Demo.sol\":4800:4809  remaining */\n      dup6\n        /* \"contracts/CMBS20Demo.sol\":4759:4809  t.principal <= remaining ? t.principal : remaining */\n      jump(tag_304)\n    tag_303:\n        /* \"contracts/CMBS20Demo.sol\":4786:4787  t */\n      dup3\n        /* \"contracts/CMBS20Demo.sol\":4786:4797  t.principal */\n      0x01\n      add\n      sload\n        /* \"contracts/CMBS20Demo.sol\":4759:4809  t.principal <= remaining ? t.principal : remaining */\n    tag_304:\n        /* \"contracts/CMBS20Demo.sol\":4741:4809  uint256 payPrin = t.principal <= remaining ? t.principal : remaining */\n      swap1\n      pop\n        /* \"contracts/CMBS20Demo.sol\":4846:4853  payPrin */\n      dup1\n        /* \"contracts/CMBS20Demo.sol\":4827:4828  t */\n      dup4\n        /* \"contracts/CMBS20Demo.sol\":4827:4838  t.principal */\n      0x01\n      add\n      0x00\n        /* \"contracts/CMBS20Demo.sol\":4827:4853  t.principal     -= payPrin */\n      dup3\n      dup3\n      sload\n      tag_305\n      swap2\n      swap1\n      tag_186\n      jump\t// in\n    tag_305:\n      swap3\n      pop\n      pop\n      dup2\n      swap1\n      sstore\n      pop\n        /* \"contracts/CMBS20Demo.sol\":4890:4897  payPrin */\n      dup1\n        /* \"contracts/CMBS20Demo.sol\":4871:4872  t */\n      dup4\n        /* \"contracts/CMBS20Demo.sol\":4871:4886  t.cashAvailable */\n      0x05\n      add\n      0x00\n        /* \"contracts/CMBS20Demo.sol\":4871:4897  t.cashAvailable += payPrin */\n      dup3\n      dup3\n      sload\n      tag_306\n      swap2\n      swap1\n      tag_147\n      jump\t// in\n    tag_306:\n      swap1\n      swap2\n      sstore\n      pop\n        /* \"contracts/CMBS20Demo.sol\":4915:4941  remaining       -= payPrin */\n      tag_307\n      swap1\n      pop\n        /* \"contracts/CMBS20Demo.sol\":4934:4941  payPrin */\n      dup2\n        /* \"contracts/CMBS20Demo.sol\":4915:4941  remaining       -= payPrin */\n      dup8\n      tag_186\n      jump\t// in\n    tag_307:\n        /* \"contracts/CMBS20Demo.sol\":4965:5002  PaymentAllocated(id, payInt, payPrin) */\n      0x40\n      dup1\n      mload\n        /* \"#utility.yul\":12056:12081   */\n      dup5\n      dup2\n      mstore\n        /* \"#utility.yul\":12112:12114   */\n      0x20\n        /* \"#utility.yul\":12097:12115   */\n      dup2\n      add\n        /* \"#utility.yul\":12090:12124   */\n      dup5\n      swap1\n      mstore\n        /* \"contracts/CMBS20Demo.sol\":4915:4941  remaining       -= payPrin */\n      swap2\n      swap8\n      pop\n        /* \"contracts/CMBS20Demo.sol\":4982:4984  id */\n      dup6\n      swap2\n        /* \"contracts/CMBS20Demo.sol\":4965:5002  PaymentAllocated(id, payInt, payPrin) */\n      0xc679124717471d056fe130fb8066ce200851eec03c00256ee1158b7d2354036f\n      swap2\n        /* \"#utility.yul\":12029:12047   */\n      add\n        /* \"contracts/CMBS20Demo.sol\":4965:5002  PaymentAllocated(id, payInt, payPrin) */\n      mload(0x40)\n      dup1\n      swap2\n      sub\n      swap1\n      log2\n        /* \"contracts/CMBS20Demo.sol\":4393:5017  {... */\n      pop\n      pop\n      pop\n        /* \"contracts/CMBS20Demo.sol\":4329:5017  for (uint256 id = 0; id < nextTrancheId && remaining > 0; ++id) {... */\n    tag_295:\n        /* \"contracts/CMBS20Demo.sol\":4387:4391  ++id */\n      tag_310\n      dup2\n      tag_311\n      jump\t// in\n    tag_310:\n      swap1\n      pop\n        /* \"contracts/CMBS20Demo.sol\":4329:5017  for (uint256 id = 0; id < nextTrancheId && remaining > 0; ++id) {... */\n      jump(tag_293)\n    tag_294:\n      pop\n        /* \"contracts/CMBS20Demo.sol\":4310:4313  ++s */\n      tag_312\n      dup2\n      tag_313\n      jump\t// in\n    tag_312:\n      swap1\n      pop\n        /* \"contracts/CMBS20Demo.sol\":4266:5027  for (uint8 s = 0; s < 255 && remaining > 0; ++s) {... */\n      jump(tag_289)\n    tag_290:\n      pop\n        /* \"contracts/CMBS20Demo.sol\":5042:5091  PaymentAllocated(type(uint256).max, 0, remaining) */\n      0x40\n      dup1\n      mload\n        /* \"contracts/CMBS20Demo.sol\":5078:5079  0 */\n      0x00\n        /* \"#utility.yul\":12056:12081   */\n      dup2\n      mstore\n        /* \"#utility.yul\":12112:12114   */\n      0x20\n        /* \"#utility.yul\":12097:12115   */\n      dup2\n      add\n        /* \"#utility.yul\":12090:12124   */\n      dup4\n      swap1\n      mstore\n      not(0x00)\n        /* \"contracts/CMBS20Demo.sol\":5059:5076  type(uint256).max */\n      swap2\n        /* \"contracts/CMBS20Demo.sol\":5042:5091  PaymentAllocated(type(uint256).max, 0, remaining) */\n      0xc679124717471d056fe130fb8066ce200851eec03c00256ee1158b7d2354036f\n      swap2\n        /* \"#utility.yul\":12029:12047   */\n      add\n        /* \"contracts/CMBS20Demo.sol\":5042:5091  PaymentAllocated(type(uint256).max, 0, remaining) */\n      mload(0x40)\n      dup1\n      swap2\n      sub\n      swap1\n      log2\n        /* \"contracts/CMBS20Demo.sol\":4096:5115  {... */\n      pop\n        /* \"@openzeppelin/contracts/utils/Pausable.sol\":1379:1380  _ */\n      pop\n        /* \"contracts/CMBS20Demo.sol\":3975:5115  function depositAndDistribute(uint256 amount)... */\n      pop\n      jump\t// out\n        /* \"@openzeppelin/contracts/access/AccessControl.sol\":4642:4780  function revokeRole(bytes32 role, address account) public virtual onlyRole(getRoleAdmin(role)) {... */\n    tag_119:\n        /* \"@openzeppelin/contracts/access/AccessControl.sol\":3875:3882  bytes32 */\n      0x00\n        /* \"@openzeppelin/contracts/access/AccessControl.sol\":3901:3913  _roles[role] */\n      dup3\n      dup2\n      mstore\n      0x20\n      dup2\n      swap1\n      mstore\n      0x40\n      swap1\n      keccak256\n        /* \"@openzeppelin/contracts/access/AccessControl.sol\":3901:3923  _roles[role].adminRole */\n      0x01\n      add\n      sload\n        /* \"@openzeppelin/contracts/access/AccessControl.sol\":2464:2480  _checkRole(role) */\n      tag_318\n        /* \"@openzeppelin/contracts/access/AccessControl.sol\":2475:2479  role */\n      dup2\n        /* \"@openzeppelin/contracts/access/AccessControl.sol\":2464:2474  _checkRole */\n      tag_152\n        /* \"@openzeppelin/contracts/access/AccessControl.sol\":2464:2480  _checkRole(role) */\n      jump\t// in\n    tag_318:\n        /* \"@openzeppelin/contracts/access/AccessControl.sol\":4747:4773  _revokeRole(role, account) */\n      tag_154\n        /* \"@openzeppelin/contracts/access/AccessControl.sol\":4759:4763  role */\n      dup4\n        /* \"@openzeppelin/contracts/access/AccessControl.sol\":4765:4772  account */\n      dup4\n        /* \"@openzeppelin/contracts/access/AccessControl.sol\":4747:4758  _revokeRole */\n      tag_161\n        /* \"@openzeppelin/contracts/access/AccessControl.sol\":4747:4773  _revokeRole(role, account) */\n      jump\t// in\n        /* \"contracts/CMBS20Demo.sol\":651:668  string public uri */\n    tag_121:\n      0x02\n      dup1\n      sload\n      tag_321\n      swap1\n      tag_322\n      jump\t// in\n    tag_321:\n      dup1\n      0x1f\n      add\n      0x20\n      dup1\n      swap2\n      div\n      mul\n      0x20\n      add\n      mload(0x40)\n      swap1\n      dup2\n      add\n      0x40\n      mstore\n      dup1\n      swap3\n      swap2\n      swap1\n      dup2\n      dup2\n      mstore\n      0x20\n      add\n      dup3\n      dup1\n      sload\n      tag_323\n      swap1\n      tag_322\n      jump\t// in\n    tag_323:\n      dup1\n      iszero\n      tag_324\n      jumpi\n      dup1\n      0x1f\n      lt\n      tag_325\n      jumpi\n      0x0100\n      dup1\n      dup4\n      sload\n      div\n      mul\n      dup4\n      mstore\n      swap2\n      0x20\n      add\n      swap2\n      jump(tag_324)\n    tag_325:\n      dup3\n      add\n      swap2\n      swap1\n      0x00\n      mstore\n      keccak256(0x00, 0x20)\n      swap1\n    tag_326:\n      dup2\n      sload\n      dup2\n      mstore\n      swap1\n      0x01\n      add\n      swap1\n      0x20\n      add\n      dup1\n      dup4\n      gt\n      tag_326\n      jumpi\n      dup3\n      swap1\n      sub\n      0x1f\n      and\n      dup3\n      add\n      swap2\n    tag_324:\n      pop\n      pop\n      pop\n      pop\n      pop\n      dup2\n      jump\t// out\n        /* \"contracts/CMBS20Demo.sol\":3358:3813  function _accrueAllInterest() internal {... */\n    tag_140:\n        /* \"contracts/CMBS20Demo.sol\":3407:3417  uint256 dt */\n      0x00\n        /* \"contracts/CMBS20Demo.sol\":3438:3449  lastAccrual */\n      sload(0x04)\n        /* \"contracts/CMBS20Demo.sol\":3420:3435  block.timestamp */\n      timestamp\n        /* \"contracts/CMBS20Demo.sol\":3420:3449  block.timestamp - lastAccrual */\n      tag_329\n      swap2\n      swap1\n      tag_186\n      jump\t// in\n    tag_329:\n        /* \"contracts/CMBS20Demo.sol\":3407:3449  uint256 dt = block.timestamp - lastAccrual */\n      swap1\n      pop\n        /* \"contracts/CMBS20Demo.sol\":3463:3465  dt */\n      dup1\n        /* \"contracts/CMBS20Demo.sol\":3469:3470  0 */\n      0x00\n        /* \"contracts/CMBS20Demo.sol\":3463:3470  dt == 0 */\n      sub\n        /* \"contracts/CMBS20Demo.sol\":3459:3479  if (dt == 0) return; */\n      tag_330\n      jumpi\n        /* \"contracts/CMBS20Demo.sol\":3472:3479  return; */\n      pop\n        /* \"contracts/CMBS20Demo.sol\":3358:3813  function _accrueAllInterest() internal {... */\n      jump\t// out\n        /* \"contracts/CMBS20Demo.sol\":3459:3479  if (dt == 0) return; */\n    tag_330:\n        /* \"contracts/CMBS20Demo.sol\":3502:3517  block.timestamp */\n      timestamp\n        /* \"contracts/CMBS20Demo.sol\":3488:3499  lastAccrual */\n      0x04\n        /* \"contracts/CMBS20Demo.sol\":3488:3517  lastAccrual = block.timestamp */\n      sstore\n        /* \"contracts/CMBS20Demo.sol\":3534:3544  uint256 id */\n      0x00\n        /* \"contracts/CMBS20Demo.sol\":3529:3807  for (uint256 id = 0; id < nextTrancheId; ++id) {... */\n    tag_331:\n        /* \"contracts/CMBS20Demo.sol\":3555:3568  nextTrancheId */\n      sload(0x03)\n        /* \"contracts/CMBS20Demo.sol\":3550:3552  id */\n      dup2\n        /* \"contracts/CMBS20Demo.sol\":3550:3568  id < nextTrancheId */\n      lt\n        /* \"contracts/CMBS20Demo.sol\":3529:3807  for (uint256 id = 0; id < nextTrancheId; ++id) {... */\n      iszero\n      tag_332\n      jumpi\n        /* \"contracts/CMBS20Demo.sol\":3590:3607  Tranche storage t */\n      0x00\n        /* \"contracts/CMBS20Demo.sol\":3610:3622  tranches[id] */\n      dup2\n      dup2\n      mstore\n        /* \"contracts/CMBS20Demo.sol\":3610:3618  tranches */\n      0x05\n        /* \"contracts/CMBS20Demo.sol\":3610:3622  tranches[id] */\n      0x20\n      mstore\n      0x40\n      dup2\n      keccak256\n        /* \"contracts/CMBS20Demo.sol\":3640:3651  t.principal */\n      0x01\n      dup2\n      add\n      sload\n        /* \"contracts/CMBS20Demo.sol\":3610:3622  tranches[id] */\n      swap1\n      swap2\n        /* \"contracts/CMBS20Demo.sol\":3640:3656  t.principal == 0 */\n      sub\n        /* \"contracts/CMBS20Demo.sol\":3636:3666  if (t.principal == 0) continue */\n      tag_334\n      jumpi\n        /* \"contracts/CMBS20Demo.sol\":3658:3666  continue */\n      pop\n      jump(tag_333)\n        /* \"contracts/CMBS20Demo.sol\":3636:3666  if (t.principal == 0) continue */\n    tag_334:\n        /* \"contracts/CMBS20Demo.sol\":3680:3696  uint256 interest */\n      0x00\n        /* \"contracts/CMBS20Demo.sol\":3735:3752  365 days * 10_000 */\n      0x496cebb800\n        /* \"contracts/CMBS20Demo.sol\":3728:3730  dt */\n      dup5\n        /* \"contracts/CMBS20Demo.sol\":3714:3715  t */\n      dup4\n        /* \"contracts/CMBS20Demo.sol\":3714:3725  t.couponBps */\n      0x02\n      add\n      sload\n        /* \"contracts/CMBS20Demo.sol\":3700:3701  t */\n      dup5\n        /* \"contracts/CMBS20Demo.sol\":3700:3711  t.principal */\n      0x01\n      add\n      sload\n        /* \"contracts/CMBS20Demo.sol\":3700:3725  t.principal * t.couponBps */\n      tag_335\n      swap2\n      swap1\n      tag_182\n      jump\t// in\n    tag_335:\n        /* \"contracts/CMBS20Demo.sol\":3700:3730  t.principal * t.couponBps * dt */\n      tag_336\n      swap2\n      swap1\n      tag_182\n      jump\t// in\n    tag_336:\n        /* \"contracts/CMBS20Demo.sol\":3699:3753  (t.principal * t.couponBps * dt) / (365 days * 10_000) */\n      tag_337\n      swap2\n      swap1\n      tag_184\n      jump\t// in\n    tag_337:\n        /* \"contracts/CMBS20Demo.sol\":3680:3753  uint256 interest = (t.principal * t.couponBps * dt) / (365 days * 10_000) */\n      swap1\n      pop\n        /* \"contracts/CMBS20Demo.sol\":3788:3796  interest */\n      dup1\n        /* \"contracts/CMBS20Demo.sol\":3767:3768  t */\n      dup3\n        /* \"contracts/CMBS20Demo.sol\":3767:3784  t.accruedInterest */\n      0x04\n      add\n      0x00\n        /* \"contracts/CMBS20Demo.sol\":3767:3796  t.accruedInterest += interest */\n      dup3\n      dup3\n      sload\n      tag_338\n      swap2\n      swap1\n      tag_147\n      jump\t// in\n    tag_338:\n      swap1\n      swap2\n      sstore\n      pop\n      pop\n      pop\n      pop\n        /* \"contracts/CMBS20Demo.sol\":3529:3807  for (uint256 id = 0; id < nextTrancheId; ++id) {... */\n    tag_333:\n        /* \"contracts/CMBS20Demo.sol\":3570:3574  ++id */\n      0x01\n      add\n        /* \"contracts/CMBS20Demo.sol\":3529:3807  for (uint256 id = 0; id < nextTrancheId; ++id) {... */\n      jump(tag_331)\n    tag_332:\n      pop\n        /* \"contracts/CMBS20Demo.sol\":3397:3813  {... */\n      pop\n        /* \"contracts/CMBS20Demo.sol\":3358:3813  function _accrueAllInterest() internal {... */\n      jump\t// out\n        /* \"@openzeppelin/contracts/access/AccessControl.sol\":3199:3302  function _checkRole(bytes32 role) internal view virtual {... */\n    tag_152:\n        /* \"@openzeppelin/contracts/access/AccessControl.sol\":3265:3295  _checkRole(role, _msgSender()) */\n      tag_165\n        /* \"@openzeppelin/contracts/access/AccessControl.sol\":3276:3280  role */\n      dup2\n        /* \"@openzeppelin/contracts/utils/Context.sol\":735:745  msg.sender */\n      caller\n        /* \"@openzeppelin/contracts/access/AccessControl.sol\":3265:3275  _checkRole */\n      tag_342\n        /* \"@openzeppelin/contracts/access/AccessControl.sol\":3265:3295  _checkRole(role, _msgSender()) */\n      jump\t// in\n        /* \"@openzeppelin/contracts/access/AccessControl.sol\":6179:6495  function _grantRole(bytes32 role, address account) internal virtual returns (bool) {... */\n    tag_155:\n        /* \"@openzeppelin/contracts/access/AccessControl.sol\":6256:6260  bool */\n      0x00\n        /* \"@openzeppelin/contracts/access/AccessControl.sol\":2954:2966  _roles[role] */\n      dup3\n      dup2\n      mstore\n      0x20\n      dup2\n      dup2\n      mstore\n      0x40\n      dup1\n      dup4\n      keccak256\n      sub(shl(0xa0, 0x01), 0x01)\n        /* \"@openzeppelin/contracts/access/AccessControl.sol\":2954:2983  _roles[role].hasRole[account] */\n      dup6\n      and\n      dup5\n      mstore\n      swap1\n      swap2\n      mstore\n      dup2\n      keccak256\n      sload\n      0xff\n      and\n        /* \"@openzeppelin/contracts/access/AccessControl.sol\":6272:6489  if (!hasRole(role, account)) {... */\n      tag_345\n      jumpi\n        /* \"@openzeppelin/contracts/access/AccessControl.sol\":6315:6321  _roles */\n      0x00\n        /* \"@openzeppelin/contracts/access/AccessControl.sol\":6315:6327  _roles[role] */\n      dup4\n      dup2\n      mstore\n      0x20\n      dup2\n      dup2\n      mstore\n      0x40\n      dup1\n      dup4\n      keccak256\n      sub(shl(0xa0, 0x01), 0x01)\n        /* \"@openzeppelin/contracts/access/AccessControl.sol\":6315:6344  _roles[role].hasRole[account] */\n      dup7\n      and\n      dup5\n      mstore\n      swap1\n      swap2\n      mstore\n      swap1\n      keccak256\n        /* \"@openzeppelin/contracts/access/AccessControl.sol\":6315:6351  _roles[role].hasRole[account] = true */\n      dup1\n      sload\n      not(0xff)\n      and\n        /* \"@openzeppelin/contracts/access/AccessControl.sol\":6347:6351  true */\n      0x01\n        /* \"@openzeppelin/contracts/access/AccessControl.sol\":6315:6351  _roles[role].hasRole[account] = true */\n      or\n      swap1\n      sstore\n        /* \"@openzeppelin/contracts/access/AccessControl.sol\":6397:6409  _msgSender() */\n      tag_346\n        /* \"@openzeppelin/contracts/utils/Context.sol\":735:745  msg.sender */\n      caller\n      swap1\n        /* \"@openzeppelin/contracts/utils/Context.sol\":656:752  function _msgSender() internal view virtual returns (address) {... */\n      jump\n        /* \"@openzeppelin/contracts/access/AccessControl.sol\":6397:6409  _msgSender() */\n    tag_346:\n      sub(shl(0xa0, 0x01), 0x01)\n        /* \"@openzeppelin/contracts/access/AccessControl.sol\":6370:6410  RoleGranted(role, account, _msgSender()) */\n      and\n        /* \"@openzeppelin/contracts/access/AccessControl.sol\":6388:6395  account */\n      dup3\n      sub(shl(0xa0, 0x01), 0x01)\n        /* \"@openzeppelin/contracts/access/AccessControl.sol\":6370:6410  RoleGranted(role, account, _msgSender()) */\n      and\n        /* \"@openzeppelin/contracts/access/AccessControl.sol\":6382:6386  role */\n      dup5\n        /* \"@openzeppelin/contracts/access/AccessControl.sol\":6370:6410  RoleGranted(role, account, _msgSender()) */\n      0x2f8788117e7eff1d82e926ec794901d17c78024a50270940304540a733656f0d\n      mload(0x40)\n      mload(0x40)\n      dup1\n      swap2\n      sub\n      swap1\n      log4\n      pop\n        /* \"@openzeppelin/contracts/access/AccessControl.sol\":6431:6435  true */\n      0x01\n        /* \"@openzeppelin/contracts/access/AccessControl.sol\":6424:6435  return true */\n      jump(tag_127)\n        /* \"@openzeppelin/contracts/access/AccessControl.sol\":6272:6489  if (!hasRole(role, account)) {... */\n    tag_345:\n      pop\n        /* \"@openzeppelin/contracts/access/AccessControl.sol\":6473:6478  false */\n      0x00\n        /* \"@openzeppelin/contracts/access/AccessControl.sol\":6466:6478  return false */\n      jump(tag_127)\n        /* \"@openzeppelin/contracts/access/AccessControl.sol\":6732:7049  function _revokeRole(bytes32 role, address account) internal virtual returns (bool) {... */\n    tag_161:\n        /* \"@openzeppelin/contracts/access/AccessControl.sol\":6810:6814  bool */\n      0x00\n        /* \"@openzeppelin/contracts/access/AccessControl.sol\":2954:2966  _roles[role] */\n      dup3\n      dup2\n      mstore\n      0x20\n      dup2\n      dup2\n      mstore\n      0x40\n      dup1\n      dup4\n      keccak256\n      sub(shl(0xa0, 0x01), 0x01)\n        /* \"@openzeppelin/contracts/access/AccessControl.sol\":2954:2983  _roles[role].hasRole[account] */\n      dup6\n      and\n      dup5\n      mstore\n      swap1\n      swap2\n      mstore\n      dup2\n      keccak256\n      sload\n      0xff\n      and\n        /* \"@openzeppelin/contracts/access/AccessControl.sol\":6826:7043  if (hasRole(role, account)) {... */\n      iszero\n      tag_345\n      jumpi\n        /* \"@openzeppelin/contracts/access/AccessControl.sol\":6900:6905  false */\n      0x00\n        /* \"@openzeppelin/contracts/access/AccessControl.sol\":6868:6880  _roles[role] */\n      dup4\n      dup2\n      mstore\n      0x20\n      dup2\n      dup2\n      mstore\n      0x40\n      dup1\n      dup4\n      keccak256\n      sub(shl(0xa0, 0x01), 0x01)\n        /* \"@openzeppelin/contracts/access/AccessControl.sol\":6868:6897  _roles[role].hasRole[account] */\n      dup7\n      and\n      dup1\n      dup6\n      mstore\n      swap3\n      mstore\n      dup1\n      dup4\n      keccak256\n        /* \"@openzeppelin/contracts/access/AccessControl.sol\":6868:6905  _roles[role].hasRole[account] = false */\n      dup1\n      sload\n      not(0xff)\n      and\n      swap1\n      sstore\n        /* \"@openzeppelin/contracts/access/AccessControl.sol\":6924:6964  RoleRevoked(role, account, _msgSender()) */\n      mload\n        /* \"@openzeppelin/contracts/utils/Context.sol\":735:745  msg.sender */\n      caller\n      swap3\n        /* \"@openzeppelin/contracts/access/AccessControl.sol\":6868:6880  _roles[role] */\n      dup7\n      swap2\n        /* \"@openzeppelin/contracts/access/AccessControl.sol\":6924:6964  RoleRevoked(role, account, _msgSender()) */\n      0xf6391f5c32d9c69d2a47ea670b442974b53935d1edc7fd64eb21e047a839171b\n      swap2\n        /* \"@openzeppelin/contracts/access/AccessControl.sol\":6900:6905  false */\n      swap1\n        /* \"@openzeppelin/contracts/access/AccessControl.sol\":6924:6964  RoleRevoked(role, account, _msgSender()) */\n      log4\n      pop\n        /* \"@openzeppelin/contracts/access/AccessControl.sol\":6985:6989  true */\n      0x01\n        /* \"@openzeppelin/contracts/access/AccessControl.sol\":6978:6989  return true */\n      jump(tag_127)\n        /* \"@openzeppelin/contracts/utils/Pausable.sol\":2586:2703  function _unpause() internal virtual whenPaused {... */\n    tag_166:\n        /* \"@openzeppelin/contracts/utils/Pausable.sol\":1597:1613  _requirePaused() */\n      tag_355\n        /* \"@openzeppelin/contracts/utils/Pausable.sol\":1597:1611  _requirePaused */\n      tag_356\n        /* \"@openzeppelin/contracts/utils/Pausable.sol\":1597:1613  _requirePaused() */\n      jump\t// in\n    tag_355:\n        /* \"@openzeppelin/contracts/utils/Pausable.sol\":2644:2651  _paused */\n      0x01\n        /* \"@openzeppelin/contracts/utils/Pausable.sol\":2644:2659  _paused = false */\n      dup1\n      sload\n      not(0xff)\n      and\n      swap1\n      sstore\n        /* \"@openzeppelin/contracts/utils/Pausable.sol\":2674:2696  Unpaused(_msgSender()) */\n      0x5db9ee0a495bf2e6ff9c91a7834c1ba4fdd244a5e8aa4e537bd38aeae4b073aa\n        /* \"@openzeppelin/contracts/utils/Context.sol\":735:745  msg.sender */\n      caller\n        /* \"@openzeppelin/contracts/utils/Pausable.sol\":2683:2695  _msgSender() */\n    tag_358:\n        /* \"@openzeppelin/contracts/utils/Pausable.sol\":2674:2696  Unpaused(_msgSender()) */\n      mload(0x40)\n      sub(shl(0xa0, 0x01), 0x01)\n        /* \"#utility.yul\":1565:1620   */\n      swap1\n      swap2\n      and\n        /* \"#utility.yul\":1547:1621   */\n      dup2\n      mstore\n        /* \"#utility.yul\":1535:1537   */\n      0x20\n        /* \"#utility.yul\":1520:1538   */\n      add\n        /* \"@openzeppelin/contracts/utils/Pausable.sol\":2674:2696  Unpaused(_msgSender()) */\n      mload(0x40)\n      dup1\n      swap2\n      sub\n      swap1\n      log1\n        /* \"@openzeppelin/contracts/utils/Pausable.sol\":2586:2703  function _unpause() internal virtual whenPaused {... */\n      jump\t// out\n        /* \"@openzeppelin/contracts/utils/Pausable.sol\":1878:2006  function _requireNotPaused() internal view virtual {... */\n    tag_169:\n        /* \"@openzeppelin/contracts/utils/Pausable.sol\":1796:1803  _paused */\n      and(0xff, sload(0x01))\n        /* \"@openzeppelin/contracts/utils/Pausable.sol\":1939:2000  if (paused()) {... */\n      iszero\n      tag_139\n      jumpi\n        /* \"@openzeppelin/contracts/utils/Pausable.sol\":1974:1989  EnforcedPause() */\n      mload(0x40)\n      0xd93c066500000000000000000000000000000000000000000000000000000000\n      dup2\n      mstore\n      0x04\n      add\n      mload(0x40)\n      dup1\n      swap2\n      sub\n      swap1\n      revert\n        /* \"@openzeppelin/contracts/utils/Pausable.sol\":2339:2454  function _pause() internal virtual whenNotPaused {... */\n    tag_216:\n        /* \"@openzeppelin/contracts/utils/Pausable.sol\":1350:1369  _requireNotPaused() */\n      tag_364\n        /* \"@openzeppelin/contracts/utils/Pausable.sol\":1350:1367  _requireNotPaused */\n      tag_169\n        /* \"@openzeppelin/contracts/utils/Pausable.sol\":1350:1369  _requireNotPaused() */\n      jump\t// in\n    tag_364:\n        /* \"@openzeppelin/contracts/utils/Pausable.sol\":2408:2412  true */\n      0x01\n        /* \"@openzeppelin/contracts/utils/Pausable.sol\":2398:2412  _paused = true */\n      dup1\n      sload\n      not(0xff)\n      and\n      dup2\n      or\n      swap1\n      sstore\n        /* \"@openzeppelin/contracts/utils/Pausable.sol\":2427:2447  Paused(_msgSender()) */\n      0x62e78cea01bee320cd4e420270b5ea74000d11b0c9f74754ebdbfc544b05a258\n        /* \"@openzeppelin/contracts/utils/Context.sol\":735:745  msg.sender */\n      caller\n        /* \"@openzeppelin/contracts/utils/Pausable.sol\":2434:2446  _msgSender() */\n      tag_358\n        /* \"@openzeppelin/contracts/utils/Context.sol\":656:752  function _msgSender() internal view virtual returns (address) {... */\n      jump\n        /* \"contracts/CMBS20Demo.sol\":2954:3129  function _totalAmount(uint256[] memory arr) internal pure returns (uint256 sum) {... */\n    tag_224:\n        /* \"contracts/CMBS20Demo.sol\":3021:3032  uint256 sum */\n      0x00\n      dup1\n        /* \"contracts/CMBS20Demo.sol\":3044:3123  for (uint256 i = 0; i < arr.length; ++i) {... */\n    tag_369:\n        /* \"contracts/CMBS20Demo.sol\":3068:3071  arr */\n      dup3\n        /* \"contracts/CMBS20Demo.sol\":3068:3078  arr.length */\n      mload\n        /* \"contracts/CMBS20Demo.sol\":3064:3065  i */\n      dup2\n        /* \"contracts/CMBS20Demo.sol\":3064:3078  i < arr.length */\n      lt\n        /* \"contracts/CMBS20Demo.sol\":3044:3123  for (uint256 i = 0; i < arr.length; ++i) {... */\n      iszero\n      tag_370\n      jumpi\n        /* \"contracts/CMBS20Demo.sol\":3106:3109  arr */\n      dup3\n        /* \"contracts/CMBS20Demo.sol\":3110:3111  i */\n      dup2\n        /* \"contracts/CMBS20Demo.sol\":3106:3112  arr[i] */\n      dup2\n      mload\n      dup2\n      lt\n      tag_373\n      jumpi\n      tag_373\n      tag_237\n      jump\t// in\n    tag_373:\n      0x20\n      mul\n      0x20\n      add\n      add\n      mload\n        /* \"contracts/CMBS20Demo.sol\":3099:3112  sum += arr[i] */\n      dup3\n      tag_374\n      swap2\n      swap1\n      tag_147\n      jump\t// in\n    tag_374:\n      swap2\n      pop\n        /* \"contracts/CMBS20Demo.sol\":3080:3083  ++i */\n      0x01\n      add\n        /* \"contracts/CMBS20Demo.sol\":3044:3123  for (uint256 i = 0; i < arr.length; ++i) {... */\n      jump(tag_369)\n    tag_370:\n      pop\n        /* \"contracts/CMBS20Demo.sol\":2954:3129  function _totalAmount(uint256[] memory arr) internal pure returns (uint256 sum) {... */\n      swap2\n      swap1\n      pop\n      jump\t// out\n        /* \"@openzeppelin/contracts/access/AccessControl.sol\":3432:3629  function _checkRole(bytes32 role, address account) internal view virtual {... */\n    tag_342:\n        /* \"@openzeppelin/contracts/access/AccessControl.sol\":2931:2935  bool */\n      0x00\n        /* \"@openzeppelin/contracts/access/AccessControl.sol\":2954:2966  _roles[role] */\n      dup3\n      dup2\n      mstore\n      0x20\n      dup2\n      dup2\n      mstore\n      0x40\n      dup1\n      dup4\n      keccak256\n      sub(shl(0xa0, 0x01), 0x01)\n        /* \"@openzeppelin/contracts/access/AccessControl.sol\":2954:2983  _roles[role].hasRole[account] */\n      dup6\n      and\n      dup5\n      mstore\n      swap1\n      swap2\n      mstore\n      swap1\n      keccak256\n      sload\n      0xff\n      and\n        /* \"@openzeppelin/contracts/access/AccessControl.sol\":3515:3623  if (!hasRole(role, account)) {... */\n      tag_332\n      jumpi\n        /* \"@openzeppelin/contracts/access/AccessControl.sol\":3565:3612  AccessControlUnauthorizedAccount(account, role) */\n      mload(0x40)\n      0xe2517d3f00000000000000000000000000000000000000000000000000000000\n      dup2\n      mstore\n      sub(shl(0xa0, 0x01), 0x01)\n        /* \"#utility.yul\":7468:7523   */\n      dup3\n      and\n        /* \"@openzeppelin/contracts/access/AccessControl.sol\":3565:3612  AccessControlUnauthorizedAccount(account, role) */\n      0x04\n      dup3\n      add\n        /* \"#utility.yul\":7450:7524   */\n      mstore\n        /* \"#utility.yul\":7540:7558   */\n      0x24\n      dup2\n      add\n        /* \"#utility.yul\":7533:7567   */\n      dup4\n      swap1\n      mstore\n        /* \"#utility.yul\":7423:7441   */\n      0x44\n      add\n        /* \"@openzeppelin/contracts/access/AccessControl.sol\":3565:3612  AccessControlUnauthorizedAccount(account, role) */\n      tag_176\n        /* \"#utility.yul\":7276:7573   */\n      jump\n        /* \"@openzeppelin/contracts/utils/Pausable.sol\":2078:2204  function _requirePaused() internal view virtual {... */\n    tag_356:\n        /* \"@openzeppelin/contracts/utils/Pausable.sol\":1796:1803  _paused */\n      and(0xff, sload(0x01))\n        /* \"@openzeppelin/contracts/utils/Pausable.sol\":2136:2198  if (!paused()) {... */\n      tag_139\n      jumpi\n        /* \"@openzeppelin/contracts/utils/Pausable.sol\":2172:2187  ExpectedPause() */\n      mload(0x40)\n      0x8dfc202b00000000000000000000000000000000000000000000000000000000\n      dup2\n      mstore\n      0x04\n      add\n      mload(0x40)\n      dup1\n      swap2\n      sub\n      swap1\n      revert\n        /* \"#utility.yul\":14:168   */\n    tag_383:\n      sub(shl(0xa0, 0x01), 0x01)\n        /* \"#utility.yul\":93:98   */\n      dup2\n        /* \"#utility.yul\":89:143   */\n      and\n        /* \"#utility.yul\":82:87   */\n      dup2\n        /* \"#utility.yul\":79:144   */\n      eq\n        /* \"#utility.yul\":69:162   */\n      tag_165\n      jumpi\n        /* \"#utility.yul\":158:159   */\n      0x00\n        /* \"#utility.yul\":155:156   */\n      dup1\n        /* \"#utility.yul\":148:160   */\n      revert\n        /* \"#utility.yul\":173:488   */\n    tag_37:\n        /* \"#utility.yul\":241:247   */\n      0x00\n        /* \"#utility.yul\":249:255   */\n      dup1\n        /* \"#utility.yul\":302:304   */\n      0x40\n        /* \"#utility.yul\":290:299   */\n      dup4\n        /* \"#utility.yul\":281:288   */\n      dup6\n        /* \"#utility.yul\":277:300   */\n      sub\n        /* \"#utility.yul\":273:305   */\n      slt\n        /* \"#utility.yul\":270:322   */\n      iszero\n      tag_390\n      jumpi\n        /* \"#utility.yul\":318:319   */\n      0x00\n        /* \"#utility.yul\":315:316   */\n      dup1\n        /* \"#utility.yul\":308:320   */\n      revert\n        /* \"#utility.yul\":270:322   */\n    tag_390:\n        /* \"#utility.yul\":357:366   */\n      dup3\n        /* \"#utility.yul\":344:367   */\n      calldataload\n        /* \"#utility.yul\":376:407   */\n      tag_391\n        /* \"#utility.yul\":401:406   */\n      dup2\n        /* \"#utility.yul\":376:407   */\n      tag_383\n      jump\t// in\n    tag_391:\n        /* \"#utility.yul\":426:431   */\n      swap5\n        /* \"#utility.yul\":478:480   */\n      0x20\n        /* \"#utility.yul\":463:481   */\n      swap4\n      swap1\n      swap4\n      add\n        /* \"#utility.yul\":450:482   */\n      calldataload\n      swap4\n      pop\n      pop\n      pop\n        /* \"#utility.yul\":173:488   */\n      jump\t// out\n        /* \"#utility.yul\":675:1007   */\n    tag_43:\n        /* \"#utility.yul\":733:739   */\n      0x00\n        /* \"#utility.yul\":786:788   */\n      0x20\n        /* \"#utility.yul\":774:783   */\n      dup3\n        /* \"#utility.yul\":765:772   */\n      dup5\n        /* \"#utility.yul\":761:784   */\n      sub\n        /* \"#utility.yul\":757:789   */\n      slt\n        /* \"#utility.yul\":754:806   */\n      iszero\n      tag_394\n      jumpi\n        /* \"#utility.yul\":802:803   */\n      0x00\n        /* \"#utility.yul\":799:800   */\n      dup1\n        /* \"#utility.yul\":792:804   */\n      revert\n        /* \"#utility.yul\":754:806   */\n    tag_394:\n        /* \"#utility.yul\":841:850   */\n      dup2\n        /* \"#utility.yul\":828:851   */\n      calldataload\n      not(sub(shl(0xe0, 0x01), 0x01))\n        /* \"#utility.yul\":884:889   */\n      dup2\n        /* \"#utility.yul\":880:958   */\n      and\n        /* \"#utility.yul\":873:878   */\n      dup2\n        /* \"#utility.yul\":870:959   */\n      eq\n        /* \"#utility.yul\":860:977   */\n      tag_395\n      jumpi\n        /* \"#utility.yul\":973:974   */\n      0x00\n        /* \"#utility.yul\":970:971   */\n      dup1\n        /* \"#utility.yul\":963:975   */\n      revert\n        /* \"#utility.yul\":860:977   */\n    tag_395:\n        /* \"#utility.yul\":996:1001   */\n      swap4\n        /* \"#utility.yul\":675:1007   */\n      swap3\n      pop\n      pop\n      pop\n      jump\t// out\n        /* \"#utility.yul\":1632:1812   */\n    tag_62:\n        /* \"#utility.yul\":1691:1697   */\n      0x00\n        /* \"#utility.yul\":1744:1746   */\n      0x20\n        /* \"#utility.yul\":1732:1741   */\n      dup3\n        /* \"#utility.yul\":1723:1730   */\n      dup5\n        /* \"#utility.yul\":1719:1742   */\n      sub\n        /* \"#utility.yul\":1715:1747   */\n      slt\n        /* \"#utility.yul\":1712:1764   */\n      iszero\n      tag_400\n      jumpi\n        /* \"#utility.yul\":1760:1761   */\n      0x00\n        /* \"#utility.yul\":1757:1758   */\n      dup1\n        /* \"#utility.yul\":1750:1762   */\n      revert\n        /* \"#utility.yul\":1712:1764   */\n    tag_400:\n      pop\n        /* \"#utility.yul\":1783:1806   */\n      calldataload\n      swap2\n        /* \"#utility.yul\":1632:1812   */\n      swap1\n      pop\n      jump\t// out\n        /* \"#utility.yul\":2619:2934   */\n    tag_73:\n        /* \"#utility.yul\":2687:2693   */\n      0x00\n        /* \"#utility.yul\":2695:2701   */\n      dup1\n        /* \"#utility.yul\":2748:2750   */\n      0x40\n        /* \"#utility.yul\":2736:2745   */\n      dup4\n        /* \"#utility.yul\":2727:2734   */\n      dup6\n        /* \"#utility.yul\":2723:2746   */\n      sub\n        /* \"#utility.yul\":2719:2751   */\n      slt\n        /* \"#utility.yul\":2716:2768   */\n      iszero\n      tag_405\n      jumpi\n        /* \"#utility.yul\":2764:2765   */\n      0x00\n        /* \"#utility.yul\":2761:2762   */\n      dup1\n        /* \"#utility.yul\":2754:2766   */\n      revert\n        /* \"#utility.yul\":2716:2768   */\n    tag_405:\n        /* \"#utility.yul\":2800:2809   */\n      dup3\n        /* \"#utility.yul\":2787:2810   */\n      calldataload\n        /* \"#utility.yul\":2777:2810   */\n      swap2\n      pop\n        /* \"#utility.yul\":2860:2862   */\n      0x20\n        /* \"#utility.yul\":2849:2858   */\n      dup4\n        /* \"#utility.yul\":2845:2863   */\n      add\n        /* \"#utility.yul\":2832:2864   */\n      calldataload\n        /* \"#utility.yul\":2873:2904   */\n      tag_406\n        /* \"#utility.yul\":2898:2903   */\n      dup2\n        /* \"#utility.yul\":2873:2904   */\n      tag_383\n      jump\t// in\n    tag_406:\n        /* \"#utility.yul\":2923:2928   */\n      dup1\n        /* \"#utility.yul\":2913:2928   */\n      swap2\n      pop\n      pop\n        /* \"#utility.yul\":2619:2934   */\n      swap3\n      pop\n      swap3\n      swap1\n      pop\n      jump\t// out\n        /* \"#utility.yul\":2939:3187   */\n    tag_82:\n        /* \"#utility.yul\":3007:3013   */\n      0x00\n        /* \"#utility.yul\":3015:3021   */\n      dup1\n        /* \"#utility.yul\":3068:3070   */\n      0x40\n        /* \"#utility.yul\":3056:3065   */\n      dup4\n        /* \"#utility.yul\":3047:3054   */\n      dup6\n        /* \"#utility.yul\":3043:3066   */\n      sub\n        /* \"#utility.yul\":3039:3071   */\n      slt\n        /* \"#utility.yul\":3036:3088   */\n      iszero\n      tag_408\n      jumpi\n        /* \"#utility.yul\":3084:3085   */\n      0x00\n        /* \"#utility.yul\":3081:3082   */\n      dup1\n        /* \"#utility.yul\":3074:3086   */\n      revert\n        /* \"#utility.yul\":3036:3088   */\n    tag_408:\n      pop\n      pop\n        /* \"#utility.yul\":3107:3130   */\n      dup1\n      calldataload\n      swap3\n        /* \"#utility.yul\":3177:3179   */\n      0x20\n        /* \"#utility.yul\":3162:3180   */\n      swap1\n      swap2\n      add\n        /* \"#utility.yul\":3149:3181   */\n      calldataload\n      swap2\n      pop\n        /* \"#utility.yul\":2939:3187   */\n      jump\t// out\n        /* \"#utility.yul\":3192:3559   */\n    tag_384:\n        /* \"#utility.yul\":3255:3263   */\n      0x00\n        /* \"#utility.yul\":3265:3271   */\n      dup1\n        /* \"#utility.yul\":3319:3322   */\n      dup4\n        /* \"#utility.yul\":3312:3316   */\n      0x1f\n        /* \"#utility.yul\":3304:3310   */\n      dup5\n        /* \"#utility.yul\":3300:3317   */\n      add\n        /* \"#utility.yul\":3296:3323   */\n      slt\n        /* \"#utility.yul\":3286:3341   */\n      tag_410\n      jumpi\n        /* \"#utility.yul\":3337:3338   */\n      0x00\n        /* \"#utility.yul\":3334:3335   */\n      dup1\n        /* \"#utility.yul\":3327:3339   */\n      revert\n        /* \"#utility.yul\":3286:3341   */\n    tag_410:\n      pop\n        /* \"#utility.yul\":3360:3380   */\n      dup2\n      calldataload\n        /* \"#utility.yul\":3403:3421   */\n      0xffffffffffffffff\n        /* \"#utility.yul\":3392:3422   */\n      dup2\n      gt\n        /* \"#utility.yul\":3389:3439   */\n      iszero\n      tag_411\n      jumpi\n        /* \"#utility.yul\":3435:3436   */\n      0x00\n        /* \"#utility.yul\":3432:3433   */\n      dup1\n        /* \"#utility.yul\":3425:3437   */\n      revert\n        /* \"#utility.yul\":3389:3439   */\n    tag_411:\n        /* \"#utility.yul\":3472:3476   */\n      0x20\n        /* \"#utility.yul\":3464:3470   */\n      dup4\n        /* \"#utility.yul\":3460:3477   */\n      add\n        /* \"#utility.yul\":3448:3477   */\n      swap2\n      pop\n        /* \"#utility.yul\":3532:3535   */\n      dup4\n        /* \"#utility.yul\":3525:3529   */\n      0x20\n        /* \"#utility.yul\":3515:3521   */\n      dup3\n        /* \"#utility.yul\":3512:3513   */\n      0x05\n        /* \"#utility.yul\":3508:3522   */\n      shl\n        /* \"#utility.yul\":3500:3506   */\n      dup6\n        /* \"#utility.yul\":3496:3523   */\n      add\n        /* \"#utility.yul\":3492:3530   */\n      add\n        /* \"#utility.yul\":3489:3536   */\n      gt\n        /* \"#utility.yul\":3486:3553   */\n      iszero\n      tag_412\n      jumpi\n        /* \"#utility.yul\":3549:3550   */\n      0x00\n        /* \"#utility.yul\":3546:3547   */\n      dup1\n        /* \"#utility.yul\":3539:3551   */\n      revert\n        /* \"#utility.yul\":3486:3553   */\n    tag_412:\n        /* \"#utility.yul\":3192:3559   */\n      swap3\n      pop\n      swap3\n      swap1\n      pop\n      jump\t// out\n        /* \"#utility.yul\":3564:4405   */\n    tag_97:\n        /* \"#utility.yul\":3695:3701   */\n      0x00\n        /* \"#utility.yul\":3703:3709   */\n      dup1\n        /* \"#utility.yul\":3711:3717   */\n      0x00\n        /* \"#utility.yul\":3719:3725   */\n      dup1\n        /* \"#utility.yul\":3727:3733   */\n      0x00\n        /* \"#utility.yul\":3780:3782   */\n      0x60\n        /* \"#utility.yul\":3768:3777   */\n      dup7\n        /* \"#utility.yul\":3759:3766   */\n      dup9\n        /* \"#utility.yul\":3755:3778   */\n      sub\n        /* \"#utility.yul\":3751:3783   */\n      slt\n        /* \"#utility.yul\":3748:3800   */\n      iszero\n      tag_414\n      jumpi\n        /* \"#utility.yul\":3796:3797   */\n      0x00\n        /* \"#utility.yul\":3793:3794   */\n      dup1\n        /* \"#utility.yul\":3786:3798   */\n      revert\n        /* \"#utility.yul\":3748:3800   */\n    tag_414:\n        /* \"#utility.yul\":3832:3841   */\n      dup6\n        /* \"#utility.yul\":3819:3842   */\n      calldataload\n        /* \"#utility.yul\":3809:3842   */\n      swap5\n      pop\n        /* \"#utility.yul\":3893:3895   */\n      0x20\n        /* \"#utility.yul\":3882:3891   */\n      dup7\n        /* \"#utility.yul\":3878:3896   */\n      add\n        /* \"#utility.yul\":3865:3897   */\n      calldataload\n        /* \"#utility.yul\":3916:3934   */\n      0xffffffffffffffff\n        /* \"#utility.yul\":3957:3959   */\n      dup1\n        /* \"#utility.yul\":3949:3955   */\n      dup3\n        /* \"#utility.yul\":3946:3960   */\n      gt\n        /* \"#utility.yul\":3943:3977   */\n      iszero\n      tag_415\n      jumpi\n        /* \"#utility.yul\":3973:3974   */\n      0x00\n        /* \"#utility.yul\":3970:3971   */\n      dup1\n        /* \"#utility.yul\":3963:3975   */\n      revert\n        /* \"#utility.yul\":3943:3977   */\n    tag_415:\n        /* \"#utility.yul\":4012:4082   */\n      tag_416\n        /* \"#utility.yul\":4074:4081   */\n      dup10\n        /* \"#utility.yul\":4065:4071   */\n      dup4\n        /* \"#utility.yul\":4054:4063   */\n      dup11\n        /* \"#utility.yul\":4050:4072   */\n      add\n        /* \"#utility.yul\":4012:4082   */\n      tag_384\n      jump\t// in\n    tag_416:\n        /* \"#utility.yul\":4101:4109   */\n      swap1\n      swap7\n      pop\n        /* \"#utility.yul\":3986:4082   */\n      swap5\n      pop\n        /* \"#utility.yul\":4189:4191   */\n      0x40\n        /* \"#utility.yul\":4174:4192   */\n      dup9\n      add\n        /* \"#utility.yul\":4161:4193   */\n      calldataload\n      swap2\n      pop\n        /* \"#utility.yul\":4205:4221   */\n      dup1\n      dup3\n      gt\n        /* \"#utility.yul\":4202:4238   */\n      iszero\n      tag_417\n      jumpi\n        /* \"#utility.yul\":4234:4235   */\n      0x00\n        /* \"#utility.yul\":4231:4232   */\n      dup1\n        /* \"#utility.yul\":4224:4236   */\n      revert\n        /* \"#utility.yul\":4202:4238   */\n    tag_417:\n      pop\n        /* \"#utility.yul\":4273:4345   */\n      tag_418\n        /* \"#utility.yul\":4337:4344   */\n      dup9\n        /* \"#utility.yul\":4326:4334   */\n      dup3\n        /* \"#utility.yul\":4315:4324   */\n      dup10\n        /* \"#utility.yul\":4311:4335   */\n      add\n        /* \"#utility.yul\":4273:4345   */\n      tag_384\n      jump\t// in\n    tag_418:\n        /* \"#utility.yul\":3564:4405   */\n      swap7\n      swap10\n      swap6\n      swap9\n      pop\n      swap4\n      swap7\n      pop\n        /* \"#utility.yul\":4364:4372   */\n      swap3\n      swap5\n        /* \"#utility.yul\":4247:4345   */\n      swap4\n        /* \"#utility.yul\":3564:4405   */\n      swap3\n      pop\n      pop\n      pop\n      jump\t// out\n        /* \"#utility.yul\":4410:5049   */\n    tag_105:\n        /* \"#utility.yul\":4524:4530   */\n      0x00\n        /* \"#utility.yul\":4532:4538   */\n      dup1\n        /* \"#utility.yul\":4540:4546   */\n      0x00\n        /* \"#utility.yul\":4548:4554   */\n      dup1\n        /* \"#utility.yul\":4556:4562   */\n      0x00\n        /* \"#utility.yul\":4609:4612   */\n      0xa0\n        /* \"#utility.yul\":4597:4606   */\n      dup7\n        /* \"#utility.yul\":4588:4595   */\n      dup9\n        /* \"#utility.yul\":4584:4607   */\n      sub\n        /* \"#utility.yul\":4580:4613   */\n      slt\n        /* \"#utility.yul\":4577:4630   */\n      iszero\n      tag_420\n      jumpi\n        /* \"#utility.yul\":4626:4627   */\n      0x00\n        /* \"#utility.yul\":4623:4624   */\n      dup1\n        /* \"#utility.yul\":4616:4628   */\n      revert\n        /* \"#utility.yul\":4577:4630   */\n    tag_420:\n        /* \"#utility.yul\":4665:4674   */\n      dup6\n        /* \"#utility.yul\":4652:4675   */\n      calldataload\n        /* \"#utility.yul\":4684:4715   */\n      tag_421\n        /* \"#utility.yul\":4709:4714   */\n      dup2\n        /* \"#utility.yul\":4684:4715   */\n      tag_383\n      jump\t// in\n    tag_421:\n        /* \"#utility.yul\":4734:4739   */\n      swap5\n      pop\n        /* \"#utility.yul\":4786:4788   */\n      0x20\n        /* \"#utility.yul\":4771:4789   */\n      dup7\n      add\n        /* \"#utility.yul\":4758:4790   */\n      calldataload\n      swap4\n      pop\n        /* \"#utility.yul\":4837:4839   */\n      0x40\n        /* \"#utility.yul\":4822:4840   */\n      dup7\n      add\n        /* \"#utility.yul\":4809:4841   */\n      calldataload\n      swap3\n      pop\n        /* \"#utility.yul\":4893:4895   */\n      0x60\n        /* \"#utility.yul\":4878:4896   */\n      dup7\n      add\n        /* \"#utility.yul\":4865:4897   */\n      calldataload\n        /* \"#utility.yul\":4941:4945   */\n      0xff\n        /* \"#utility.yul\":4928:4946   */\n      dup2\n      and\n        /* \"#utility.yul\":4916:4947   */\n      dup2\n      eq\n        /* \"#utility.yul\":4906:4965   */\n      tag_422\n      jumpi\n        /* \"#utility.yul\":4961:4962   */\n      0x00\n        /* \"#utility.yul\":4958:4959   */\n      dup1\n        /* \"#utility.yul\":4951:4963   */\n      revert\n        /* \"#utility.yul\":4906:4965   */\n    tag_422:\n        /* \"#utility.yul\":4410:5049   */\n      swap5\n      swap8\n      swap4\n      swap7\n      pop\n      swap2\n      swap5\n        /* \"#utility.yul\":5038:5041   */\n      0x80\n        /* \"#utility.yul\":5023:5042   */\n      add\n        /* \"#utility.yul\":5010:5043   */\n      calldataload\n      swap3\n        /* \"#utility.yul\":4410:5049   */\n      swap2\n      pop\n      pop\n      jump\t// out\n        /* \"#utility.yul\":5054:5602   */\n    tag_123:\n        /* \"#utility.yul\":5166:5170   */\n      0x00\n        /* \"#utility.yul\":5195:5197   */\n      0x20\n        /* \"#utility.yul\":5224:5226   */\n      dup1\n        /* \"#utility.yul\":5213:5222   */\n      dup4\n        /* \"#utility.yul\":5206:5227   */\n      mstore\n        /* \"#utility.yul\":5256:5262   */\n      dup4\n        /* \"#utility.yul\":5250:5263   */\n      mload\n        /* \"#utility.yul\":5299:5305   */\n      dup1\n        /* \"#utility.yul\":5294:5296   */\n      0x20\n        /* \"#utility.yul\":5283:5292   */\n      dup6\n        /* \"#utility.yul\":5279:5297   */\n      add\n        /* \"#utility.yul\":5272:5306   */\n      mstore\n        /* \"#utility.yul\":5324:5325   */\n      0x00\n        /* \"#utility.yul\":5334:5474   */\n    tag_424:\n        /* \"#utility.yul\":5348:5354   */\n      dup2\n        /* \"#utility.yul\":5345:5346   */\n      dup2\n        /* \"#utility.yul\":5342:5355   */\n      lt\n        /* \"#utility.yul\":5334:5474   */\n      iszero\n      tag_426\n      jumpi\n        /* \"#utility.yul\":5443:5457   */\n      dup6\n      dup2\n      add\n        /* \"#utility.yul\":5439:5462   */\n      dup4\n      add\n        /* \"#utility.yul\":5433:5463   */\n      mload\n        /* \"#utility.yul\":5409:5426   */\n      dup6\n      dup3\n      add\n        /* \"#utility.yul\":5428:5430   */\n      0x40\n        /* \"#utility.yul\":5405:5431   */\n      add\n        /* \"#utility.yul\":5398:5464   */\n      mstore\n        /* \"#utility.yul\":5363:5373   */\n      dup3\n      add\n        /* \"#utility.yul\":5334:5474   */\n      jump(tag_424)\n    tag_426:\n        /* \"#utility.yul\":5338:5341   */\n      pop\n        /* \"#utility.yul\":5523:5524   */\n      0x00\n        /* \"#utility.yul\":5518:5520   */\n      0x40\n        /* \"#utility.yul\":5509:5515   */\n      dup3\n        /* \"#utility.yul\":5498:5507   */\n      dup7\n        /* \"#utility.yul\":5494:5516   */\n      add\n        /* \"#utility.yul\":5490:5521   */\n      add\n        /* \"#utility.yul\":5483:5525   */\n      mstore\n        /* \"#utility.yul\":5593:5595   */\n      0x40\n        /* \"#utility.yul\":5586:5588   */\n      0x1f\n        /* \"#utility.yul\":5582:5589   */\n      not\n        /* \"#utility.yul\":5577:5579   */\n      0x1f\n        /* \"#utility.yul\":5569:5575   */\n      dup4\n        /* \"#utility.yul\":5565:5580   */\n      add\n        /* \"#utility.yul\":5561:5590   */\n      and\n        /* \"#utility.yul\":5550:5559   */\n      dup6\n        /* \"#utility.yul\":5546:5591   */\n      add\n        /* \"#utility.yul\":5542:5596   */\n      add\n        /* \"#utility.yul\":5534:5596   */\n      swap3\n      pop\n      pop\n      pop\n        /* \"#utility.yul\":5054:5602   */\n      swap3\n      swap2\n      pop\n      pop\n      jump\t// out\n        /* \"#utility.yul\":5838:6022   */\n    tag_133:\n        /* \"#utility.yul\":5908:5914   */\n      0x00\n        /* \"#utility.yul\":5961:5963   */\n      0x20\n        /* \"#utility.yul\":5949:5958   */\n      dup3\n        /* \"#utility.yul\":5940:5947   */\n      dup5\n        /* \"#utility.yul\":5936:5959   */\n      sub\n        /* \"#utility.yul\":5932:5964   */\n      slt\n        /* \"#utility.yul\":5929:5981   */\n      iszero\n      tag_429\n      jumpi\n        /* \"#utility.yul\":5977:5978   */\n      0x00\n        /* \"#utility.yul\":5974:5975   */\n      dup1\n        /* \"#utility.yul\":5967:5979   */\n      revert\n        /* \"#utility.yul\":5929:5981   */\n    tag_429:\n      pop\n        /* \"#utility.yul\":6000:6016   */\n      mload\n      swap2\n        /* \"#utility.yul\":5838:6022   */\n      swap1\n      pop\n      jump\t// out\n        /* \"#utility.yul\":6027:6211   */\n    tag_385:\n      shl(0xe0, 0x4e487b71)\n        /* \"#utility.yul\":6076:6077   */\n      0x00\n        /* \"#utility.yul\":6069:6157   */\n      mstore\n        /* \"#utility.yul\":6176:6180   */\n      0x11\n        /* \"#utility.yul\":6173:6174   */\n      0x04\n        /* \"#utility.yul\":6166:6181   */\n      mstore\n        /* \"#utility.yul\":6200:6204   */\n      0x24\n        /* \"#utility.yul\":6197:6198   */\n      0x00\n        /* \"#utility.yul\":6190:6205   */\n      revert\n        /* \"#utility.yul\":6216:6341   */\n    tag_147:\n        /* \"#utility.yul\":6281:6290   */\n      dup1\n      dup3\n      add\n        /* \"#utility.yul\":6302:6312   */\n      dup1\n      dup3\n      gt\n        /* \"#utility.yul\":6299:6335   */\n      iszero\n      tag_127\n      jumpi\n        /* \"#utility.yul\":6315:6333   */\n      tag_127\n      tag_385\n      jump\t// in\n        /* \"#utility.yul\":6691:6859   */\n    tag_182:\n        /* \"#utility.yul\":6764:6773   */\n      dup1\n      dup3\n      mul\n        /* \"#utility.yul\":6795:6804   */\n      dup2\n      iszero\n        /* \"#utility.yul\":6812:6827   */\n      dup3\n      dup3\n      div\n        /* \"#utility.yul\":6806:6828   */\n      dup5\n      eq\n        /* \"#utility.yul\":6792:6829   */\n      or\n        /* \"#utility.yul\":6782:6853   */\n      tag_127\n      jumpi\n        /* \"#utility.yul\":6833:6851   */\n      tag_127\n      tag_385\n      jump\t// in\n        /* \"#utility.yul\":6864:7138   */\n    tag_184:\n        /* \"#utility.yul\":6904:6905   */\n      0x00\n        /* \"#utility.yul\":6930:6931   */\n      dup3\n        /* \"#utility.yul\":6920:7109   */\n      tag_439\n      jumpi\n      shl(0xe0, 0x4e487b71)\n        /* \"#utility.yul\":6962:6963   */\n      0x00\n        /* \"#utility.yul\":6955:7043   */\n      mstore\n        /* \"#utility.yul\":7066:7070   */\n      0x12\n        /* \"#utility.yul\":7063:7064   */\n      0x04\n        /* \"#utility.yul\":7056:7071   */\n      mstore\n        /* \"#utility.yul\":7094:7098   */\n      0x24\n        /* \"#utility.yul\":7091:7092   */\n      0x00\n        /* \"#utility.yul\":7084:7099   */\n      revert\n        /* \"#utility.yul\":6920:7109   */\n    tag_439:\n      pop\n        /* \"#utility.yul\":7123:7132   */\n      div\n      swap1\n        /* \"#utility.yul\":6864:7138   */\n      jump\t// out\n        /* \"#utility.yul\":7143:7271   */\n    tag_186:\n        /* \"#utility.yul\":7210:7219   */\n      dup2\n      dup2\n      sub\n        /* \"#utility.yul\":7231:7242   */\n      dup2\n      dup2\n      gt\n        /* \"#utility.yul\":7228:7265   */\n      iszero\n      tag_127\n      jumpi\n        /* \"#utility.yul\":7245:7263   */\n      tag_127\n      tag_385\n      jump\t// in\n        /* \"#utility.yul\":7578:7855   */\n    tag_196:\n        /* \"#utility.yul\":7645:7651   */\n      0x00\n        /* \"#utility.yul\":7698:7700   */\n      0x20\n        /* \"#utility.yul\":7686:7695   */\n      dup3\n        /* \"#utility.yul\":7677:7684   */\n      dup5\n        /* \"#utility.yul\":7673:7696   */\n      sub\n        /* \"#utility.yul\":7669:7701   */\n      slt\n        /* \"#utility.yul\":7666:7718   */\n      iszero\n      tag_445\n      jumpi\n        /* \"#utility.yul\":7714:7715   */\n      0x00\n        /* \"#utility.yul\":7711:7712   */\n      dup1\n        /* \"#utility.yul\":7704:7716   */\n      revert\n        /* \"#utility.yul\":7666:7718   */\n    tag_445:\n        /* \"#utility.yul\":7746:7755   */\n      dup2\n        /* \"#utility.yul\":7740:7756   */\n      mload\n        /* \"#utility.yul\":7799:7804   */\n      dup1\n        /* \"#utility.yul\":7792:7805   */\n      iszero\n        /* \"#utility.yul\":7785:7806   */\n      iszero\n        /* \"#utility.yul\":7778:7783   */\n      dup2\n        /* \"#utility.yul\":7775:7807   */\n      eq\n        /* \"#utility.yul\":7765:7825   */\n      tag_395\n      jumpi\n        /* \"#utility.yul\":7821:7822   */\n      0x00\n        /* \"#utility.yul\":7818:7819   */\n      dup1\n        /* \"#utility.yul\":7811:7823   */\n      revert\n        /* \"#utility.yul\":9253:9437   */\n    tag_237:\n      shl(0xe0, 0x4e487b71)\n        /* \"#utility.yul\":9302:9303   */\n      0x00\n        /* \"#utility.yul\":9295:9383   */\n      mstore\n        /* \"#utility.yul\":9402:9406   */\n      0x32\n        /* \"#utility.yul\":9399:9400   */\n      0x04\n        /* \"#utility.yul\":9392:9407   */\n      mstore\n        /* \"#utility.yul\":9426:9430   */\n      0x24\n        /* \"#utility.yul\":9423:9424   */\n      0x00\n        /* \"#utility.yul\":9416:9431   */\n      revert\n        /* \"#utility.yul\":9442:9689   */\n    tag_239:\n        /* \"#utility.yul\":9501:9507   */\n      0x00\n        /* \"#utility.yul\":9554:9556   */\n      0x20\n        /* \"#utility.yul\":9542:9551   */\n      dup3\n        /* \"#utility.yul\":9533:9540   */\n      dup5\n        /* \"#utility.yul\":9529:9552   */\n      sub\n        /* \"#utility.yul\":9525:9557   */\n      slt\n        /* \"#utility.yul\":9522:9574   */\n      iszero\n      tag_453\n      jumpi\n        /* \"#utility.yul\":9570:9571   */\n      0x00\n        /* \"#utility.yul\":9567:9568   */\n      dup1\n        /* \"#utility.yul\":9560:9572   */\n      revert\n        /* \"#utility.yul\":9522:9574   */\n    tag_453:\n        /* \"#utility.yul\":9609:9618   */\n      dup2\n        /* \"#utility.yul\":9596:9619   */\n      calldataload\n        /* \"#utility.yul\":9628:9659   */\n      tag_395\n        /* \"#utility.yul\":9653:9658   */\n      dup2\n        /* \"#utility.yul\":9628:9659   */\n      tag_383\n      jump\t// in\n        /* \"#utility.yul\":12135:12270   */\n    tag_311:\n        /* \"#utility.yul\":12174:12177   */\n      0x00\n        /* \"#utility.yul\":12195:12212   */\n      0x01\n      dup3\n      add\n        /* \"#utility.yul\":12192:12235   */\n      tag_464\n      jumpi\n        /* \"#utility.yul\":12215:12233   */\n      tag_464\n      tag_385\n      jump\t// in\n    tag_464:\n      pop\n        /* \"#utility.yul\":12262:12263   */\n      0x01\n        /* \"#utility.yul\":12251:12264   */\n      add\n      swap1\n        /* \"#utility.yul\":12135:12270   */\n      jump\t// out\n        /* \"#utility.yul\":12275:12450   */\n    tag_313:\n        /* \"#utility.yul\":12312:12315   */\n      0x00\n        /* \"#utility.yul\":12356:12360   */\n      0xff\n        /* \"#utility.yul\":12349:12354   */\n      dup3\n        /* \"#utility.yul\":12345:12361   */\n      and\n        /* \"#utility.yul\":12385:12389   */\n      0xff\n        /* \"#utility.yul\":12376:12383   */\n      dup2\n        /* \"#utility.yul\":12373:12390   */\n      sub\n        /* \"#utility.yul\":12370:12413   */\n      tag_467\n      jumpi\n        /* \"#utility.yul\":12393:12411   */\n      tag_467\n      tag_385\n      jump\t// in\n    tag_467:\n        /* \"#utility.yul\":12442:12443   */\n      0x01\n        /* \"#utility.yul\":12429:12444   */\n      add\n      swap3\n        /* \"#utility.yul\":12275:12450   */\n      swap2\n      pop\n      pop\n      jump\t// out\n        /* \"#utility.yul\":12716:13153   */\n    tag_322:\n        /* \"#utility.yul\":12795:12796   */\n      0x01\n        /* \"#utility.yul\":12791:12803   */\n      dup2\n      dup2\n      shr\n      swap1\n        /* \"#utility.yul\":12838:12850   */\n      dup3\n      and\n      dup1\n        /* \"#utility.yul\":12859:12920   */\n      tag_470\n      jumpi\n        /* \"#utility.yul\":12913:12917   */\n      0x7f\n        /* \"#utility.yul\":12905:12911   */\n      dup3\n        /* \"#utility.yul\":12901:12918   */\n      and\n        /* \"#utility.yul\":12891:12918   */\n      swap2\n      pop\n        /* \"#utility.yul\":12859:12920   */\n    tag_470:\n        /* \"#utility.yul\":12966:12968   */\n      0x20\n        /* \"#utility.yul\":12958:12964   */\n      dup3\n        /* \"#utility.yul\":12955:12969   */\n      lt\n        /* \"#utility.yul\":12935:12953   */\n      dup2\n        /* \"#utility.yul\":12932:12970   */\n      sub\n        /* \"#utility.yul\":12929:13147   */\n      tag_370\n      jumpi\n      shl(0xe0, 0x4e487b71)\n        /* \"#utility.yul\":13000:13001   */\n      0x00\n        /* \"#utility.yul\":12993:13081   */\n      mstore\n        /* \"#utility.yul\":13104:13108   */\n      0x22\n        /* \"#utility.yul\":13101:13102   */\n      0x04\n        /* \"#utility.yul\":13094:13109   */\n      mstore\n        /* \"#utility.yul\":13132:13136   */\n      0x24\n        /* \"#utility.yul\":13129:13130   */\n      0x00\n        /* \"#utility.yul\":13122:13137   */\n      revert\n\n    auxdata: 0xa26469706673582212203fda974b9d73d244202ae7c03d275c28f0c0156d9039d135031062fadbd523fb64736f6c63430008180033\n}\n",
				"bytecode": {
					"linkReferences": {},
					"object": "60a06040523480156200001157600080fd5b5060405162001ea138038062001ea183398101604081905262000034916200015c565b6002620000428282620002e3565b506001600160a01b0382166080526200005d60003362000097565b506200008a7f250b76734a070a69c7b3930477dd35007ad9c9d0952e97903fdafb2db69805373362000097565b50504260045550620003af565b6000828152602081815260408083206001600160a01b038516845290915281205460ff166200013c576000838152602081815260408083206001600160a01b03861684529091529020805460ff19166001179055620000f33390565b6001600160a01b0316826001600160a01b0316847f2f8788117e7eff1d82e926ec794901d17c78024a50270940304540a733656f0d60405160405180910390a450600162000140565b5060005b92915050565b634e487b7160e01b600052604160045260246000fd5b600080604083850312156200017057600080fd5b82516001600160a01b03811681146200018857600080fd5b602084810151919350906001600160401b0380821115620001a857600080fd5b818601915086601f830112620001bd57600080fd5b815181811115620001d257620001d262000146565b604051601f8201601f19908116603f01168101908382118183101715620001fd57620001fd62000146565b8160405282815289868487010111156200021657600080fd5b600093505b828410156200023a57848401860151818501870152928501926200021b565b60008684830101528096505050505050509250929050565b600181811c908216806200026757607f821691505b6020821081036200028857634e487b7160e01b600052602260045260246000fd5b50919050565b601f821115620002de576000816000526020600020601f850160051c81016020861015620002b95750805b601f850160051c820191505b81811015620002da57828155600101620002c5565b5050505b505050565b81516001600160401b03811115620002ff57620002ff62000146565b620003178162000310845462000252565b846200028e565b602080601f8311600181146200034f5760008415620003365750858301515b600019600386901b1c1916600185901b178555620002da565b600085815260208120601f198616915b8281101562000380578886015182559484019460019091019084016200035f565b50858210156200039f5787850151600019600388901b60f8161c191681555b5050505050600190811b01905550565b608051611ac1620003e06000396000818161022e015281816107fe0152818161093001526110290152611ac16000f3fe608060405234801561001057600080fd5b50600436106101a25760003560e01c80635c975abb116100ee5780639612df5c11610097578063bef6f54011610071578063bef6f54014610400578063d547741f14610413578063eac989f814610426578063f0f9243b1461043b57600080fd5b80639612df5c146103d2578063a217fddf146103e5578063bd85b039146103ed57600080fd5b80638456cb59116100c85780638456cb5914610380578063897a36511461038857806391d148541461039b57600080fd5b80635c975abb146103595780636ea056a9146103645780637b3baab41461037757600080fd5b8063248a9ca31161015057806336568abe1161012a57806336568abe1461032b5780633f4ba83a1461033e578063441a3e701461034657600080fd5b8063248a9ca31461026857806326c259621461028b5780632f2ff15d1461031857600080fd5b80630bfed82a116101815780630bfed82a1461021757806318160ddd1461022157806322be3de11461022957600080fd5b8062fdd58e146101a757806301ffc9a7146101cd57806309a01608146101f0575b600080fd5b6101ba6101b5366004611707565b610444565b6040519081526020015b60405180910390f35b6101e06101db366004611733565b6104c7565b60405190151581526020016101c4565b6101ba7f250b76734a070a69c7b3930477dd35007ad9c9d0952e97903fdafb2db698053781565b61021f61052e565b005b6101ba610538565b6102507f000000000000000000000000000000000000000000000000000000000000000081565b6040516001600160a01b0390911681526020016101c4565b6101ba610276366004611764565b60009081526020819052604090206001015490565b6102de610299366004611764565b60056020819052600091825260409091208054600182015460028301546003840154600485015494909501546001600160a01b03909316949193909260ff9092169186565b604080516001600160a01b03909716875260208701959095529385019290925260ff166060840152608083015260a082015260c0016101c4565b61021f61032636600461177d565b610567565b61021f61033936600461177d565b610592565b61021f6105e3565b61021f6103543660046117ad565b6105f9565b60015460ff166101e0565b61021f610372366004611707565b6108ff565b6101ba60045481565b61021f6109e9565b61021f61039636600461181b565b6109fc565b6101e06103a936600461177d565b6000918252602082815260408084206001600160a01b0393909316845291905290205460ff1690565b61021f6103e0366004611895565b610cc0565b6101ba600081565b6101ba6103fb366004611764565b610f2d565b61021f61040e366004611764565b610fbc565b61021f61042136600461177d565b6112ab565b61042e6112d0565b6040516101c491906118ed565b6101ba60035481565b6000818152600560205260408082205490516370a0823160e01b81526001600160a01b038581166004830152909116906370a0823190602401602060405180830381865afa15801561049a573d6000803e3d6000fd5b505050506040513d601f19601f820116820180604052508101906104be919061193c565b90505b92915050565b60006001600160e01b031982167f7965db0b0000000000000000000000000000000000000000000000000000000014806104c157507f01ffc9a7000000000000000000000000000000000000000000000000000000006001600160e01b03198316146104c1565b61053661135e565b565b6000805b6003548110156105635761054f81610f2d565b610559908361196b565b915060010161053c565b5090565b60008281526020819052604090206001015461058281611407565b61058c8383611411565b50505050565b6001600160a01b03811633146105d4576040517f6697b23200000000000000000000000000000000000000000000000000000000815260040160405180910390fd5b6105de82826114bb565b505050565b60006105ee81611407565b6105f661153e565b50565b610601611590565b60008281526005602052604090819020805491516370a0823160e01b815233600482015290916001600160a01b031690839082906370a0823190602401602060405180830381865afa15801561065b573d6000803e3d6000fd5b505050506040513d601f19601f8201168201806040525081019061067f919061193c565b10156106d25760405162461bcd60e51b815260206004820152601060248201527f494e53554646494349454e545f42414c0000000000000000000000000000000060448201526064015b60405180910390fd5b6000816001600160a01b03166318160ddd6040518163ffffffff1660e01b8152600401602060405180830381865afa158015610712573d6000803e3d6000fd5b505050506040513d601f19601f82011682018060405250810190610736919061193c565b848460050154610746919061197e565b6107509190611995565b90508083600501600082825461076691906119b7565b90915550506040517f9dc29fac000000000000000000000000000000000000000000000000000000008152336004820152602481018590526001600160a01b03831690639dc29fac90604401600060405180830381600087803b1580156107cc57600080fd5b505af11580156107e0573d6000803e3d6000fd5b505060405163a9059cbb60e01b8152336004820152602481018490527f00000000000000000000000000000000000000000000000000000000000000006001600160a01b0316925063a9059cbb91506044016020604051808303816000875af1158015610851573d6000803e3d6000fd5b505050506040513d601f19601f8201168201806040525081019061087591906119ca565b6108c15760405162461bcd60e51b815260206004820152601660248201527f535441424c455f5452414e534645525f4641494c45440000000000000000000060448201526064016106c9565b604051818152859033907ff279e6a1f5e320cca91135676d9cb6e44ca8a08c0b88342bcdb1144f6511b5689060200160405180910390a35050505050565b600061090a81611407565b60405163a9059cbb60e01b81526001600160a01b038481166004830152602482018490527f0000000000000000000000000000000000000000000000000000000000000000169063a9059cbb906044016020604051808303816000875af1158015610979573d6000803e3d6000fd5b505050506040513d601f19601f8201168201806040525081019061099d91906119ca565b6105de5760405162461bcd60e51b815260206004820152600c60248201527f53574545505f4641494c4544000000000000000000000000000000000000000060448201526064016106c9565b60006109f481611407565b6105f66115cd565b6000610a0781611407565b6000868152600560205260409020546001600160a01b0316848314610a6e5760405162461bcd60e51b815260206004820152601560248201527f41525241595f4c454e4754485f4d49534d41544348000000000000000000000060448201526064016106c9565b610aaa84848080602002602001604051908101604052809392919081815260200183836020028082843760009201919091525061160892505050565b6040516370a0823160e01b81523060048201526001600160a01b038316906370a0823190602401602060405180830381865afa158015610aee573d6000803e3d6000fd5b505050506040513d601f19601f82011682018060405250810190610b12919061193c565b1015610b605760405162461bcd60e51b815260206004820152601660248201527f494e53554646494349454e545f41444d494e5f42414c0000000000000000000060448201526064016106c9565b60005b85811015610cb657816001600160a01b031663a9059cbb888884818110610b8c57610b8c6119ec565b9050602002016020810190610ba19190611a02565b878785818110610bb357610bb36119ec565b6040516001600160e01b031960e087901b1681526001600160a01b03909416600485015260200291909101356024830152506044016020604051808303816000875af1158015610c07573d6000803e3d6000fd5b505050506040513d601f19601f82011682018060405250810190610c2b91906119ca565b50868682818110610c3e57610c3e6119ec565b9050602002016020810190610c539190611a02565b6001600160a01b0316887fb6bcab815b7a952b8759f2f92fc9981dc1156f6c11bf4dc7e9cb3036495e653a878785818110610c9057610c906119ec565b90506020020135604051610ca691815260200190565b60405180910390a3600101610b63565b5050505050505050565b6000610ccb81611407565b60008511610d1b5760405162461bcd60e51b815260206004820152601160248201527f494e56414c49445f5052494e434950414c00000000000000000000000000000060448201526064016106c9565b60008211610d6b5760405162461bcd60e51b815260206004820152600e60248201527f494e56414c49445f535550504c5900000000000000000000000000000000000060448201526064016106c9565b856001600160a01b03166318160ddd6040518163ffffffff1660e01b8152600401602060405180830381865afa158015610da9573d6000803e3d6000fd5b505050506040513d601f19601f82011682018060405250810190610dcd919061193c565b8214610e1b5760405162461bcd60e51b815260206004820152601460248201527f494e56414c49445f544f4b454e5f535550504c5900000000000000000000000060448201526064016106c9565b600354610e2981600161196b565b60039081556040805160c0810182526001600160a01b038a8116825260208083018b81528385018b815260ff8b8116606080880182815260006080808b0182815260a08c018381528f84526005808c52938e90209c518d547fffffffffffffffffffffffff0000000000000000000000000000000000000000169c169b909b178c55975160018c0155955160028b015590519a8901805460ff19169b9094169a909a17909255925160048701559351949096019390935583518b81529081018a905292830191909152810185905282917f564b343ad33dbf7eb84ef778355be83df7b0a44ce6021e56d7bd757a03c03544910160405180910390a250505050505050565b60008181526005602090815260408083205481517f18160ddd00000000000000000000000000000000000000000000000000000000815291516001600160a01b03909116926318160ddd92600480820193918290030181865afa158015610f98573d6000803e3d6000fd5b505050506040513d601f19601f820116820180604052508101906104c1919061193c565b610fc4611590565b7f250b76734a070a69c7b3930477dd35007ad9c9d0952e97903fdafb2db6980537610fee81611407565b6040517f23b872dd000000000000000000000000000000000000000000000000000000008152336004820152306024820152604481018390527f00000000000000000000000000000000000000000000000000000000000000006001600160a01b0316906323b872dd906064016020604051808303816000875af115801561107a573d6000803e3d6000fd5b505050506040513d601f19601f8201168201806040525081019061109e91906119ca565b6110ea5760405162461bcd60e51b815260206004820152600f60248201527f5452414e534645525f4641494c4544000000000000000000000000000000000060448201526064016106c9565b6110f261135e565b8160005b60ff8160ff161080156111095750600082115b156112675760005b600354811080156111225750600083115b15611256576000818152600560205260409020600381015460ff84811691161461114c5750611246565b600084826004015411156111605784611166565b81600401545b90508082600401600082825461117c91906119b7565b9250508190555080826005016000828254611197919061196b565b909155506111a7905081866119b7565b9450600085836001015411156111bd57856111c3565b82600101545b9050808360010160008282546111d991906119b7565b92505081905550808360050160008282546111f4919061196b565b90915550611204905081876119b7565b604080518481526020810184905291975085917fc679124717471d056fe130fb8066ce200851eec03c00256ee1158b7d2354036f910160405180910390a25050505b61124f81611a1f565b9050611111565b5061126081611a38565b90506110f6565b50604080516000815260208101839052600019917fc679124717471d056fe130fb8066ce200851eec03c00256ee1158b7d2354036f910160405180910390a2505050565b6000828152602081905260409020600101546112c681611407565b61058c83836114bb565b600280546112dd90611a57565b80601f016020809104026020016040519081016040528092919081815260200182805461130990611a57565b80156113565780601f1061132b57610100808354040283529160200191611356565b820191906000526020600020905b81548152906001019060200180831161133957829003601f168201915b505050505081565b60006004544261136e91906119b7565b90508060000361137b5750565b4260045560005b60035481101561140357600081815260056020526040812060018101549091036113ac57506113fb565b600064496cebb80084836002015484600101546113c9919061197e565b6113d3919061197e565b6113dd9190611995565b9050808260040160008282546113f3919061196b565b909155505050505b600101611382565b5050565b6105f6813361164a565b6000828152602081815260408083206001600160a01b038516845290915281205460ff166114b3576000838152602081815260408083206001600160a01b03861684529091529020805460ff1916600117905561146b3390565b6001600160a01b0316826001600160a01b0316847f2f8788117e7eff1d82e926ec794901d17c78024a50270940304540a733656f0d60405160405180910390a45060016104c1565b5060006104c1565b6000828152602081815260408083206001600160a01b038516845290915281205460ff16156114b3576000838152602081815260408083206001600160a01b0386168085529252808320805460ff1916905551339286917ff6391f5c32d9c69d2a47ea670b442974b53935d1edc7fd64eb21e047a839171b9190a45060016104c1565b6115466116b6565b6001805460ff191690557f5db9ee0a495bf2e6ff9c91a7834c1ba4fdd244a5e8aa4e537bd38aeae4b073aa335b6040516001600160a01b03909116815260200160405180910390a1565b60015460ff1615610536576040517fd93c066500000000000000000000000000000000000000000000000000000000815260040160405180910390fd5b6115d5611590565b6001805460ff1916811790557f62e78cea01bee320cd4e420270b5ea74000d11b0c9f74754ebdbfc544b05a25833611573565b6000805b825181101561164457828181518110611627576116276119ec565b60200260200101518261163a919061196b565b915060010161160c565b50919050565b6000828152602081815260408083206001600160a01b038516845290915290205460ff16611403576040517fe2517d3f0000000000000000000000000000000000000000000000000000000081526001600160a01b0382166004820152602481018390526044016106c9565b60015460ff16610536576040517f8dfc202b00000000000000000000000000000000000000000000000000000000815260040160405180910390fd5b6001600160a01b03811681146105f657600080fd5b6000806040838503121561171a57600080fd5b8235611725816116f2565b946020939093013593505050565b60006020828403121561174557600080fd5b81356001600160e01b03198116811461175d57600080fd5b9392505050565b60006020828403121561177657600080fd5b5035919050565b6000806040838503121561179057600080fd5b8235915060208301356117a2816116f2565b809150509250929050565b600080604083850312156117c057600080fd5b50508035926020909101359150565b60008083601f8401126117e157600080fd5b50813567ffffffffffffffff8111156117f957600080fd5b6020830191508360208260051b850101111561181457600080fd5b9250929050565b60008060008060006060868803121561183357600080fd5b85359450602086013567ffffffffffffffff8082111561185257600080fd5b61185e89838a016117cf565b9096509450604088013591508082111561187757600080fd5b50611884888289016117cf565b969995985093965092949392505050565b600080600080600060a086880312156118ad57600080fd5b85356118b8816116f2565b94506020860135935060408601359250606086013560ff811681146118dc57600080fd5b949793965091946080013592915050565b60006020808352835180602085015260005b8181101561191b578581018301518582016040015282016118ff565b506000604082860101526040601f19601f8301168501019250505092915050565b60006020828403121561194e57600080fd5b5051919050565b634e487b7160e01b600052601160045260246000fd5b808201808211156104c1576104c1611955565b80820281158282048414176104c1576104c1611955565b6000826119b257634e487b7160e01b600052601260045260246000fd5b500490565b818103818111156104c1576104c1611955565b6000602082840312156119dc57600080fd5b8151801515811461175d57600080fd5b634e487b7160e01b600052603260045260246000fd5b600060208284031215611a1457600080fd5b813561175d816116f2565b600060018201611a3157611a31611955565b5060010190565b600060ff821660ff8103611a4e57611a4e611955565b60010192915050565b600181811c90821680611a6b57607f821691505b60208210810361164457634e487b7160e01b600052602260045260246000fdfea26469706673582212203fda974b9d73d244202ae7c03d275c28f0c0156d9039d135031062fadbd523fb64736f6c63430008180033",
					"opcodes": "PUSH1 0xA0 PUSH1 0x40 MSTORE CALLVALUE DUP1 ISZERO PUSH3 0x11 JUMPI PUSH1 0x0 DUP1 REVERT JUMPDEST POP PUSH1 0x40 MLOAD PUSH3 0x1EA1 CODESIZE SUB DUP1 PUSH3 0x1EA1 DUP4 CODECOPY DUP2 ADD PUSH1 0x40 DUP2 SWAP1 MSTORE PUSH3 0x34 SWAP2 PUSH3 0x15C JUMP JUMPDEST PUSH1 0x2 PUSH3 0x42 DUP3 DUP3 PUSH3 0x2E3 JUMP JUMPDEST POP PUSH1 0x1 PUSH1 0x1 PUSH1 0xA0 SHL SUB DUP3 AND PUSH1 0x80 MSTORE PUSH3 0x5D PUSH1 0x0 CALLER PUSH3 0x97 JUMP JUMPDEST POP PUSH3 0x8A PUSH32 0x250B76734A070A69C7B3930477DD35007AD9C9D0952E97903FDAFB2DB6980537 CALLER PUSH3 0x97 JUMP JUMPDEST POP POP TIMESTAMP PUSH1 0x4 SSTORE POP PUSH3 0x3AF JUMP JUMPDEST PUSH1 0x0 DUP3 DUP2 MSTORE PUSH1 0x20 DUP2 DUP2 MSTORE PUSH1 0x40 DUP1 DUP4 KECCAK256 PUSH1 0x1 PUSH1 0x1 PUSH1 0xA0 SHL SUB DUP6 AND DUP5 MSTORE SWAP1 SWAP2 MSTORE DUP2 KECCAK256 SLOAD PUSH1 0xFF AND PUSH3 0x13C JUMPI PUSH1 0x0 DUP4 DUP2 MSTORE PUSH1 0x20 DUP2 DUP2 MSTORE PUSH1 0x40 DUP1 DUP4 KECCAK256 PUSH1 0x1 PUSH1 0x1 PUSH1 0xA0 SHL SUB DUP7 AND DUP5 MSTORE SWAP1 SWAP2 MSTORE SWAP1 KECCAK256 DUP1 SLOAD PUSH1 0xFF NOT AND PUSH1 0x1 OR SWAP1 SSTORE PUSH3 0xF3 CALLER SWAP1 JUMP JUMPDEST PUSH1 0x1 PUSH1 0x1 PUSH1 0xA0 SHL SUB AND DUP3 PUSH1 0x1 PUSH1 0x1 PUSH1 0xA0 SHL SUB AND DUP5 PUSH32 0x2F8788117E7EFF1D82E926EC794901D17C78024A50270940304540A733656F0D PUSH1 0x40 MLOAD PUSH1 0x40 MLOAD DUP1 SWAP2 SUB SWAP1 LOG4 POP PUSH1 0x1 PUSH3 0x140 JUMP JUMPDEST POP PUSH1 0x0 JUMPDEST SWAP3 SWAP2 POP POP JUMP JUMPDEST PUSH4 0x4E487B71 PUSH1 0xE0 SHL PUSH1 0x0 MSTORE PUSH1 0x41 PUSH1 0x4 MSTORE PUSH1 0x24 PUSH1 0x0 REVERT JUMPDEST PUSH1 0x0 DUP1 PUSH1 0x40 DUP4 DUP6 SUB SLT ISZERO PUSH3 0x170 JUMPI PUSH1 0x0 DUP1 REVERT JUMPDEST DUP3 MLOAD PUSH1 0x1 PUSH1 0x1 PUSH1 0xA0 SHL SUB DUP2 AND DUP2 EQ PUSH3 0x188 JUMPI PUSH1 0x0 DUP1 REVERT JUMPDEST PUSH1 0x20 DUP5 DUP2 ADD MLOAD SWAP2 SWAP4 POP SWAP1 PUSH1 0x1 PUSH1 0x1 PUSH1 0x40 SHL SUB DUP1 DUP3 GT ISZERO PUSH3 0x1A8 JUMPI PUSH1 0x0 DUP1 REVERT JUMPDEST DUP2 DUP7 ADD SWAP2 POP DUP7 PUSH1 0x1F DUP4 ADD SLT PUSH3 0x1BD JUMPI PUSH1 0x0 DUP1 REVERT JUMPDEST DUP2 MLOAD DUP2 DUP2 GT ISZERO PUSH3 0x1D2 JUMPI PUSH3 0x1D2 PUSH3 0x146 JUMP JUMPDEST PUSH1 0x40 MLOAD PUSH1 0x1F DUP3 ADD PUSH1 0x1F NOT SWAP1 DUP2 AND PUSH1 0x3F ADD AND DUP2 ADD SWAP1 DUP4 DUP3 GT DUP2 DUP4 LT OR ISZERO PUSH3 0x1FD JUMPI PUSH3 0x1FD PUSH3 0x146 JUMP JUMPDEST DUP2 PUSH1 0x40 MSTORE DUP3 DUP2 MSTORE DUP10 DUP7 DUP5 DUP8 ADD ADD GT ISZERO PUSH3 0x216 JUMPI PUSH1 0x0 DUP1 REVERT JUMPDEST PUSH1 0x0 SWAP4 POP JUMPDEST DUP3 DUP5 LT ISZERO PUSH3 0x23A JUMPI DUP5 DUP5 ADD DUP7 ADD MLOAD DUP2 DUP6 ADD DUP8 ADD MSTORE SWAP3 DUP6 ADD SWAP3 PUSH3 0x21B JUMP JUMPDEST PUSH1 0x0 DUP7 DUP5 DUP4 ADD ADD MSTORE DUP1 SWAP7 POP POP POP POP POP POP POP SWAP3 POP SWAP3 SWAP1 POP JUMP JUMPDEST PUSH1 0x1 DUP2 DUP2 SHR SWAP1 DUP3 AND DUP1 PUSH3 0x267 JUMPI PUSH1 0x7F DUP3 AND SWAP2 POP JUMPDEST PUSH1 0x20 DUP3 LT DUP2 SUB PUSH3 0x288 JUMPI PUSH4 0x4E487B71 PUSH1 0xE0 SHL PUSH1 0x0 MSTORE PUSH1 0x22 PUSH1 0x4 MSTORE PUSH1 0x24 PUSH1 0x0 REVERT JUMPDEST POP SWAP2 SWAP1 POP JUMP JUMPDEST PUSH1 0x1F DUP3 GT ISZERO PUSH3 0x2DE JUMPI PUSH1 0x0 DUP2 PUSH1 0x0 MSTORE PUSH1 0x20 PUSH1 0x0 KECCAK256 PUSH1 0x1F DUP6 ADD PUSH1 0x5 SHR DUP2 ADD PUSH1 0x20 DUP7 LT ISZERO PUSH3 0x2B9 JUMPI POP DUP1 JUMPDEST PUSH1 0x1F DUP6 ADD PUSH1 0x5 SHR DUP3 ADD SWAP2 POP JUMPDEST DUP2 DUP2 LT ISZERO PUSH3 0x2DA JUMPI DUP3 DUP2 SSTORE PUSH1 0x1 ADD PUSH3 0x2C5 JUMP JUMPDEST POP POP POP JUMPDEST POP POP POP JUMP JUMPDEST DUP2 MLOAD PUSH1 0x1 PUSH1 0x1 PUSH1 0x40 SHL SUB DUP2 GT ISZERO PUSH3 0x2FF JUMPI PUSH3 0x2FF PUSH3 0x146 JUMP JUMPDEST PUSH3 0x317 DUP2 PUSH3 0x310 DUP5 SLOAD PUSH3 0x252 JUMP JUMPDEST DUP5 PUSH3 0x28E JUMP JUMPDEST PUSH1 0x20 DUP1 PUSH1 0x1F DUP4 GT PUSH1 0x1 DUP2 EQ PUSH3 0x34F JUMPI PUSH1 0x0 DUP5 ISZERO PUSH3 0x336 JUMPI POP DUP6 DUP4 ADD MLOAD JUMPDEST PUSH1 0x0 NOT PUSH1 0x3 DUP7 SWAP1 SHL SHR NOT AND PUSH1 0x1 DUP6 SWAP1 SHL OR DUP6 SSTORE PUSH3 0x2DA JUMP JUMPDEST PUSH1 0x0 DUP6 DUP2 MSTORE PUSH1 0x20 DUP2 KECCAK256 PUSH1 0x1F NOT DUP7 AND SWAP2 JUMPDEST DUP3 DUP2 LT ISZERO PUSH3 0x380 JUMPI DUP9 DUP7 ADD MLOAD DUP3 SSTORE SWAP5 DUP5 ADD SWAP5 PUSH1 0x1 SWAP1 SWAP2 ADD SWAP1 DUP5 ADD PUSH3 0x35F JUMP JUMPDEST POP DUP6 DUP3 LT ISZERO PUSH3 0x39F JUMPI DUP8 DUP6 ADD MLOAD PUSH1 0x0 NOT PUSH1 0x3 DUP9 SWAP1 SHL PUSH1 0xF8 AND SHR NOT AND DUP2 SSTORE JUMPDEST POP POP POP POP POP PUSH1 0x1 SWAP1 DUP2 SHL ADD SWAP1 SSTORE POP JUMP JUMPDEST PUSH1 0x80 MLOAD PUSH2 0x1AC1 PUSH3 0x3E0 PUSH1 0x0 CODECOPY PUSH1 0x0 DUP2 DUP2 PUSH2 0x22E ADD MSTORE DUP2 DUP2 PUSH2 0x7FE ADD MSTORE DUP2 DUP2 PUSH2 0x930 ADD MSTORE PUSH2 0x1029 ADD MSTORE PUSH2 0x1AC1 PUSH1 0x0 RETURN INVALID PUSH1 0x80 PUSH1 0x40 MSTORE CALLVALUE DUP1 ISZERO PUSH2 0x10 JUMPI PUSH1 0x0 DUP1 REVERT JUMPDEST POP PUSH1 0x4 CALLDATASIZE LT PUSH2 0x1A2 JUMPI PUSH1 0x0 CALLDATALOAD PUSH1 0xE0 SHR DUP1 PUSH4 0x5C975ABB GT PUSH2 0xEE JUMPI DUP1 PUSH4 0x9612DF5C GT PUSH2 0x97 JUMPI DUP1 PUSH4 0xBEF6F540 GT PUSH2 0x71 JUMPI DUP1 PUSH4 0xBEF6F540 EQ PUSH2 0x400 JUMPI DUP1 PUSH4 0xD547741F EQ PUSH2 0x413 JUMPI DUP1 PUSH4 0xEAC989F8 EQ PUSH2 0x426 JUMPI DUP1 PUSH4 0xF0F9243B EQ PUSH2 0x43B JUMPI PUSH1 0x0 DUP1 REVERT JUMPDEST DUP1 PUSH4 0x9612DF5C EQ PUSH2 0x3D2 JUMPI DUP1 PUSH4 0xA217FDDF EQ PUSH2 0x3E5 JUMPI DUP1 PUSH4 0xBD85B039 EQ PUSH2 0x3ED JUMPI PUSH1 0x0 DUP1 REVERT JUMPDEST DUP1 PUSH4 0x8456CB59 GT PUSH2 0xC8 JUMPI DUP1 PUSH4 0x8456CB59 EQ PUSH2 0x380 JUMPI DUP1 PUSH4 0x897A3651 EQ PUSH2 0x388 JUMPI DUP1 PUSH4 0x91D14854 EQ PUSH2 0x39B JUMPI PUSH1 0x0 DUP1 REVERT JUMPDEST DUP1 PUSH4 0x5C975ABB EQ PUSH2 0x359 JUMPI DUP1 PUSH4 0x6EA056A9 EQ PUSH2 0x364 JUMPI DUP1 PUSH4 0x7B3BAAB4 EQ PUSH2 0x377 JUMPI PUSH1 0x0 DUP1 REVERT JUMPDEST DUP1 PUSH4 0x248A9CA3 GT PUSH2 0x150 JUMPI DUP1 PUSH4 0x36568ABE GT PUSH2 0x12A JUMPI DUP1 PUSH4 0x36568ABE EQ PUSH2 0x32B JUMPI DUP1 PUSH4 0x3F4BA83A EQ PUSH2 0x33E JUMPI DUP1 PUSH4 0x441A3E70 EQ PUSH2 0x346 JUMPI PUSH1 0x0 DUP1 REVERT JUMPDEST DUP1 PUSH4 0x248A9CA3 EQ PUSH2 0x268 JUMPI DUP1 PUSH4 0x26C25962 EQ PUSH2 0x28B JUMPI DUP1 PUSH4 0x2F2FF15D EQ PUSH2 0x318 JUMPI PUSH1 0x0 DUP1 REVERT JUMPDEST DUP1 PUSH4 0xBFED82A GT PUSH2 0x181 JUMPI DUP1 PUSH4 0xBFED82A EQ PUSH2 0x217 JUMPI DUP1 PUSH4 0x18160DDD EQ PUSH2 0x221 JUMPI DUP1 PUSH4 0x22BE3DE1 EQ PUSH2 0x229 JUMPI PUSH1 0x0 DUP1 REVERT JUMPDEST DUP1 PUSH3 0xFDD58E EQ PUSH2 0x1A7 JUMPI DUP1 PUSH4 0x1FFC9A7 EQ PUSH2 0x1CD JUMPI DUP1 PUSH4 0x9A01608 EQ PUSH2 0x1F0 JUMPI JUMPDEST PUSH1 0x0 DUP1 REVERT JUMPDEST PUSH2 0x1BA PUSH2 0x1B5 CALLDATASIZE PUSH1 0x4 PUSH2 0x1707 JUMP JUMPDEST PUSH2 0x444 JUMP JUMPDEST PUSH1 0x40 MLOAD SWAP1 DUP2 MSTORE PUSH1 0x20 ADD JUMPDEST PUSH1 0x40 MLOAD DUP1 SWAP2 SUB SWAP1 RETURN JUMPDEST PUSH2 0x1E0 PUSH2 0x1DB CALLDATASIZE PUSH1 0x4 PUSH2 0x1733 JUMP JUMPDEST PUSH2 0x4C7 JUMP JUMPDEST PUSH1 0x40 MLOAD SWAP1 ISZERO ISZERO DUP2 MSTORE PUSH1 0x20 ADD PUSH2 0x1C4 JUMP JUMPDEST PUSH2 0x1BA PUSH32 0x250B76734A070A69C7B3930477DD35007AD9C9D0952E97903FDAFB2DB6980537 DUP2 JUMP JUMPDEST PUSH2 0x21F PUSH2 0x52E JUMP JUMPDEST STOP JUMPDEST PUSH2 0x1BA PUSH2 0x538 JUMP JUMPDEST PUSH2 0x250 PUSH32 0x0 DUP2 JUMP JUMPDEST PUSH1 0x40 MLOAD PUSH1 0x1 PUSH1 0x1 PUSH1 0xA0 SHL SUB SWAP1 SWAP2 AND DUP2 MSTORE PUSH1 0x20 ADD PUSH2 0x1C4 JUMP JUMPDEST PUSH2 0x1BA PUSH2 0x276 CALLDATASIZE PUSH1 0x4 PUSH2 0x1764 JUMP JUMPDEST PUSH1 0x0 SWAP1 DUP2 MSTORE PUSH1 0x20 DUP2 SWAP1 MSTORE PUSH1 0x40 SWAP1 KECCAK256 PUSH1 0x1 ADD SLOAD SWAP1 JUMP JUMPDEST PUSH2 0x2DE PUSH2 0x299 CALLDATASIZE PUSH1 0x4 PUSH2 0x1764 JUMP JUMPDEST PUSH1 0x5 PUSH1 0x20 DUP2 SWAP1 MSTORE PUSH1 0x0 SWAP2 DUP3 MSTORE PUSH1 0x40 SWAP1 SWAP2 KECCAK256 DUP1 SLOAD PUSH1 0x1 DUP3 ADD SLOAD PUSH1 0x2 DUP4 ADD SLOAD PUSH1 0x3 DUP5 ADD SLOAD PUSH1 0x4 DUP6 ADD SLOAD SWAP5 SWAP1 SWAP6 ADD SLOAD PUSH1 0x1 PUSH1 0x1 PUSH1 0xA0 SHL SUB SWAP1 SWAP4 AND SWAP5 SWAP2 SWAP4 SWAP1 SWAP3 PUSH1 0xFF SWAP1 SWAP3 AND SWAP2 DUP7 JUMP JUMPDEST PUSH1 0x40 DUP1 MLOAD PUSH1 0x1 PUSH1 0x1 PUSH1 0xA0 SHL SUB SWAP1 SWAP8 AND DUP8 MSTORE PUSH1 0x20 DUP8 ADD SWAP6 SWAP1 SWAP6 MSTORE SWAP4 DUP6 ADD SWAP3 SWAP1 SWAP3 MSTORE PUSH1 0xFF AND PUSH1 0x60 DUP5 ADD MSTORE PUSH1 0x80 DUP4 ADD MSTORE PUSH1 0xA0 DUP3 ADD MSTORE PUSH1 0xC0 ADD PUSH2 0x1C4 JUMP JUMPDEST PUSH2 0x21F PUSH2 0x326 CALLDATASIZE PUSH1 0x4 PUSH2 0x177D JUMP JUMPDEST PUSH2 0x567 JUMP JUMPDEST PUSH2 0x21F PUSH2 0x339 CALLDATASIZE PUSH1 0x4 PUSH2 0x177D JUMP JUMPDEST PUSH2 0x592 JUMP JUMPDEST PUSH2 0x21F PUSH2 0x5E3 JUMP JUMPDEST PUSH2 0x21F PUSH2 0x354 CALLDATASIZE PUSH1 0x4 PUSH2 0x17AD JUMP JUMPDEST PUSH2 0x5F9 JUMP JUMPDEST PUSH1 0x1 SLOAD PUSH1 0xFF AND PUSH2 0x1E0 JUMP JUMPDEST PUSH2 0x21F PUSH2 0x372 CALLDATASIZE PUSH1 0x4 PUSH2 0x1707 JUMP JUMPDEST PUSH2 0x8FF JUMP JUMPDEST PUSH2 0x1BA PUSH1 0x4 SLOAD DUP2 JUMP JUMPDEST PUSH2 0x21F PUSH2 0x9E9 JUMP JUMPDEST PUSH2 0x21F PUSH2 0x396 CALLDATASIZE PUSH1 0x4 PUSH2 0x181B JUMP JUMPDEST PUSH2 0x9FC JUMP JUMPDEST PUSH2 0x1E0 PUSH2 0x3A9 CALLDATASIZE PUSH1 0x4 PUSH2 0x177D JUMP JUMPDEST PUSH1 0x0 SWAP2 DUP3 MSTORE PUSH1 0x20 DUP3 DUP2 MSTORE PUSH1 0x40 DUP1 DUP5 KECCAK256 PUSH1 0x1 PUSH1 0x1 PUSH1 0xA0 SHL SUB SWAP4 SWAP1 SWAP4 AND DUP5 MSTORE SWAP2 SWAP1 MSTORE SWAP1 KECCAK256 SLOAD PUSH1 0xFF AND SWAP1 JUMP JUMPDEST PUSH2 0x21F PUSH2 0x3E0 CALLDATASIZE PUSH1 0x4 PUSH2 0x1895 JUMP JUMPDEST PUSH2 0xCC0 JUMP JUMPDEST PUSH2 0x1BA PUSH1 0x0 DUP2 JUMP JUMPDEST PUSH2 0x1BA PUSH2 0x3FB CALLDATASIZE PUSH1 0x4 PUSH2 0x1764 JUMP JUMPDEST PUSH2 0xF2D JUMP JUMPDEST PUSH2 0x21F PUSH2 0x40E CALLDATASIZE PUSH1 0x4 PUSH2 0x1764 JUMP JUMPDEST PUSH2 0xFBC JUMP JUMPDEST PUSH2 0x21F PUSH2 0x421 CALLDATASIZE PUSH1 0x4 PUSH2 0x177D JUMP JUMPDEST PUSH2 0x12AB JUMP JUMPDEST PUSH2 0x42E PUSH2 0x12D0 JUMP JUMPDEST PUSH1 0x40 MLOAD PUSH2 0x1C4 SWAP2 SWAP1 PUSH2 0x18ED JUMP JUMPDEST PUSH2 0x1BA PUSH1 0x3 SLOAD DUP2 JUMP JUMPDEST PUSH1 0x0 DUP2 DUP2 MSTORE PUSH1 0x5 PUSH1 0x20 MSTORE PUSH1 0x40 DUP1 DUP3 KECCAK256 SLOAD SWAP1 MLOAD PUSH4 0x70A08231 PUSH1 0xE0 SHL DUP2 MSTORE PUSH1 0x1 PUSH1 0x1 PUSH1 0xA0 SHL SUB DUP6 DUP2 AND PUSH1 0x4 DUP4 ADD MSTORE SWAP1 SWAP2 AND SWAP1 PUSH4 0x70A08231 SWAP1 PUSH1 0x24 ADD PUSH1 0x20 PUSH1 0x40 MLOAD DUP1 DUP4 SUB DUP2 DUP7 GAS STATICCALL ISZERO DUP1 ISZERO PUSH2 0x49A JUMPI RETURNDATASIZE PUSH1 0x0 DUP1 RETURNDATACOPY RETURNDATASIZE PUSH1 0x0 REVERT JUMPDEST POP POP POP POP PUSH1 0x40 MLOAD RETURNDATASIZE PUSH1 0x1F NOT PUSH1 0x1F DUP3 ADD AND DUP3 ADD DUP1 PUSH1 0x40 MSTORE POP DUP2 ADD SWAP1 PUSH2 0x4BE SWAP2 SWAP1 PUSH2 0x193C JUMP JUMPDEST SWAP1 POP JUMPDEST SWAP3 SWAP2 POP POP JUMP JUMPDEST PUSH1 0x0 PUSH1 0x1 PUSH1 0x1 PUSH1 0xE0 SHL SUB NOT DUP3 AND PUSH32 0x7965DB0B00000000000000000000000000000000000000000000000000000000 EQ DUP1 PUSH2 0x4C1 JUMPI POP PUSH32 0x1FFC9A700000000000000000000000000000000000000000000000000000000 PUSH1 0x1 PUSH1 0x1 PUSH1 0xE0 SHL SUB NOT DUP4 AND EQ PUSH2 0x4C1 JUMP JUMPDEST PUSH2 0x536 PUSH2 0x135E JUMP JUMPDEST JUMP JUMPDEST PUSH1 0x0 DUP1 JUMPDEST PUSH1 0x3 SLOAD DUP2 LT ISZERO PUSH2 0x563 JUMPI PUSH2 0x54F DUP2 PUSH2 0xF2D JUMP JUMPDEST PUSH2 0x559 SWAP1 DUP4 PUSH2 0x196B JUMP JUMPDEST SWAP2 POP PUSH1 0x1 ADD PUSH2 0x53C JUMP JUMPDEST POP SWAP1 JUMP JUMPDEST PUSH1 0x0 DUP3 DUP2 MSTORE PUSH1 0x20 DUP2 SWAP1 MSTORE PUSH1 0x40 SWAP1 KECCAK256 PUSH1 0x1 ADD SLOAD PUSH2 0x582 DUP2 PUSH2 0x1407 JUMP JUMPDEST PUSH2 0x58C DUP4 DUP4 PUSH2 0x1411 JUMP JUMPDEST POP POP POP POP JUMP JUMPDEST PUSH1 0x1 PUSH1 0x1 PUSH1 0xA0 SHL SUB DUP2 AND CALLER EQ PUSH2 0x5D4 JUMPI PUSH1 0x40 MLOAD PUSH32 0x6697B23200000000000000000000000000000000000000000000000000000000 DUP2 MSTORE PUSH1 0x4 ADD PUSH1 0x40 MLOAD DUP1 SWAP2 SUB SWAP1 REVERT JUMPDEST PUSH2 0x5DE DUP3 DUP3 PUSH2 0x14BB JUMP JUMPDEST POP POP POP JUMP JUMPDEST PUSH1 0x0 PUSH2 0x5EE DUP2 PUSH2 0x1407 JUMP JUMPDEST PUSH2 0x5F6 PUSH2 0x153E JUMP JUMPDEST POP JUMP JUMPDEST PUSH2 0x601 PUSH2 0x1590 JUMP JUMPDEST PUSH1 0x0 DUP3 DUP2 MSTORE PUSH1 0x5 PUSH1 0x20 MSTORE PUSH1 0x40 SWAP1 DUP2 SWAP1 KECCAK256 DUP1 SLOAD SWAP2 MLOAD PUSH4 0x70A08231 PUSH1 0xE0 SHL DUP2 MSTORE CALLER PUSH1 0x4 DUP3 ADD MSTORE SWAP1 SWAP2 PUSH1 0x1 PUSH1 0x1 PUSH1 0xA0 SHL SUB AND SWAP1 DUP4 SWAP1 DUP3 SWAP1 PUSH4 0x70A08231 SWAP1 PUSH1 0x24 ADD PUSH1 0x20 PUSH1 0x40 MLOAD DUP1 DUP4 SUB DUP2 DUP7 GAS STATICCALL ISZERO DUP1 ISZERO PUSH2 0x65B JUMPI RETURNDATASIZE PUSH1 0x0 DUP1 RETURNDATACOPY RETURNDATASIZE PUSH1 0x0 REVERT JUMPDEST POP POP POP POP PUSH1 0x40 MLOAD RETURNDATASIZE PUSH1 0x1F NOT PUSH1 0x1F DUP3 ADD AND DUP3 ADD DUP1 PUSH1 0x40 MSTORE POP DUP2 ADD SWAP1 PUSH2 0x67F SWAP2 SWAP1 PUSH2 0x193C JUMP JUMPDEST LT ISZERO PUSH2 0x6D2 JUMPI PUSH1 0x40 MLOAD PUSH3 0x461BCD PUSH1 0xE5 SHL DUP2 MSTORE PUSH1 0x20 PUSH1 0x4 DUP3 ADD MSTORE PUSH1 0x10 PUSH1 0x24 DUP3 ADD MSTORE PUSH32 0x494E53554646494349454E545F42414C00000000000000000000000000000000 PUSH1 0x44 DUP3 ADD MSTORE PUSH1 0x64 ADD JUMPDEST PUSH1 0x40 MLOAD DUP1 SWAP2 SUB SWAP1 REVERT JUMPDEST PUSH1 0x0 DUP2 PUSH1 0x1 PUSH1 0x1 PUSH1 0xA0 SHL SUB AND PUSH4 0x18160DDD PUSH1 0x40 MLOAD DUP2 PUSH4 0xFFFFFFFF AND PUSH1 0xE0 SHL DUP2 MSTORE PUSH1 0x4 ADD PUSH1 0x20 PUSH1 0x40 MLOAD DUP1 DUP4 SUB DUP2 DUP7 GAS STATICCALL ISZERO DUP1 ISZERO PUSH2 0x712 JUMPI RETURNDATASIZE PUSH1 0x0 DUP1 RETURNDATACOPY RETURNDATASIZE PUSH1 0x0 REVERT JUMPDEST POP POP POP POP PUSH1 0x40 MLOAD RETURNDATASIZE PUSH1 0x1F NOT PUSH1 0x1F DUP3 ADD AND DUP3 ADD DUP1 PUSH1 0x40 MSTORE POP DUP2 ADD SWAP1 PUSH2 0x736 SWAP2 SWAP1 PUSH2 0x193C JUMP JUMPDEST DUP5 DUP5 PUSH1 0x5 ADD SLOAD PUSH2 0x746 SWAP2 SWAP1 PUSH2 0x197E JUMP JUMPDEST PUSH2 0x750 SWAP2 SWAP1 PUSH2 0x1995 JUMP JUMPDEST SWAP1 POP DUP1 DUP4 PUSH1 0x5 ADD PUSH1 0x0 DUP3 DUP3 SLOAD PUSH2 0x766 SWAP2 SWAP1 PUSH2 0x19B7 JUMP JUMPDEST SWAP1 SWAP2 SSTORE POP POP PUSH1 0x40 MLOAD PUSH32 0x9DC29FAC00000000000000000000000000000000000000000000000000000000 DUP2 MSTORE CALLER PUSH1 0x4 DUP3 ADD MSTORE PUSH1 0x24 DUP2 ADD DUP6 SWAP1 MSTORE PUSH1 0x1 PUSH1 0x1 PUSH1 0xA0 SHL SUB DUP4 AND SWAP1 PUSH4 0x9DC29FAC SWAP1 PUSH1 0x44 ADD PUSH1 0x0 PUSH1 0x40 MLOAD DUP1 DUP4 SUB DUP2 PUSH1 0x0 DUP8 DUP1 EXTCODESIZE ISZERO DUP1 ISZERO PUSH2 0x7CC JUMPI PUSH1 0x0 DUP1 REVERT JUMPDEST POP GAS CALL ISZERO DUP1 ISZERO PUSH2 0x7E0 JUMPI RETURNDATASIZE PUSH1 0x0 DUP1 RETURNDATACOPY RETURNDATASIZE PUSH1 0x0 REVERT JUMPDEST POP POP PUSH1 0x40 MLOAD PUSH4 0xA9059CBB PUSH1 0xE0 SHL DUP2 MSTORE CALLER PUSH1 0x4 DUP3 ADD MSTORE PUSH1 0x24 DUP2 ADD DUP5 SWAP1 MSTORE PUSH32 0x0 PUSH1 0x1 PUSH1 0x1 PUSH1 0xA0 SHL SUB AND SWAP3 POP PUSH4 0xA9059CBB SWAP2 POP PUSH1 0x44 ADD PUSH1 0x20 PUSH1 0x40 MLOAD DUP1 DUP4 SUB DUP2 PUSH1 0x0 DUP8 GAS CALL ISZERO DUP1 ISZERO PUSH2 0x851 JUMPI RETURNDATASIZE PUSH1 0x0 DUP1 RETURNDATACOPY RETURNDATASIZE PUSH1 0x0 REVERT JUMPDEST POP POP POP POP PUSH1 0x40 MLOAD RETURNDATASIZE PUSH1 0x1F NOT PUSH1 0x1F DUP3 ADD AND DUP3 ADD DUP1 PUSH1 0x40 MSTORE POP DUP2 ADD SWAP1 PUSH2 0x875 SWAP2 SWAP1 PUSH2 0x19CA JUMP JUMPDEST PUSH2 0x8C1 JUMPI PUSH1 0x40 MLOAD PUSH3 0x461BCD PUSH1 0xE5 SHL DUP2 MSTORE PUSH1 0x20 PUSH1 0x4 DUP3 ADD MSTORE PUSH1 0x16 PUSH1 0x24 DUP3 ADD MSTORE PUSH32 0x535441424C455F5452414E534645525F4641494C454400000000000000000000 PUSH1 0x44 DUP3 ADD MSTORE PUSH1 0x64 ADD PUSH2 0x6C9 JUMP JUMPDEST PUSH1 0x40 MLOAD DUP2 DUP2 MSTORE DUP6 SWAP1 CALLER SWAP1 PUSH32 0xF279E6A1F5E320CCA91135676D9CB6E44CA8A08C0B88342BCDB1144F6511B568 SWAP1 PUSH1 0x20 ADD PUSH1 0x40 MLOAD DUP1 SWAP2 SUB SWAP1 LOG3 POP POP POP POP POP JUMP JUMPDEST PUSH1 0x0 PUSH2 0x90A DUP2 PUSH2 0x1407 JUMP JUMPDEST PUSH1 0x40 MLOAD PUSH4 0xA9059CBB PUSH1 0xE0 SHL DUP2 MSTORE PUSH1 0x1 PUSH1 0x1 PUSH1 0xA0 SHL SUB DUP5 DUP2 AND PUSH1 0x4 DUP4 ADD MSTORE PUSH1 0x24 DUP3 ADD DUP5 SWAP1 MSTORE PUSH32 0x0 AND SWAP1 PUSH4 0xA9059CBB SWAP1 PUSH1 0x44 ADD PUSH1 0x20 PUSH1 0x40 MLOAD DUP1 DUP4 SUB DUP2 PUSH1 0x0 DUP8 GAS CALL ISZERO DUP1 ISZERO PUSH2 0x979 JUMPI RETURNDATASIZE PUSH1 0x0 DUP1 RETURNDATACOPY RETURNDATASIZE PUSH1 0x0 REVERT JUMPDEST POP POP POP POP PUSH1 0x40 MLOAD RETURNDATASIZE PUSH1 0x1F NOT PUSH1 0x1F DUP3 ADD AND DUP3 ADD DUP1 PUSH1 0x40 MSTORE POP DUP2 ADD SWAP1 PUSH2 0x99D SWAP2 SWAP1 PUSH2 0x19CA JUMP JUMPDEST PUSH2 0x5DE JUMPI PUSH1 0x40 MLOAD PUSH3 0x461BCD PUSH1 0xE5 SHL DUP2 MSTORE PUSH1 0x20 PUSH1 0x4 DUP3 ADD MSTORE PUSH1 0xC PUSH1 0x24 DUP3 ADD MSTORE PUSH32 0x53574545505F4641494C45440000000000000000000000000000000000000000 PUSH1 0x44 DUP3 ADD MSTORE PUSH1 0x64 ADD PUSH2 0x6C9 JUMP JUMPDEST PUSH1 0x0 PUSH2 0x9F4 DUP2 PUSH2 0x1407 JUMP JUMPDEST PUSH2 0x5F6 PUSH2 0x15CD JUMP JUMPDEST PUSH1 0x0 PUSH2 0xA07 DUP2 PUSH2 0x1407 JUMP JUMPDEST PUSH1 0x0 DUP7 DUP2 MSTORE PUSH1 0x5 PUSH1 0x20 MSTORE PUSH1 0x40 SWAP1 KECCAK256 SLOAD PUSH1 0x1 PUSH1 0x1 PUSH1 0xA0 SHL SUB AND DUP5 DUP4 EQ PUSH2 0xA6E JUMPI PUSH1 0x40 MLOAD PUSH3 0x461BCD PUSH1 0xE5 SHL DUP2 MSTORE PUSH1 0x20 PUSH1 0x4 DUP3 ADD MSTORE PUSH1 0x15 PUSH1 0x24 DUP3 ADD MSTORE PUSH32 0x41525241595F4C454E4754485F4D49534D415443480000000000000000000000 PUSH1 0x44 DUP3 ADD MSTORE PUSH1 0x64 ADD PUSH2 0x6C9 JUMP JUMPDEST PUSH2 0xAAA DUP5 DUP5 DUP1 DUP1 PUSH1 0x20 MUL PUSH1 0x20 ADD PUSH1 0x40 MLOAD SWAP1 DUP2 ADD PUSH1 0x40 MSTORE DUP1 SWAP4 SWAP3 SWAP2 SWAP1 DUP2 DUP2 MSTORE PUSH1 0x20 ADD DUP4 DUP4 PUSH1 0x20 MUL DUP1 DUP3 DUP5 CALLDATACOPY PUSH1 0x0 SWAP3 ADD SWAP2 SWAP1 SWAP2 MSTORE POP PUSH2 0x1608 SWAP3 POP POP POP JUMP JUMPDEST PUSH1 0x40 MLOAD PUSH4 0x70A08231 PUSH1 0xE0 SHL DUP2 MSTORE ADDRESS PUSH1 0x4 DUP3 ADD MSTORE PUSH1 0x1 PUSH1 0x1 PUSH1 0xA0 SHL SUB DUP4 AND SWAP1 PUSH4 0x70A08231 SWAP1 PUSH1 0x24 ADD PUSH1 0x20 PUSH1 0x40 MLOAD DUP1 DUP4 SUB DUP2 DUP7 GAS STATICCALL ISZERO DUP1 ISZERO PUSH2 0xAEE JUMPI RETURNDATASIZE PUSH1 0x0 DUP1 RETURNDATACOPY RETURNDATASIZE PUSH1 0x0 REVERT JUMPDEST POP POP POP POP PUSH1 0x40 MLOAD RETURNDATASIZE PUSH1 0x1F NOT PUSH1 0x1F DUP3 ADD AND DUP3 ADD DUP1 PUSH1 0x40 MSTORE POP DUP2 ADD SWAP1 PUSH2 0xB12 SWAP2 SWAP1 PUSH2 0x193C JUMP JUMPDEST LT ISZERO PUSH2 0xB60 JUMPI PUSH1 0x40 MLOAD PUSH3 0x461BCD PUSH1 0xE5 SHL DUP2 MSTORE PUSH1 0x20 PUSH1 0x4 DUP3 ADD MSTORE PUSH1 0x16 PUSH1 0x24 DUP3 ADD MSTORE PUSH32 0x494E53554646494349454E545F41444D494E5F42414C00000000000000000000 PUSH1 0x44 DUP3 ADD MSTORE PUSH1 0x64 ADD PUSH2 0x6C9 JUMP JUMPDEST PUSH1 0x0 JUMPDEST DUP6 DUP2 LT ISZERO PUSH2 0xCB6 JUMPI DUP2 PUSH1 0x1 PUSH1 0x1 PUSH1 0xA0 SHL SUB AND PUSH4 0xA9059CBB DUP9 DUP9 DUP5 DUP2 DUP2 LT PUSH2 0xB8C JUMPI PUSH2 0xB8C PUSH2 0x19EC JUMP JUMPDEST SWAP1 POP PUSH1 0x20 MUL ADD PUSH1 0x20 DUP2 ADD SWAP1 PUSH2 0xBA1 SWAP2 SWAP1 PUSH2 0x1A02 JUMP JUMPDEST DUP8 DUP8 DUP6 DUP2 DUP2 LT PUSH2 0xBB3 JUMPI PUSH2 0xBB3 PUSH2 0x19EC JUMP JUMPDEST PUSH1 0x40 MLOAD PUSH1 0x1 PUSH1 0x1 PUSH1 0xE0 SHL SUB NOT PUSH1 0xE0 DUP8 SWAP1 SHL AND DUP2 MSTORE PUSH1 0x1 PUSH1 0x1 PUSH1 0xA0 SHL SUB SWAP1 SWAP5 AND PUSH1 0x4 DUP6 ADD MSTORE PUSH1 0x20 MUL SWAP2 SWAP1 SWAP2 ADD CALLDATALOAD PUSH1 0x24 DUP4 ADD MSTORE POP PUSH1 0x44 ADD PUSH1 0x20 PUSH1 0x40 MLOAD DUP1 DUP4 SUB DUP2 PUSH1 0x0 DUP8 GAS CALL ISZERO DUP1 ISZERO PUSH2 0xC07 JUMPI RETURNDATASIZE PUSH1 0x0 DUP1 RETURNDATACOPY RETURNDATASIZE PUSH1 0x0 REVERT JUMPDEST POP POP POP POP PUSH1 0x40 MLOAD RETURNDATASIZE PUSH1 0x1F NOT PUSH1 0x1F DUP3 ADD AND DUP3 ADD DUP1 PUSH1 0x40 MSTORE POP DUP2 ADD SWAP1 PUSH2 0xC2B SWAP2 SWAP1 PUSH2 0x19CA JUMP JUMPDEST POP DUP7 DUP7 DUP3 DUP2 DUP2 LT PUSH2 0xC3E JUMPI PUSH2 0xC3E PUSH2 0x19EC JUMP JUMPDEST SWAP1 POP PUSH1 0x20 MUL ADD PUSH1 0x20 DUP2 ADD SWAP1 PUSH2 0xC53 SWAP2 SWAP1 PUSH2 0x1A02 JUMP JUMPDEST PUSH1 0x1 PUSH1 0x1 PUSH1 0xA0 SHL SUB AND DUP9 PUSH32 0xB6BCAB815B7A952B8759F2F92FC9981DC1156F6C11BF4DC7E9CB3036495E653A DUP8 DUP8 DUP6 DUP2 DUP2 LT PUSH2 0xC90 JUMPI PUSH2 0xC90 PUSH2 0x19EC JUMP JUMPDEST SWAP1 POP PUSH1 0x20 MUL ADD CALLDATALOAD PUSH1 0x40 MLOAD PUSH2 0xCA6 SWAP2 DUP2 MSTORE PUSH1 0x20 ADD SWAP1 JUMP JUMPDEST PUSH1 0x40 MLOAD DUP1 SWAP2 SUB SWAP1 LOG3 PUSH1 0x1 ADD PUSH2 0xB63 JUMP JUMPDEST POP POP POP POP POP POP POP POP JUMP JUMPDEST PUSH1 0x0 PUSH2 0xCCB DUP2 PUSH2 0x1407 JUMP JUMPDEST PUSH1 0x0 DUP6 GT PUSH2 0xD1B JUMPI PUSH1 0x40 MLOAD PUSH3 0x461BCD PUSH1 0xE5 SHL DUP2 MSTORE PUSH1 0x20 PUSH1 0x4 DUP3 ADD MSTORE PUSH1 0x11 PUSH1 0x24 DUP3 ADD MSTORE PUSH32 0x494E56414C49445F5052494E434950414C000000000000000000000000000000 PUSH1 0x44 DUP3 ADD MSTORE PUSH1 0x64 ADD PUSH2 0x6C9 JUMP JUMPDEST PUSH1 0x0 DUP3 GT PUSH2 0xD6B JUMPI PUSH1 0x40 MLOAD PUSH3 0x461BCD PUSH1 0xE5 SHL DUP2 MSTORE PUSH1 0x20 PUSH1 0x4 DUP3 ADD MSTORE PUSH1 0xE PUSH1 0x24 DUP3 ADD MSTORE PUSH32 0x494E56414C49445F535550504C59000000000000000000000000000000000000 PUSH1 0x44 DUP3 ADD MSTORE PUSH1 0x64 ADD PUSH2 0x6C9 JUMP JUMPDEST DUP6 PUSH1 0x1 PUSH1 0x1 PUSH1 0xA0 SHL SUB AND PUSH4 0x18160DDD PUSH1 0x40 MLOAD DUP2 PUSH4 0xFFFFFFFF AND PUSH1 0xE0 SHL DUP2 MSTORE PUSH1 0x4 ADD PUSH1 0x20 PUSH1 0x40 MLOAD DUP1 DUP4 SUB DUP2 DUP7 GAS STATICCALL ISZERO DUP1 ISZERO PUSH2 0xDA9 JUMPI RETURNDATASIZE PUSH1 0x0 DUP1 RETURNDATACOPY RETURNDATASIZE PUSH1 0x0 REVERT JUMPDEST POP POP POP POP PUSH1 0x40 MLOAD RETURNDATASIZE PUSH1 0x1F NOT PUSH1 0x1F DUP3 ADD AND DUP3 ADD DUP1 PUSH1 0x40 MSTORE POP DUP2 ADD SWAP1 PUSH2 0xDCD SWAP2 SWAP1 PUSH2 0x193C JUMP JUMPDEST DUP3 EQ PUSH2 0xE1B JUMPI PUSH1 0x40 MLOAD PUSH3 0x461BCD PUSH1 0xE5 SHL DUP2 MSTORE PUSH1 0x20 PUSH1 0x4 DUP3 ADD MSTORE PUSH1 0x14 PUSH1 0x24 DUP3 ADD MSTORE PUSH32 0x494E56414C49445F544F4B454E5F535550504C59000000000000000000000000 PUSH1 0x44 DUP3 ADD MSTORE PUSH1 0x64 ADD PUSH2 0x6C9 JUMP JUMPDEST PUSH1 0x3 SLOAD PUSH2 0xE29 DUP2 PUSH1 0x1 PUSH2 0x196B JUMP JUMPDEST PUSH1 0x3 SWAP1 DUP2 SSTORE PUSH1 0x40 DUP1 MLOAD PUSH1 0xC0 DUP2 ADD DUP3 MSTORE PUSH1 0x1 PUSH1 0x1 PUSH1 0xA0 SHL SUB DUP11 DUP2 AND DUP3 MSTORE PUSH1 0x20 DUP1 DUP4 ADD DUP12 DUP2 MSTORE DUP4 DUP6 ADD DUP12 DUP2 MSTORE PUSH1 0xFF DUP12 DUP2 AND PUSH1 0x60 DUP1 DUP9 ADD DUP3 DUP2 MSTORE PUSH1 0x0 PUSH1 0x80 DUP1 DUP12 ADD DUP3 DUP2 MSTORE PUSH1 0xA0 DUP13 ADD DUP4 DUP2 MSTORE DUP16 DUP5 MSTORE PUSH1 0x5 DUP1 DUP13 MSTORE SWAP4 DUP15 SWAP1 KECCAK256 SWAP13 MLOAD DUP14 SLOAD PUSH32 0xFFFFFFFFFFFFFFFFFFFFFFFF0000000000000000000000000000000000000000 AND SWAP13 AND SWAP12 SWAP1 SWAP12 OR DUP13 SSTORE SWAP8 MLOAD PUSH1 0x1 DUP13 ADD SSTORE SWAP6 MLOAD PUSH1 0x2 DUP12 ADD SSTORE SWAP1 MLOAD SWAP11 DUP10 ADD DUP1 SLOAD PUSH1 0xFF NOT AND SWAP12 SWAP1 SWAP5 AND SWAP11 SWAP1 SWAP11 OR SWAP1 SWAP3 SSTORE SWAP3 MLOAD PUSH1 0x4 DUP8 ADD SSTORE SWAP4 MLOAD SWAP5 SWAP1 SWAP7 ADD SWAP4 SWAP1 SWAP4 SSTORE DUP4 MLOAD DUP12 DUP2 MSTORE SWAP1 DUP2 ADD DUP11 SWAP1 MSTORE SWAP3 DUP4 ADD SWAP2 SWAP1 SWAP2 MSTORE DUP2 ADD DUP6 SWAP1 MSTORE DUP3 SWAP2 PUSH32 0x564B343AD33DBF7EB84EF778355BE83DF7B0A44CE6021E56D7BD757A03C03544 SWAP2 ADD PUSH1 0x40 MLOAD DUP1 SWAP2 SUB SWAP1 LOG2 POP POP POP POP POP POP POP JUMP JUMPDEST PUSH1 0x0 DUP2 DUP2 MSTORE PUSH1 0x5 PUSH1 0x20 SWAP1 DUP2 MSTORE PUSH1 0x40 DUP1 DUP4 KECCAK256 SLOAD DUP2 MLOAD PUSH32 0x18160DDD00000000000000000000000000000000000000000000000000000000 DUP2 MSTORE SWAP2 MLOAD PUSH1 0x1 PUSH1 0x1 PUSH1 0xA0 SHL SUB SWAP1 SWAP2 AND SWAP3 PUSH4 0x18160DDD SWAP3 PUSH1 0x4 DUP1 DUP3 ADD SWAP4 SWAP2 DUP3 SWAP1 SUB ADD DUP2 DUP7 GAS STATICCALL ISZERO DUP1 ISZERO PUSH2 0xF98 JUMPI RETURNDATASIZE PUSH1 0x0 DUP1 RETURNDATACOPY RETURNDATASIZE PUSH1 0x0 REVERT JUMPDEST POP POP POP POP PUSH1 0x40 MLOAD RETURNDATASIZE PUSH1 0x1F NOT PUSH1 0x1F DUP3 ADD AND DUP3 ADD DUP1 PUSH1 0x40 MSTORE POP DUP2 ADD SWAP1 PUSH2 0x4C1 SWAP2 SWAP1 PUSH2 0x193C JUMP JUMPDEST PUSH2 0xFC4 PUSH2 0x1590 JUMP JUMPDEST PUSH32 0x250B76734A070A69C7B3930477DD35007AD9C9D0952E97903FDAFB2DB6980537 PUSH2 0xFEE DUP2 PUSH2 0x1407 JUMP JUMPDEST PUSH1 0x40 MLOAD PUSH32 0x23B872DD00000000000000000000000000000000000000000000000000000000 DUP2 MSTORE CALLER PUSH1 0x4 DUP3 ADD MSTORE ADDRESS PUSH1 0x24 DUP3 ADD MSTORE PUSH1 0x44 DUP2 ADD DUP4 SWAP1 MSTORE PUSH32 0x0 PUSH1 0x1 PUSH1 0x1 PUSH1 0xA0 SHL SUB AND SWAP1 PUSH4 0x23B872DD SWAP1 PUSH1 0x64 ADD PUSH1 0x20 PUSH1 0x40 MLOAD DUP1 DUP4 SUB DUP2 PUSH1 0x0 DUP8 GAS CALL ISZERO DUP1 ISZERO PUSH2 0x107A JUMPI RETURNDATASIZE PUSH1 0x0 DUP1 RETURNDATACOPY RETURNDATASIZE PUSH1 0x0 REVERT JUMPDEST POP POP POP POP PUSH1 0x40 MLOAD RETURNDATASIZE PUSH1 0x1F NOT PUSH1 0x1F DUP3 ADD AND DUP3 ADD DUP1 PUSH1 0x40 MSTORE POP DUP2 ADD SWAP1 PUSH2 0x109E SWAP2 SWAP1 PUSH2 0x19CA JUMP JUMPDEST PUSH2 0x10EA JUMPI PUSH1 0x40 MLOAD PUSH3 0x461BCD PUSH1 0xE5 SHL DUP2 MSTORE PUSH1 0x20 PUSH1 0x4 DUP3 ADD MSTORE PUSH1 0xF PUSH1 0x24 DUP3 ADD MSTORE PUSH32 0x5452414E534645525F4641494C45440000000000000000000000000000000000 PUSH1 0x44 DUP3 ADD MSTORE PUSH1 0x64 ADD PUSH2 0x6C9 JUMP JUMPDEST PUSH2 0x10F2 PUSH2 0x135E JUMP JUMPDEST DUP2 PUSH1 0x0 JUMPDEST PUSH1 0xFF DUP2 PUSH1 0xFF AND LT DUP1 ISZERO PUSH2 0x1109 JUMPI POP PUSH1 0x0 DUP3 GT JUMPDEST ISZERO PUSH2 0x1267 JUMPI PUSH1 0x0 JUMPDEST PUSH1 0x3 SLOAD DUP2 LT DUP1 ISZERO PUSH2 0x1122 JUMPI POP PUSH1 0x0 DUP4 GT JUMPDEST ISZERO PUSH2 0x1256 JUMPI PUSH1 0x0 DUP2 DUP2 MSTORE PUSH1 0x5 PUSH1 0x20 MSTORE PUSH1 0x40 SWAP1 KECCAK256 PUSH1 0x3 DUP2 ADD SLOAD PUSH1 0xFF DUP5 DUP2 AND SWAP2 AND EQ PUSH2 0x114C JUMPI POP PUSH2 0x1246 JUMP JUMPDEST PUSH1 0x0 DUP5 DUP3 PUSH1 0x4 ADD SLOAD GT ISZERO PUSH2 0x1160 JUMPI DUP5 PUSH2 0x1166 JUMP JUMPDEST DUP2 PUSH1 0x4 ADD SLOAD JUMPDEST SWAP1 POP DUP1 DUP3 PUSH1 0x4 ADD PUSH1 0x0 DUP3 DUP3 SLOAD PUSH2 0x117C SWAP2 SWAP1 PUSH2 0x19B7 JUMP JUMPDEST SWAP3 POP POP DUP2 SWAP1 SSTORE POP DUP1 DUP3 PUSH1 0x5 ADD PUSH1 0x0 DUP3 DUP3 SLOAD PUSH2 0x1197 SWAP2 SWAP1 PUSH2 0x196B JUMP JUMPDEST SWAP1 SWAP2 SSTORE POP PUSH2 0x11A7 SWAP1 POP DUP2 DUP7 PUSH2 0x19B7 JUMP JUMPDEST SWAP5 POP PUSH1 0x0 DUP6 DUP4 PUSH1 0x1 ADD SLOAD GT ISZERO PUSH2 0x11BD JUMPI DUP6 PUSH2 0x11C3 JUMP JUMPDEST DUP3 PUSH1 0x1 ADD SLOAD JUMPDEST SWAP1 POP DUP1 DUP4 PUSH1 0x1 ADD PUSH1 0x0 DUP3 DUP3 SLOAD PUSH2 0x11D9 SWAP2 SWAP1 PUSH2 0x19B7 JUMP JUMPDEST SWAP3 POP POP DUP2 SWAP1 SSTORE POP DUP1 DUP4 PUSH1 0x5 ADD PUSH1 0x0 DUP3 DUP3 SLOAD PUSH2 0x11F4 SWAP2 SWAP1 PUSH2 0x196B JUMP JUMPDEST SWAP1 SWAP2 SSTORE POP PUSH2 0x1204 SWAP1 POP DUP2 DUP8 PUSH2 0x19B7 JUMP JUMPDEST PUSH1 0x40 DUP1 MLOAD DUP5 DUP2 MSTORE PUSH1 0x20 DUP2 ADD DUP5 SWAP1 MSTORE SWAP2 SWAP8 POP DUP6 SWAP2 PUSH32 0xC679124717471D056FE130FB8066CE200851EEC03C00256EE1158B7D2354036F SWAP2 ADD PUSH1 0x40 MLOAD DUP1 SWAP2 SUB SWAP1 LOG2 POP POP POP JUMPDEST PUSH2 0x124F DUP2 PUSH2 0x1A1F JUMP JUMPDEST SWAP1 POP PUSH2 0x1111 JUMP JUMPDEST POP PUSH2 0x1260 DUP2 PUSH2 0x1A38 JUMP JUMPDEST SWAP1 POP PUSH2 0x10F6 JUMP JUMPDEST POP PUSH1 0x40 DUP1 MLOAD PUSH1 0x0 DUP2 MSTORE PUSH1 0x20 DUP2 ADD DUP4 SWAP1 MSTORE PUSH1 0x0 NOT SWAP2 PUSH32 0xC679124717471D056FE130FB8066CE200851EEC03C00256EE1158B7D2354036F SWAP2 ADD PUSH1 0x40 MLOAD DUP1 SWAP2 SUB SWAP1 LOG2 POP POP POP JUMP JUMPDEST PUSH1 0x0 DUP3 DUP2 MSTORE PUSH1 0x20 DUP2 SWAP1 MSTORE PUSH1 0x40 SWAP1 KECCAK256 PUSH1 0x1 ADD SLOAD PUSH2 0x12C6 DUP2 PUSH2 0x1407 JUMP JUMPDEST PUSH2 0x58C DUP4 DUP4 PUSH2 0x14BB JUMP JUMPDEST PUSH1 0x2 DUP1 SLOAD PUSH2 0x12DD SWAP1 PUSH2 0x1A57 JUMP JUMPDEST DUP1 PUSH1 0x1F ADD PUSH1 0x20 DUP1 SWAP2 DIV MUL PUSH1 0x20 ADD PUSH1 0x40 MLOAD SWAP1 DUP2 ADD PUSH1 0x40 MSTORE DUP1 SWAP3 SWAP2 SWAP1 DUP2 DUP2 MSTORE PUSH1 0x20 ADD DUP3 DUP1 SLOAD PUSH2 0x1309 SWAP1 PUSH2 0x1A57 JUMP JUMPDEST DUP1 ISZERO PUSH2 0x1356 JUMPI DUP1 PUSH1 0x1F LT PUSH2 0x132B JUMPI PUSH2 0x100 DUP1 DUP4 SLOAD DIV MUL DUP4 MSTORE SWAP2 PUSH1 0x20 ADD SWAP2 PUSH2 0x1356 JUMP JUMPDEST DUP3 ADD SWAP2 SWAP1 PUSH1 0x0 MSTORE PUSH1 0x20 PUSH1 0x0 KECCAK256 SWAP1 JUMPDEST DUP2 SLOAD DUP2 MSTORE SWAP1 PUSH1 0x1 ADD SWAP1 PUSH1 0x20 ADD DUP1 DUP4 GT PUSH2 0x1339 JUMPI DUP3 SWAP1 SUB PUSH1 0x1F AND DUP3 ADD SWAP2 JUMPDEST POP POP POP POP POP DUP2 JUMP JUMPDEST PUSH1 0x0 PUSH1 0x4 SLOAD TIMESTAMP PUSH2 0x136E SWAP2 SWAP1 PUSH2 0x19B7 JUMP JUMPDEST SWAP1 POP DUP1 PUSH1 0x0 SUB PUSH2 0x137B JUMPI POP JUMP JUMPDEST TIMESTAMP PUSH1 0x4 SSTORE PUSH1 0x0 JUMPDEST PUSH1 0x3 SLOAD DUP2 LT ISZERO PUSH2 0x1403 JUMPI PUSH1 0x0 DUP2 DUP2 MSTORE PUSH1 0x5 PUSH1 0x20 MSTORE PUSH1 0x40 DUP2 KECCAK256 PUSH1 0x1 DUP2 ADD SLOAD SWAP1 SWAP2 SUB PUSH2 0x13AC JUMPI POP PUSH2 0x13FB JUMP JUMPDEST PUSH1 0x0 PUSH5 0x496CEBB800 DUP5 DUP4 PUSH1 0x2 ADD SLOAD DUP5 PUSH1 0x1 ADD SLOAD PUSH2 0x13C9 SWAP2 SWAP1 PUSH2 0x197E JUMP JUMPDEST PUSH2 0x13D3 SWAP2 SWAP1 PUSH2 0x197E JUMP JUMPDEST PUSH2 0x13DD SWAP2 SWAP1 PUSH2 0x1995 JUMP JUMPDEST SWAP1 POP DUP1 DUP3 PUSH1 0x4 ADD PUSH1 0x0 DUP3 DUP3 SLOAD PUSH2 0x13F3 SWAP2 SWAP1 PUSH2 0x196B JUMP JUMPDEST SWAP1 SWAP2 SSTORE POP POP POP POP JUMPDEST PUSH1 0x1 ADD PUSH2 0x1382 JUMP JUMPDEST POP POP JUMP JUMPDEST PUSH2 0x5F6 DUP2 CALLER PUSH2 0x164A JUMP JUMPDEST PUSH1 0x0 DUP3 DUP2 MSTORE PUSH1 0x20 DUP2 DUP2 MSTORE PUSH1 0x40 DUP1 DUP4 KECCAK256 PUSH1 0x1 PUSH1 0x1 PUSH1 0xA0 SHL SUB DUP6 AND DUP5 MSTORE SWAP1 SWAP2 MSTORE DUP2 KECCAK256 SLOAD PUSH1 0xFF AND PUSH2 0x14B3 JUMPI PUSH1 0x0 DUP4 DUP2 MSTORE PUSH1 0x20 DUP2 DUP2 MSTORE PUSH1 0x40 DUP1 DUP4 KECCAK256 PUSH1 0x1 PUSH1 0x1 PUSH1 0xA0 SHL SUB DUP7 AND DUP5 MSTORE SWAP1 SWAP2 MSTORE SWAP1 KECCAK256 DUP1 SLOAD PUSH1 0xFF NOT AND PUSH1 0x1 OR SWAP1 SSTORE PUSH2 0x146B CALLER SWAP1 JUMP JUMPDEST PUSH1 0x1 PUSH1 0x1 PUSH1 0xA0 SHL SUB AND DUP3 PUSH1 0x1 PUSH1 0x1 PUSH1 0xA0 SHL SUB AND DUP5 PUSH32 0x2F8788117E7EFF1D82E926EC794901D17C78024A50270940304540A733656F0D PUSH1 0x40 MLOAD PUSH1 0x40 MLOAD DUP1 SWAP2 SUB SWAP1 LOG4 POP PUSH1 0x1 PUSH2 0x4C1 JUMP JUMPDEST POP PUSH1 0x0 PUSH2 0x4C1 JUMP JUMPDEST PUSH1 0x0 DUP3 DUP2 MSTORE PUSH1 0x20 DUP2 DUP2 MSTORE PUSH1 0x40 DUP1 DUP4 KECCAK256 PUSH1 0x1 PUSH1 0x1 PUSH1 0xA0 SHL SUB DUP6 AND DUP5 MSTORE SWAP1 SWAP2 MSTORE DUP2 KECCAK256 SLOAD PUSH1 0xFF AND ISZERO PUSH2 0x14B3 JUMPI PUSH1 0x0 DUP4 DUP2 MSTORE PUSH1 0x20 DUP2 DUP2 MSTORE PUSH1 0x40 DUP1 DUP4 KECCAK256 PUSH1 0x1 PUSH1 0x1 PUSH1 0xA0 SHL SUB DUP7 AND DUP1 DUP6 MSTORE SWAP3 MSTORE DUP1 DUP4 KECCAK256 DUP1 SLOAD PUSH1 0xFF NOT AND SWAP1 SSTORE MLOAD CALLER SWAP3 DUP7 SWAP2 PUSH32 0xF6391F5C32D9C69D2A47EA670B442974B53935D1EDC7FD64EB21E047A839171B SWAP2 SWAP1 LOG4 POP PUSH1 0x1 PUSH2 0x4C1 JUMP JUMPDEST PUSH2 0x1546 PUSH2 0x16B6 JUMP JUMPDEST PUSH1 0x1 DUP1 SLOAD PUSH1 0xFF NOT AND SWAP1 SSTORE PUSH32 0x5DB9EE0A495BF2E6FF9C91A7834C1BA4FDD244A5E8AA4E537BD38AEAE4B073AA CALLER JUMPDEST PUSH1 0x40 MLOAD PUSH1 0x1 PUSH1 0x1 PUSH1 0xA0 SHL SUB SWAP1 SWAP2 AND DUP2 MSTORE PUSH1 0x20 ADD PUSH1 0x40 MLOAD DUP1 SWAP2 SUB SWAP1 LOG1 JUMP JUMPDEST PUSH1 0x1 SLOAD PUSH1 0xFF AND ISZERO PUSH2 0x536 JUMPI PUSH1 0x40 MLOAD PUSH32 0xD93C066500000000000000000000000000000000000000000000000000000000 DUP2 MSTORE PUSH1 0x4 ADD PUSH1 0x40 MLOAD DUP1 SWAP2 SUB SWAP1 REVERT JUMPDEST PUSH2 0x15D5 PUSH2 0x1590 JUMP JUMPDEST PUSH1 0x1 DUP1 SLOAD PUSH1 0xFF NOT AND DUP2 OR SWAP1 SSTORE PUSH32 0x62E78CEA01BEE320CD4E420270B5EA74000D11B0C9F74754EBDBFC544B05A258 CALLER PUSH2 0x1573 JUMP JUMPDEST PUSH1 0x0 DUP1 JUMPDEST DUP3 MLOAD DUP2 LT ISZERO PUSH2 0x1644 JUMPI DUP3 DUP2 DUP2 MLOAD DUP2 LT PUSH2 0x1627 JUMPI PUSH2 0x1627 PUSH2 0x19EC JUMP JUMPDEST PUSH1 0x20 MUL PUSH1 0x20 ADD ADD MLOAD DUP3 PUSH2 0x163A SWAP2 SWAP1 PUSH2 0x196B JUMP JUMPDEST SWAP2 POP PUSH1 0x1 ADD PUSH2 0x160C JUMP JUMPDEST POP SWAP2 SWAP1 POP JUMP JUMPDEST PUSH1 0x0 DUP3 DUP2 MSTORE PUSH1 0x20 DUP2 DUP2 MSTORE PUSH1 0x40 DUP1 DUP4 KECCAK256 PUSH1 0x1 PUSH1 0x1 PUSH1 0xA0 SHL SUB DUP6 AND DUP5 MSTORE SWAP1 SWAP2 MSTORE SWAP1 KECCAK256 SLOAD PUSH1 0xFF AND PUSH2 0x1403 JUMPI PUSH1 0x40 MLOAD PUSH32 0xE2517D3F00000000000000000000000000000000000000000000000000000000 DUP2 MSTORE PUSH1 0x1 PUSH1 0x1 PUSH1 0xA0 SHL SUB DUP3 AND PUSH1 0x4 DUP3 ADD MSTORE PUSH1 0x24 DUP2 ADD DUP4 SWAP1 MSTORE PUSH1 0x44 ADD PUSH2 0x6C9 JUMP JUMPDEST PUSH1 0x1 SLOAD PUSH1 0xFF AND PUSH2 0x536 JUMPI PUSH1 0x40 MLOAD PUSH32 0x8DFC202B00000000000000000000000000000000000000000000000000000000 DUP2 MSTORE PUSH1 0x4 ADD PUSH1 0x40 MLOAD DUP1 SWAP2 SUB SWAP1 REVERT JUMPDEST PUSH1 0x1 PUSH1 0x1 PUSH1 0xA0 SHL SUB DUP2 AND DUP2 EQ PUSH2 0x5F6 JUMPI PUSH1 0x0 DUP1 REVERT JUMPDEST PUSH1 0x0 DUP1 PUSH1 0x40 DUP4 DUP6 SUB SLT ISZERO PUSH2 0x171A JUMPI PUSH1 0x0 DUP1 REVERT JUMPDEST DUP3 CALLDATALOAD PUSH2 0x1725 DUP2 PUSH2 0x16F2 JUMP JUMPDEST SWAP5 PUSH1 0x20 SWAP4 SWAP1 SWAP4 ADD CALLDATALOAD SWAP4 POP POP POP JUMP JUMPDEST PUSH1 0x0 PUSH1 0x20 DUP3 DUP5 SUB SLT ISZERO PUSH2 0x1745 JUMPI PUSH1 0x0 DUP1 REVERT JUMPDEST DUP2 CALLDATALOAD PUSH1 0x1 PUSH1 0x1 PUSH1 0xE0 SHL SUB NOT DUP2 AND DUP2 EQ PUSH2 0x175D JUMPI PUSH1 0x0 DUP1 REVERT JUMPDEST SWAP4 SWAP3 POP POP POP JUMP JUMPDEST PUSH1 0x0 PUSH1 0x20 DUP3 DUP5 SUB SLT ISZERO PUSH2 0x1776 JUMPI PUSH1 0x0 DUP1 REVERT JUMPDEST POP CALLDATALOAD SWAP2 SWAP1 POP JUMP JUMPDEST PUSH1 0x0 DUP1 PUSH1 0x40 DUP4 DUP6 SUB SLT ISZERO PUSH2 0x1790 JUMPI PUSH1 0x0 DUP1 REVERT JUMPDEST DUP3 CALLDATALOAD SWAP2 POP PUSH1 0x20 DUP4 ADD CALLDATALOAD PUSH2 0x17A2 DUP2 PUSH2 0x16F2 JUMP JUMPDEST DUP1 SWAP2 POP POP SWAP3 POP SWAP3 SWAP1 POP JUMP JUMPDEST PUSH1 0x0 DUP1 PUSH1 0x40 DUP4 DUP6 SUB SLT ISZERO PUSH2 0x17C0 JUMPI PUSH1 0x0 DUP1 REVERT JUMPDEST POP POP DUP1 CALLDATALOAD SWAP3 PUSH1 0x20 SWAP1 SWAP2 ADD CALLDATALOAD SWAP2 POP JUMP JUMPDEST PUSH1 0x0 DUP1 DUP4 PUSH1 0x1F DUP5 ADD SLT PUSH2 0x17E1 JUMPI PUSH1 0x0 DUP1 REVERT JUMPDEST POP DUP2 CALLDATALOAD PUSH8 0xFFFFFFFFFFFFFFFF DUP2 GT ISZERO PUSH2 0x17F9 JUMPI PUSH1 0x0 DUP1 REVERT JUMPDEST PUSH1 0x20 DUP4 ADD SWAP2 POP DUP4 PUSH1 0x20 DUP3 PUSH1 0x5 SHL DUP6 ADD ADD GT ISZERO PUSH2 0x1814 JUMPI PUSH1 0x0 DUP1 REVERT JUMPDEST SWAP3 POP SWAP3 SWAP1 POP JUMP JUMPDEST PUSH1 0x0 DUP1 PUSH1 0x0 DUP1 PUSH1 0x0 PUSH1 0x60 DUP7 DUP9 SUB SLT ISZERO PUSH2 0x1833 JUMPI PUSH1 0x0 DUP1 REVERT JUMPDEST DUP6 CALLDATALOAD SWAP5 POP PUSH1 0x20 DUP7 ADD CALLDATALOAD PUSH8 0xFFFFFFFFFFFFFFFF DUP1 DUP3 GT ISZERO PUSH2 0x1852 JUMPI PUSH1 0x0 DUP1 REVERT JUMPDEST PUSH2 0x185E DUP10 DUP4 DUP11 ADD PUSH2 0x17CF JUMP JUMPDEST SWAP1 SWAP7 POP SWAP5 POP PUSH1 0x40 DUP9 ADD CALLDATALOAD SWAP2 POP DUP1 DUP3 GT ISZERO PUSH2 0x1877 JUMPI PUSH1 0x0 DUP1 REVERT JUMPDEST POP PUSH2 0x1884 DUP9 DUP3 DUP10 ADD PUSH2 0x17CF JUMP JUMPDEST SWAP7 SWAP10 SWAP6 SWAP9 POP SWAP4 SWAP7 POP SWAP3 SWAP5 SWAP4 SWAP3 POP POP POP JUMP JUMPDEST PUSH1 0x0 DUP1 PUSH1 0x0 DUP1 PUSH1 0x0 PUSH1 0xA0 DUP7 DUP9 SUB SLT ISZERO PUSH2 0x18AD JUMPI PUSH1 0x0 DUP1 REVERT JUMPDEST DUP6 CALLDATALOAD PUSH2 0x18B8 DUP2 PUSH2 0x16F2 JUMP JUMPDEST SWAP5 POP PUSH1 0x20 DUP7 ADD CALLDATALOAD SWAP4 POP PUSH1 0x40 DUP7 ADD CALLDATALOAD SWAP3 POP PUSH1 0x60 DUP7 ADD CALLDATALOAD PUSH1 0xFF DUP2 AND DUP2 EQ PUSH2 0x18DC JUMPI PUSH1 0x0 DUP1 REVERT JUMPDEST SWAP5 SWAP8 SWAP4 SWAP7 POP SWAP2 SWAP5 PUSH1 0x80 ADD CALLDATALOAD SWAP3 SWAP2 POP POP JUMP JUMPDEST PUSH1 0x0 PUSH1 0x20 DUP1 DUP4 MSTORE DUP4 MLOAD DUP1 PUSH1 0x20 DUP6 ADD MSTORE PUSH1 0x0 JUMPDEST DUP2 DUP2 LT ISZERO PUSH2 0x191B JUMPI DUP6 DUP2 ADD DUP4 ADD MLOAD DUP6 DUP3 ADD PUSH1 0x40 ADD MSTORE DUP3 ADD PUSH2 0x18FF JUMP JUMPDEST POP PUSH1 0x0 PUSH1 0x40 DUP3 DUP7 ADD ADD MSTORE PUSH1 0x40 PUSH1 0x1F NOT PUSH1 0x1F DUP4 ADD AND DUP6 ADD ADD SWAP3 POP POP POP SWAP3 SWAP2 POP POP JUMP JUMPDEST PUSH1 0x0 PUSH1 0x20 DUP3 DUP5 SUB SLT ISZERO PUSH2 0x194E JUMPI PUSH1 0x0 DUP1 REVERT JUMPDEST POP MLOAD SWAP2 SWAP1 POP JUMP JUMPDEST PUSH4 0x4E487B71 PUSH1 0xE0 SHL PUSH1 0x0 MSTORE PUSH1 0x11 PUSH1 0x4 MSTORE PUSH1 0x24 PUSH1 0x0 REVERT JUMPDEST DUP1 DUP3 ADD DUP1 DUP3 GT ISZERO PUSH2 0x4C1 JUMPI PUSH2 0x4C1 PUSH2 0x1955 JUMP JUMPDEST DUP1 DUP3 MUL DUP2 ISZERO DUP3 DUP3 DIV DUP5 EQ OR PUSH2 0x4C1 JUMPI PUSH2 0x4C1 PUSH2 0x1955 JUMP JUMPDEST PUSH1 0x0 DUP3 PUSH2 0x19B2 JUMPI PUSH4 0x4E487B71 PUSH1 0xE0 SHL PUSH1 0x0 MSTORE PUSH1 0x12 PUSH1 0x4 MSTORE PUSH1 0x24 PUSH1 0x0 REVERT JUMPDEST POP DIV SWAP1 JUMP JUMPDEST DUP2 DUP2 SUB DUP2 DUP2 GT ISZERO PUSH2 0x4C1 JUMPI PUSH2 0x4C1 PUSH2 0x1955 JUMP JUMPDEST PUSH1 0x0 PUSH1 0x20 DUP3 DUP5 SUB SLT ISZERO PUSH2 0x19DC JUMPI PUSH1 0x0 DUP1 REVERT JUMPDEST DUP2 MLOAD DUP1 ISZERO ISZERO DUP2 EQ PUSH2 0x175D JUMPI PUSH1 0x0 DUP1 REVERT JUMPDEST PUSH4 0x4E487B71 PUSH1 0xE0 SHL PUSH1 0x0 MSTORE PUSH1 0x32 PUSH1 0x4 MSTORE PUSH1 0x24 PUSH1 0x0 REVERT JUMPDEST PUSH1 0x0 PUSH1 0x20 DUP3 DUP5 SUB SLT ISZERO PUSH2 0x1A14 JUMPI PUSH1 0x0 DUP1 REVERT JUMPDEST DUP2 CALLDATALOAD PUSH2 0x175D DUP2 PUSH2 0x16F2 JUMP JUMPDEST PUSH1 0x0 PUSH1 0x1 DUP3 ADD PUSH2 0x1A31 JUMPI PUSH2 0x1A31 PUSH2 0x1955 JUMP JUMPDEST POP PUSH1 0x1 ADD SWAP1 JUMP JUMPDEST PUSH1 0x0 PUSH1 0xFF DUP3 AND PUSH1 0xFF DUP2 SUB PUSH2 0x1A4E JUMPI PUSH2 0x1A4E PUSH2 0x1955 JUMP JUMPDEST PUSH1 0x1 ADD SWAP3 SWAP2 POP POP JUMP JUMPDEST PUSH1 0x1 DUP2 DUP2 SHR SWAP1 DUP3 AND DUP1 PUSH2 0x1A6B JUMPI PUSH1 0x7F DUP3 AND SWAP2 POP JUMPDEST PUSH1 0x20 DUP3 LT DUP2 SUB PUSH2 0x1644 JUMPI PUSH4 0x4E487B71 PUSH1 0xE0 SHL PUSH1 0x0 MSTORE PUSH1 0x22 PUSH1 0x4 MSTORE PUSH1 0x24 PUSH1 0x0 REVERT INVALID LOG2 PUSH5 0x6970667358 0x22 SLT KECCAK256 EXTCODEHASH 0xDA SWAP8 0x4B SWAP14 PUSH20 0xD244202AE7C03D275C28F0C0156D9039D1350310 PUSH3 0xFADBD5 0x23 0xFB PUSH5 0x736F6C6343 STOP ADDMOD XOR STOP CALLER "
				},
				"gasEstimates": {
					"creation": {
						"codeDepositCost": "1369800",
						"executionCost": "infinite",
						"totalCost": "infinite"
					},
					"external": {
						"DEFAULT_ADMIN_ROLE()": "251",
						"SERVICER_ROLE()": "275",
						"accrueAllInterest()": "infinite",
						"balanceOf(address,uint256)": "infinite",
						"createTranche(address,uint256,uint256,uint8,uint256)": "infinite",
						"depositAndDistribute(uint256)": "infinite",
						"distributeToInvestors(uint256,address[],uint256[])": "infinite",
						"getRoleAdmin(bytes32)": "2482",
						"grantRole(bytes32,address)": "infinite",
						"hasRole(bytes32,address)": "2738",
						"lastAccrual()": "2374",
						"nextTrancheId()": "2394",
						"pause()": "infinite",
						"paused()": "2350",
						"renounceRole(bytes32,address)": "29025",
						"revokeRole(bytes32,address)": "infinite",
						"stable()": "infinite",
						"supportsInterface(bytes4)": "505",
						"sweep(address,uint256)": "infinite",
						"totalSupply()": "infinite",
						"totalSupply(uint256)": "infinite",
						"tranches(uint256)": "13243",
						"unpause()": "infinite",
						"uri()": "infinite",
						"withdraw(uint256,uint256)": "infinite"
					},
					"internal": {
						"_accrueAllInterest()": "infinite",
						"_totalAmount(uint256[] memory)": "infinite"
					}
				},
				"methodIdentifiers": {
					"DEFAULT_ADMIN_ROLE()": "a217fddf",
					"SERVICER_ROLE()": "09a01608",
					"accrueAllInterest()": "0bfed82a",
					"balanceOf(address,uint256)": "00fdd58e",
					"createTranche(address,uint256,uint256,uint8,uint256)": "9612df5c",
					"depositAndDistribute(uint256)": "bef6f540",
					"distributeToInvestors(uint256,address[],uint256[])": "897a3651",
					"getRoleAdmin(bytes32)": "248a9ca3",
					"grantRole(bytes32,address)": "2f2ff15d",
					"hasRole(bytes32,address)": "91d14854",
					"lastAccrual()": "7b3baab4",
					"nextTrancheId()": "f0f9243b",
					"pause()": "8456cb59",
					"paused()": "5c975abb",
					"renounceRole(bytes32,address)": "36568abe",
					"revokeRole(bytes32,address)": "d547741f",
					"stable()": "22be3de1",
					"supportsInterface(bytes4)": "01ffc9a7",
					"sweep(address,uint256)": "6ea056a9",
					"totalSupply()": "18160ddd",
					"totalSupply(uint256)": "bd85b039",
					"tranches(uint256)": "26c25962",
					"unpause()": "3f4ba83a",
					"uri()": "eac989f8",
					"withdraw(uint256,uint256)": "441a3e70"
				}
			},
			"storageLayout": {
				"storage": [
					{
						"astId": 26,
						"contract": "contracts/CMBS20Demo.sol:CMBS20Demo",
						"label": "_roles",
						"offset": 0,
						"slot": "0",
						"type": "t_mapping(t_bytes32,t_struct(RoleData)21_storage)"
					},
					{
						"astId": 1173,
						"contract": "contracts/CMBS20Demo.sol:CMBS20Demo",
						"label": "_paused",
						"offset": 0,
						"slot": "1",
						"type": "t_bool"
					},
					{
						"astId": 1339,
						"contract": "contracts/CMBS20Demo.sol:CMBS20Demo",
						"label": "uri",
						"offset": 0,
						"slot": "2",
						"type": "t_string_storage"
					},
					{
						"astId": 1344,
						"contract": "contracts/CMBS20Demo.sol:CMBS20Demo",
						"label": "nextTrancheId",
						"offset": 0,
						"slot": "3",
						"type": "t_uint256"
					},
					{
						"astId": 1346,
						"contract": "contracts/CMBS20Demo.sol:CMBS20Demo",
						"label": "lastAccrual",
						"offset": 0,
						"slot": "4",
						"type": "t_uint256"
					},
					{
						"astId": 1351,
						"contract": "contracts/CMBS20Demo.sol:CMBS20Demo",
						"label": "tranches",
						"offset": 0,
						"slot": "5",
						"type": "t_mapping(t_uint256,t_struct(Tranche)1337_storage)"
					}
				],
				"types": {
					"t_address": {
						"encoding": "inplace",
						"label": "address",
						"numberOfBytes": "20"
					},
					"t_bool": {
						"encoding": "inplace",
						"label": "bool",
						"numberOfBytes": "1"
					},
					"t_bytes32": {
						"encoding": "inplace",
						"label": "bytes32",
						"numberOfBytes": "32"
					},
					"t_contract(ERC3643Token)2114": {
						"encoding": "inplace",
						"label": "contract ERC3643Token",
						"numberOfBytes": "20"
					},
					"t_mapping(t_address,t_bool)": {
						"encoding": "mapping",
						"key": "t_address",
						"label": "mapping(address => bool)",
						"numberOfBytes": "32",
						"value": "t_bool"
					},
					"t_mapping(t_bytes32,t_struct(RoleData)21_storage)": {
						"encoding": "mapping",
						"key": "t_bytes32",
						"label": "mapping(bytes32 => struct AccessControl.RoleData)",
						"numberOfBytes": "32",
						"value": "t_struct(RoleData)21_storage"
					},
					"t_mapping(t_uint256,t_struct(Tranche)1337_storage)": {
						"encoding": "mapping",
						"key": "t_uint256",
						"label": "mapping(uint256 => struct CMBS20Demo.Tranche)",
						"numberOfBytes": "32",
						"value": "t_struct(Tranche)1337_storage"
					},
					"t_string_storage": {
						"encoding": "bytes",
						"label": "string",
						"numberOfBytes": "32"
					},
					"t_struct(RoleData)21_storage": {
						"encoding": "inplace",
						"label": "struct AccessControl.RoleData",
						"members": [
							{
								"astId": 18,
								"contract": "contracts/CMBS20Demo.sol:CMBS20Demo",
								"label": "hasRole",
								"offset": 0,
								"slot": "0",
								"type": "t_mapping(t_address,t_bool)"
							},
							{
								"astId": 20,
								"contract": "contracts/CMBS20Demo.sol:CMBS20Demo",
								"label": "adminRole",
								"offset": 0,
								"slot": "1",
								"type": "t_bytes32"
							}
						],
						"numberOfBytes": "64"
					},
					"t_struct(Tranche)1337_storage": {
						"encoding": "inplace",
						"label": "struct CMBS20Demo.Tranche",
						"members": [
							{
								"astId": 1326,
								"contract": "contracts/CMBS20Demo.sol:CMBS20Demo",
								"label": "token",
								"offset": 0,
								"slot": "0",
								"type": "t_contract(ERC3643Token)2114"
							},
							{
								"astId": 1328,
								"contract": "contracts/CMBS20Demo.sol:CMBS20Demo",
								"label": "principal",
								"offset": 0,
								"slot": "1",
								"type": "t_uint256"
							},
							{
								"astId": 1330,
								"contract": "contracts/CMBS20Demo.sol:CMBS20Demo",
								"label": "couponBps",
								"offset": 0,
								"slot": "2",
								"type": "t_uint256"
							},
							{
								"astId": 1332,
								"contract": "contracts/CMBS20Demo.sol:CMBS20Demo",
								"label": "seniority",
								"offset": 0,
								"slot": "3",
								"type": "t_uint8"
							},
							{
								"astId": 1334,
								"contract": "contracts/CMBS20Demo.sol:CMBS20Demo",
								"label": "accruedInterest",
								"offset": 0,
								"slot": "4",
								"type": "t_uint256"
							},
							{
								"astId": 1336,
								"contract": "contracts/CMBS20Demo.sol:CMBS20Demo",
								"label": "cashAvailable",
								"offset": 0,
								"slot": "5",
								"type": "t_uint256"
							}
						],
						"numberOfBytes": "192"
					},
					"t_uint256": {
						"encoding": "inplace",
						"label": "uint256",
						"numberOfBytes": "32"
					},
					"t_uint8": {
						"encoding": "inplace",
						"label": "uint8",
						"numberOfBytes": "1"
					}
				}
			},
			"userdoc": {
				"kind": "user",
				"methods": {},
				"version": 1
			}
		}
	}
}